{
	"https://github.com/erc6551/reference/blob/v0.2.0-deployment/src/ERC6551Registry.sol": {
		"ERC6551Registry": {
			"abi": [
				{
					"inputs": [],
					"name": "InitializationFailed",
					"type": "error"
				},
				{
					"anonymous": false,
					"inputs": [
						{
							"indexed": false,
							"internalType": "address",
							"name": "account",
							"type": "address"
						},
						{
							"indexed": false,
							"internalType": "address",
							"name": "implementation",
							"type": "address"
						},
						{
							"indexed": false,
							"internalType": "uint256",
							"name": "chainId",
							"type": "uint256"
						},
						{
							"indexed": false,
							"internalType": "address",
							"name": "tokenContract",
							"type": "address"
						},
						{
							"indexed": false,
							"internalType": "uint256",
							"name": "tokenId",
							"type": "uint256"
						},
						{
							"indexed": false,
							"internalType": "uint256",
							"name": "salt",
							"type": "uint256"
						}
					],
					"name": "AccountCreated",
					"type": "event"
				},
				{
					"inputs": [
						{
							"internalType": "address",
							"name": "implementation",
							"type": "address"
						},
						{
							"internalType": "uint256",
							"name": "chainId",
							"type": "uint256"
						},
						{
							"internalType": "address",
							"name": "tokenContract",
							"type": "address"
						},
						{
							"internalType": "uint256",
							"name": "tokenId",
							"type": "uint256"
						},
						{
							"internalType": "uint256",
							"name": "salt",
							"type": "uint256"
						}
					],
					"name": "account",
					"outputs": [
						{
							"internalType": "address",
							"name": "",
							"type": "address"
						}
					],
					"stateMutability": "view",
					"type": "function"
				},
				{
					"inputs": [
						{
							"internalType": "address",
							"name": "implementation",
							"type": "address"
						},
						{
							"internalType": "uint256",
							"name": "chainId",
							"type": "uint256"
						},
						{
							"internalType": "address",
							"name": "tokenContract",
							"type": "address"
						},
						{
							"internalType": "uint256",
							"name": "tokenId",
							"type": "uint256"
						},
						{
							"internalType": "uint256",
							"name": "salt",
							"type": "uint256"
						},
						{
							"internalType": "bytes",
							"name": "initData",
							"type": "bytes"
						}
					],
					"name": "createAccount",
					"outputs": [
						{
							"internalType": "address",
							"name": "",
							"type": "address"
						}
					],
					"stateMutability": "nonpayable",
					"type": "function"
				}
			],
			"devdoc": {
				"kind": "dev",
				"methods": {},
				"version": 1
			},
			"evm": {
				"assembly": "    /* \"https://github.com/erc6551/reference/blob/v0.2.0-deployment/src/ERC6551Registry.sol\":200:1711  contract ERC6551Registry is IERC6551Registry {... */\n  mstore(0x40, 0x80)\n  callvalue\n  dup1\n  iszero\n  tag_1\n  jumpi\n  0x00\n  dup1\n  revert\ntag_1:\n  pop\n  dataSize(sub_0)\n  dup1\n  dataOffset(sub_0)\n  0x00\n  codecopy\n  0x00\n  return\nstop\n\nsub_0: assembly {\n        /* \"https://github.com/erc6551/reference/blob/v0.2.0-deployment/src/ERC6551Registry.sol\":200:1711  contract ERC6551Registry is IERC6551Registry {... */\n      mstore(0x40, 0x80)\n      callvalue\n      dup1\n      iszero\n      tag_1\n      jumpi\n      0x00\n      dup1\n      revert\n    tag_1:\n      pop\n      jumpi(tag_2, lt(calldatasize, 0x04))\n      shr(0xe0, calldataload(0x00))\n      dup1\n      0x5e9bc536\n      eq\n      tag_3\n      jumpi\n      dup1\n      0xda7323b3\n      eq\n      tag_4\n      jumpi\n    tag_2:\n      0x00\n      dup1\n      revert\n        /* \"https://github.com/erc6551/reference/blob/v0.2.0-deployment/src/ERC6551Registry.sol\":1194:1709  function account(... */\n    tag_3:\n      tag_5\n      0x04\n      dup1\n      calldatasize\n      sub\n      dup2\n      add\n      swap1\n      tag_6\n      swap2\n      swap1\n      tag_7\n      jump\t// in\n    tag_6:\n      tag_8\n      jump\t// in\n    tag_5:\n      mload(0x40)\n      tag_9\n      swap2\n      swap1\n      tag_10\n      jump\t// in\n    tag_9:\n      mload(0x40)\n      dup1\n      swap2\n      sub\n      swap1\n      return\n        /* \"https://github.com/erc6551/reference/blob/v0.2.0-deployment/src/ERC6551Registry.sol\":286:1188  function createAccount(... */\n    tag_4:\n      tag_11\n      0x04\n      dup1\n      calldatasize\n      sub\n      dup2\n      add\n      swap1\n      tag_12\n      swap2\n      swap1\n      tag_13\n      jump\t// in\n    tag_12:\n      tag_14\n      jump\t// in\n    tag_11:\n      mload(0x40)\n      tag_15\n      swap2\n      swap1\n      tag_10\n      jump\t// in\n    tag_15:\n      mload(0x40)\n      dup1\n      swap2\n      sub\n      swap1\n      return\n        /* \"https://github.com/erc6551/reference/blob/v0.2.0-deployment/src/ERC6551Registry.sol\":1194:1709  function account(... */\n    tag_8:\n        /* \"https://github.com/erc6551/reference/blob/v0.2.0-deployment/src/ERC6551Registry.sol\":1375:1382  address */\n      0x00\n        /* \"https://github.com/erc6551/reference/blob/v0.2.0-deployment/src/ERC6551Registry.sol\":1394:1414  bytes32 bytecodeHash */\n      dup1\n        /* \"https://github.com/erc6551/reference/blob/v0.2.0-deployment/src/ERC6551Registry.sol\":1440:1623  ERC6551BytecodeLib.getCreationCode(... */\n      tag_17\n        /* \"https://github.com/erc6551/reference/blob/v0.2.0-deployment/src/ERC6551Registry.sol\":1492:1506  implementation */\n      dup8\n        /* \"https://github.com/erc6551/reference/blob/v0.2.0-deployment/src/ERC6551Registry.sol\":1524:1531  chainId */\n      dup8\n        /* \"https://github.com/erc6551/reference/blob/v0.2.0-deployment/src/ERC6551Registry.sol\":1549:1562  tokenContract */\n      dup8\n        /* \"https://github.com/erc6551/reference/blob/v0.2.0-deployment/src/ERC6551Registry.sol\":1580:1587  tokenId */\n      dup8\n        /* \"https://github.com/erc6551/reference/blob/v0.2.0-deployment/src/ERC6551Registry.sol\":1605:1609  salt */\n      dup8\n        /* \"https://github.com/erc6551/reference/blob/v0.2.0-deployment/src/ERC6551Registry.sol\":1440:1474  ERC6551BytecodeLib.getCreationCode */\n      tag_18\n        /* \"https://github.com/erc6551/reference/blob/v0.2.0-deployment/src/ERC6551Registry.sol\":1440:1623  ERC6551BytecodeLib.getCreationCode(... */\n      jump\t// in\n    tag_17:\n        /* \"https://github.com/erc6551/reference/blob/v0.2.0-deployment/src/ERC6551Registry.sol\":1417:1633  keccak256(... */\n      dup1\n      mload\n      swap1\n      0x20\n      add\n      keccak256\n        /* \"https://github.com/erc6551/reference/blob/v0.2.0-deployment/src/ERC6551Registry.sol\":1394:1633  bytes32 bytecodeHash = keccak256(... */\n      swap1\n      pop\n        /* \"https://github.com/erc6551/reference/blob/v0.2.0-deployment/src/ERC6551Registry.sol\":1651:1702  Create2.computeAddress(bytes32(salt), bytecodeHash) */\n      tag_19\n        /* \"https://github.com/erc6551/reference/blob/v0.2.0-deployment/src/ERC6551Registry.sol\":1682:1686  salt */\n      dup4\n        /* \"https://github.com/erc6551/reference/blob/v0.2.0-deployment/src/ERC6551Registry.sol\":1674:1687  bytes32(salt) */\n      0x00\n      shl\n        /* \"https://github.com/erc6551/reference/blob/v0.2.0-deployment/src/ERC6551Registry.sol\":1689:1701  bytecodeHash */\n      dup3\n        /* \"https://github.com/erc6551/reference/blob/v0.2.0-deployment/src/ERC6551Registry.sol\":1651:1673  Create2.computeAddress */\n      tag_20\n        /* \"https://github.com/erc6551/reference/blob/v0.2.0-deployment/src/ERC6551Registry.sol\":1651:1702  Create2.computeAddress(bytes32(salt), bytecodeHash) */\n      jump\t// in\n    tag_19:\n        /* \"https://github.com/erc6551/reference/blob/v0.2.0-deployment/src/ERC6551Registry.sol\":1644:1702  return Create2.computeAddress(bytes32(salt), bytecodeHash) */\n      swap2\n      pop\n      pop\n        /* \"https://github.com/erc6551/reference/blob/v0.2.0-deployment/src/ERC6551Registry.sol\":1194:1709  function account(... */\n      swap6\n      swap5\n      pop\n      pop\n      pop\n      pop\n      pop\n      jump\t// out\n        /* \"https://github.com/erc6551/reference/blob/v0.2.0-deployment/src/ERC6551Registry.sol\":286:1188  function createAccount(... */\n    tag_14:\n        /* \"https://github.com/erc6551/reference/blob/v0.2.0-deployment/src/ERC6551Registry.sol\":501:508  address */\n      0x00\n        /* \"https://github.com/erc6551/reference/blob/v0.2.0-deployment/src/ERC6551Registry.sol\":520:537  bytes memory code */\n      dup1\n        /* \"https://github.com/erc6551/reference/blob/v0.2.0-deployment/src/ERC6551Registry.sol\":540:699  ERC6551BytecodeLib.getCreationCode(... */\n      tag_22\n        /* \"https://github.com/erc6551/reference/blob/v0.2.0-deployment/src/ERC6551Registry.sol\":588:602  implementation */\n      dup10\n        /* \"https://github.com/erc6551/reference/blob/v0.2.0-deployment/src/ERC6551Registry.sol\":616:623  chainId */\n      dup10\n        /* \"https://github.com/erc6551/reference/blob/v0.2.0-deployment/src/ERC6551Registry.sol\":637:650  tokenContract */\n      dup10\n        /* \"https://github.com/erc6551/reference/blob/v0.2.0-deployment/src/ERC6551Registry.sol\":664:671  tokenId */\n      dup10\n        /* \"https://github.com/erc6551/reference/blob/v0.2.0-deployment/src/ERC6551Registry.sol\":685:689  salt */\n      dup10\n        /* \"https://github.com/erc6551/reference/blob/v0.2.0-deployment/src/ERC6551Registry.sol\":540:574  ERC6551BytecodeLib.getCreationCode */\n      tag_18\n        /* \"https://github.com/erc6551/reference/blob/v0.2.0-deployment/src/ERC6551Registry.sol\":540:699  ERC6551BytecodeLib.getCreationCode(... */\n      jump\t// in\n    tag_22:\n        /* \"https://github.com/erc6551/reference/blob/v0.2.0-deployment/src/ERC6551Registry.sol\":520:699  bytes memory code = ERC6551BytecodeLib.getCreationCode(... */\n      swap1\n      pop\n        /* \"https://github.com/erc6551/reference/blob/v0.2.0-deployment/src/ERC6551Registry.sol\":710:726  address _account */\n      0x00\n        /* \"https://github.com/erc6551/reference/blob/v0.2.0-deployment/src/ERC6551Registry.sol\":729:783  Create2.computeAddress(bytes32(salt), keccak256(code)) */\n      tag_23\n        /* \"https://github.com/erc6551/reference/blob/v0.2.0-deployment/src/ERC6551Registry.sol\":760:764  salt */\n      dup7\n        /* \"https://github.com/erc6551/reference/blob/v0.2.0-deployment/src/ERC6551Registry.sol\":752:765  bytes32(salt) */\n      0x00\n      shl\n        /* \"https://github.com/erc6551/reference/blob/v0.2.0-deployment/src/ERC6551Registry.sol\":777:781  code */\n      dup4\n        /* \"https://github.com/erc6551/reference/blob/v0.2.0-deployment/src/ERC6551Registry.sol\":767:782  keccak256(code) */\n      dup1\n      mload\n      swap1\n      0x20\n      add\n      keccak256\n        /* \"https://github.com/erc6551/reference/blob/v0.2.0-deployment/src/ERC6551Registry.sol\":729:751  Create2.computeAddress */\n      tag_20\n        /* \"https://github.com/erc6551/reference/blob/v0.2.0-deployment/src/ERC6551Registry.sol\":729:783  Create2.computeAddress(bytes32(salt), keccak256(code)) */\n      jump\t// in\n    tag_23:\n        /* \"https://github.com/erc6551/reference/blob/v0.2.0-deployment/src/ERC6551Registry.sol\":710:783  address _account = Create2.computeAddress(bytes32(salt), keccak256(code)) */\n      swap1\n      pop\n        /* \"https://github.com/erc6551/reference/blob/v0.2.0-deployment/src/ERC6551Registry.sol\":822:823  0 */\n      0x00\n        /* \"https://github.com/erc6551/reference/blob/v0.2.0-deployment/src/ERC6551Registry.sol\":798:806  _account */\n      dup2\n        /* \"https://github.com/erc6551/reference/blob/v0.2.0-deployment/src/ERC6551Registry.sol\":798:818  _account.code.length */\n      0xffffffffffffffffffffffffffffffffffffffff\n      and\n      extcodesize\n        /* \"https://github.com/erc6551/reference/blob/v0.2.0-deployment/src/ERC6551Registry.sol\":798:823  _account.code.length != 0 */\n      eq\n        /* \"https://github.com/erc6551/reference/blob/v0.2.0-deployment/src/ERC6551Registry.sol\":794:840  if (_account.code.length != 0) return _account */\n      tag_24\n      jumpi\n        /* \"https://github.com/erc6551/reference/blob/v0.2.0-deployment/src/ERC6551Registry.sol\":832:840  _account */\n      dup1\n        /* \"https://github.com/erc6551/reference/blob/v0.2.0-deployment/src/ERC6551Registry.sol\":825:840  return _account */\n      swap3\n      pop\n      pop\n      pop\n      jump(tag_21)\n        /* \"https://github.com/erc6551/reference/blob/v0.2.0-deployment/src/ERC6551Registry.sol\":794:840  if (_account.code.length != 0) return _account */\n    tag_24:\n        /* \"https://github.com/erc6551/reference/blob/v0.2.0-deployment/src/ERC6551Registry.sol\":856:935  AccountCreated(_account, implementation, chainId, tokenContract, tokenId, salt) */\n      0x07fba7bba1191da7ee1155dcfa0030701c9c9a9cc34a93b991fc6fd0c9268d8f\n        /* \"https://github.com/erc6551/reference/blob/v0.2.0-deployment/src/ERC6551Registry.sol\":871:879  _account */\n      dup2\n        /* \"https://github.com/erc6551/reference/blob/v0.2.0-deployment/src/ERC6551Registry.sol\":881:895  implementation */\n      dup12\n        /* \"https://github.com/erc6551/reference/blob/v0.2.0-deployment/src/ERC6551Registry.sol\":897:904  chainId */\n      dup12\n        /* \"https://github.com/erc6551/reference/blob/v0.2.0-deployment/src/ERC6551Registry.sol\":906:919  tokenContract */\n      dup12\n        /* \"https://github.com/erc6551/reference/blob/v0.2.0-deployment/src/ERC6551Registry.sol\":921:928  tokenId */\n      dup12\n        /* \"https://github.com/erc6551/reference/blob/v0.2.0-deployment/src/ERC6551Registry.sol\":930:934  salt */\n      dup12\n        /* \"https://github.com/erc6551/reference/blob/v0.2.0-deployment/src/ERC6551Registry.sol\":856:935  AccountCreated(_account, implementation, chainId, tokenContract, tokenId, salt) */\n      mload(0x40)\n      tag_25\n      swap7\n      swap6\n      swap5\n      swap4\n      swap3\n      swap2\n      swap1\n      tag_26\n      jump\t// in\n    tag_25:\n      mload(0x40)\n      dup1\n      swap2\n      sub\n      swap1\n      log1\n        /* \"https://github.com/erc6551/reference/blob/v0.2.0-deployment/src/ERC6551Registry.sol\":957:995  Create2.deploy(0, bytes32(salt), code) */\n      tag_27\n        /* \"https://github.com/erc6551/reference/blob/v0.2.0-deployment/src/ERC6551Registry.sol\":972:973  0 */\n      0x00\n        /* \"https://github.com/erc6551/reference/blob/v0.2.0-deployment/src/ERC6551Registry.sol\":983:987  salt */\n      dup8\n        /* \"https://github.com/erc6551/reference/blob/v0.2.0-deployment/src/ERC6551Registry.sol\":975:988  bytes32(salt) */\n      0x00\n      shl\n        /* \"https://github.com/erc6551/reference/blob/v0.2.0-deployment/src/ERC6551Registry.sol\":990:994  code */\n      dup5\n        /* \"https://github.com/erc6551/reference/blob/v0.2.0-deployment/src/ERC6551Registry.sol\":957:971  Create2.deploy */\n      tag_28\n        /* \"https://github.com/erc6551/reference/blob/v0.2.0-deployment/src/ERC6551Registry.sol\":957:995  Create2.deploy(0, bytes32(salt), code) */\n      jump\t// in\n    tag_27:\n        /* \"https://github.com/erc6551/reference/blob/v0.2.0-deployment/src/ERC6551Registry.sol\":946:995  _account = Create2.deploy(0, bytes32(salt), code) */\n      swap1\n      pop\n        /* \"https://github.com/erc6551/reference/blob/v0.2.0-deployment/src/ERC6551Registry.sol\":1029:1030  0 */\n      0x00\n        /* \"https://github.com/erc6551/reference/blob/v0.2.0-deployment/src/ERC6551Registry.sol\":1010:1018  initData */\n      dup6\n      dup6\n        /* \"https://github.com/erc6551/reference/blob/v0.2.0-deployment/src/ERC6551Registry.sol\":1010:1025  initData.length */\n      swap1\n      pop\n        /* \"https://github.com/erc6551/reference/blob/v0.2.0-deployment/src/ERC6551Registry.sol\":1010:1030  initData.length != 0 */\n      eq\n        /* \"https://github.com/erc6551/reference/blob/v0.2.0-deployment/src/ERC6551Registry.sol\":1006:1156  if (initData.length != 0) {... */\n      tag_29\n      jumpi\n        /* \"https://github.com/erc6551/reference/blob/v0.2.0-deployment/src/ERC6551Registry.sol\":1047:1059  bool success */\n      0x00\n        /* \"https://github.com/erc6551/reference/blob/v0.2.0-deployment/src/ERC6551Registry.sol\":1065:1073  _account */\n      dup2\n        /* \"https://github.com/erc6551/reference/blob/v0.2.0-deployment/src/ERC6551Registry.sol\":1065:1078  _account.call */\n      0xffffffffffffffffffffffffffffffffffffffff\n      and\n        /* \"https://github.com/erc6551/reference/blob/v0.2.0-deployment/src/ERC6551Registry.sol\":1079:1087  initData */\n      dup7\n      dup7\n        /* \"https://github.com/erc6551/reference/blob/v0.2.0-deployment/src/ERC6551Registry.sol\":1065:1088  _account.call(initData) */\n      mload(0x40)\n      tag_30\n      swap3\n      swap2\n      swap1\n      tag_31\n      jump\t// in\n    tag_30:\n      0x00\n      mload(0x40)\n      dup1\n      dup4\n      sub\n      dup2\n      0x00\n      dup7\n      gas\n      call\n      swap2\n      pop\n      pop\n      returndatasize\n      dup1\n      0x00\n      dup2\n      eq\n      tag_34\n      jumpi\n      mload(0x40)\n      swap2\n      pop\n      and(add(returndatasize, 0x3f), not(0x1f))\n      dup3\n      add\n      0x40\n      mstore\n      returndatasize\n      dup3\n      mstore\n      returndatasize\n      0x00\n      0x20\n      dup5\n      add\n      returndatacopy\n      jump(tag_33)\n    tag_34:\n      0x60\n      swap2\n      pop\n    tag_33:\n      pop\n        /* \"https://github.com/erc6551/reference/blob/v0.2.0-deployment/src/ERC6551Registry.sol\":1046:1088  (bool success, ) = _account.call(initData) */\n      pop\n      swap1\n      pop\n        /* \"https://github.com/erc6551/reference/blob/v0.2.0-deployment/src/ERC6551Registry.sol\":1107:1114  success */\n      dup1\n        /* \"https://github.com/erc6551/reference/blob/v0.2.0-deployment/src/ERC6551Registry.sol\":1102:1145  if (!success) revert InitializationFailed() */\n      tag_35\n      jumpi\n        /* \"https://github.com/erc6551/reference/blob/v0.2.0-deployment/src/ERC6551Registry.sol\":1123:1145  InitializationFailed() */\n      mload(0x40)\n      0x19b991a800000000000000000000000000000000000000000000000000000000\n      dup2\n      mstore\n      0x04\n      add\n      mload(0x40)\n      dup1\n      swap2\n      sub\n      swap1\n      revert\n        /* \"https://github.com/erc6551/reference/blob/v0.2.0-deployment/src/ERC6551Registry.sol\":1102:1145  if (!success) revert InitializationFailed() */\n    tag_35:\n        /* \"https://github.com/erc6551/reference/blob/v0.2.0-deployment/src/ERC6551Registry.sol\":1032:1156  {... */\n      pop\n        /* \"https://github.com/erc6551/reference/blob/v0.2.0-deployment/src/ERC6551Registry.sol\":1006:1156  if (initData.length != 0) {... */\n    tag_29:\n        /* \"https://github.com/erc6551/reference/blob/v0.2.0-deployment/src/ERC6551Registry.sol\":1173:1181  _account */\n      dup1\n        /* \"https://github.com/erc6551/reference/blob/v0.2.0-deployment/src/ERC6551Registry.sol\":1166:1181  return _account */\n      swap3\n      pop\n      pop\n      pop\n        /* \"https://github.com/erc6551/reference/blob/v0.2.0-deployment/src/ERC6551Registry.sol\":286:1188  function createAccount(... */\n    tag_21:\n      swap8\n      swap7\n      pop\n      pop\n      pop\n      pop\n      pop\n      pop\n      pop\n      jump\t// out\n        /* \"https://github.com/erc6551/reference/blob/v0.2.0-deployment/src/lib/ERC6551BytecodeLib.sol\":90:584  function getCreationCode(... */\n    tag_18:\n        /* \"https://github.com/erc6551/reference/blob/v0.2.0-deployment/src/lib/ERC6551BytecodeLib.sol\":284:296  bytes memory */\n      0x60\n        /* \"https://github.com/erc6551/reference/blob/v0.2.0-deployment/src/lib/ERC6551BytecodeLib.sol\":424:439  implementation_ */\n      dup6\n        /* \"https://github.com/erc6551/reference/blob/v0.2.0-deployment/src/lib/ERC6551BytecodeLib.sol\":521:526  salt_ */\n      dup3\n        /* \"https://github.com/erc6551/reference/blob/v0.2.0-deployment/src/lib/ERC6551BytecodeLib.sol\":528:536  chainId_ */\n      dup7\n        /* \"https://github.com/erc6551/reference/blob/v0.2.0-deployment/src/lib/ERC6551BytecodeLib.sol\":538:552  tokenContract_ */\n      dup7\n        /* \"https://github.com/erc6551/reference/blob/v0.2.0-deployment/src/lib/ERC6551BytecodeLib.sol\":554:562  tokenId_ */\n      dup7\n        /* \"https://github.com/erc6551/reference/blob/v0.2.0-deployment/src/lib/ERC6551BytecodeLib.sol\":510:563  abi.encode(salt_, chainId_, tokenContract_, tokenId_) */\n      add(0x20, mload(0x40))\n      tag_37\n      swap5\n      swap4\n      swap3\n      swap2\n      swap1\n      tag_38\n      jump\t// in\n    tag_37:\n      mload(0x40)\n      0x20\n      dup2\n      dup4\n      sub\n      sub\n      dup2\n      mstore\n      swap1\n      0x40\n      mstore\n        /* \"https://github.com/erc6551/reference/blob/v0.2.0-deployment/src/lib/ERC6551BytecodeLib.sol\":327:577  abi.encodePacked(... */\n      add(0x20, mload(0x40))\n      tag_39\n      swap3\n      swap2\n      swap1\n      tag_40\n      jump\t// in\n    tag_39:\n      mload(0x40)\n      0x20\n      dup2\n      dup4\n      sub\n      sub\n      dup2\n      mstore\n      swap1\n      0x40\n      mstore\n        /* \"https://github.com/erc6551/reference/blob/v0.2.0-deployment/src/lib/ERC6551BytecodeLib.sol\":308:577  return... */\n      swap1\n      pop\n        /* \"https://github.com/erc6551/reference/blob/v0.2.0-deployment/src/lib/ERC6551BytecodeLib.sol\":90:584  function getCreationCode(... */\n      swap6\n      swap5\n      pop\n      pop\n      pop\n      pop\n      pop\n      jump\t// out\n        /* \"openzeppelin-contracts/utils/Create2.sol\":1752:1917  function computeAddress(bytes32 salt, bytes32 bytecodeHash) internal view returns (address) {... */\n    tag_20:\n        /* \"openzeppelin-contracts/utils/Create2.sol\":1835:1842  address */\n      0x00\n        /* \"openzeppelin-contracts/utils/Create2.sol\":1861:1910  computeAddress(salt, bytecodeHash, address(this)) */\n      tag_42\n        /* \"openzeppelin-contracts/utils/Create2.sol\":1876:1880  salt */\n      dup4\n        /* \"openzeppelin-contracts/utils/Create2.sol\":1882:1894  bytecodeHash */\n      dup4\n        /* \"openzeppelin-contracts/utils/Create2.sol\":1904:1908  this */\n      address\n        /* \"openzeppelin-contracts/utils/Create2.sol\":1861:1875  computeAddress */\n      tag_43\n        /* \"openzeppelin-contracts/utils/Create2.sol\":1861:1910  computeAddress(salt, bytecodeHash, address(this)) */\n      jump\t// in\n    tag_42:\n        /* \"openzeppelin-contracts/utils/Create2.sol\":1854:1910  return computeAddress(salt, bytecodeHash, address(this)) */\n      swap1\n      pop\n        /* \"openzeppelin-contracts/utils/Create2.sol\":1752:1917  function computeAddress(bytes32 salt, bytes32 bytecodeHash) internal view returns (address) {... */\n      swap3\n      swap2\n      pop\n      pop\n      jump\t// out\n        /* \"openzeppelin-contracts/utils/Create2.sol\":1013:1548  function deploy(uint256 amount, bytes32 salt, bytes memory bytecode) internal returns (address) {... */\n    tag_28:\n        /* \"openzeppelin-contracts/utils/Create2.sol\":1100:1107  address */\n      0x00\n        /* \"openzeppelin-contracts/utils/Create2.sol\":1119:1131  address addr */\n      dup1\n        /* \"openzeppelin-contracts/utils/Create2.sol\":1174:1180  amount */\n      dup5\n        /* \"openzeppelin-contracts/utils/Create2.sol\":1149:1170  address(this).balance */\n      selfbalance\n        /* \"openzeppelin-contracts/utils/Create2.sol\":1149:1180  address(this).balance >= amount */\n      lt\n      iszero\n        /* \"openzeppelin-contracts/utils/Create2.sol\":1141:1214  require(address(this).balance >= amount, \"Create2: insufficient balance\") */\n      tag_45\n      jumpi\n      mload(0x40)\n      0x08c379a000000000000000000000000000000000000000000000000000000000\n      dup2\n      mstore\n      0x04\n      add\n      tag_46\n      swap1\n      tag_47\n      jump\t// in\n    tag_46:\n      mload(0x40)\n      dup1\n      swap2\n      sub\n      swap1\n      revert\n    tag_45:\n        /* \"openzeppelin-contracts/utils/Create2.sol\":1251:1252  0 */\n      0x00\n        /* \"openzeppelin-contracts/utils/Create2.sol\":1232:1240  bytecode */\n      dup4\n        /* \"openzeppelin-contracts/utils/Create2.sol\":1232:1247  bytecode.length */\n      mload\n        /* \"openzeppelin-contracts/utils/Create2.sol\":1232:1252  bytecode.length != 0 */\n      sub\n        /* \"openzeppelin-contracts/utils/Create2.sol\":1224:1289  require(bytecode.length != 0, \"Create2: bytecode length is zero\") */\n      tag_48\n      jumpi\n      mload(0x40)\n      0x08c379a000000000000000000000000000000000000000000000000000000000\n      dup2\n      mstore\n      0x04\n      add\n      tag_49\n      swap1\n      tag_50\n      jump\t// in\n    tag_49:\n      mload(0x40)\n      dup1\n      swap2\n      sub\n      swap1\n      revert\n    tag_48:\n        /* \"openzeppelin-contracts/utils/Create2.sol\":1440:1444  salt */\n      dup4\n        /* \"openzeppelin-contracts/utils/Create2.sol\":1429:1437  bytecode */\n      dup4\n        /* \"openzeppelin-contracts/utils/Create2.sol\":1423:1438  mload(bytecode) */\n      mload\n        /* \"openzeppelin-contracts/utils/Create2.sol\":1416:1420  0x20 */\n      0x20\n        /* \"openzeppelin-contracts/utils/Create2.sol\":1406:1414  bytecode */\n      dup6\n        /* \"openzeppelin-contracts/utils/Create2.sol\":1402:1421  add(bytecode, 0x20) */\n      add\n        /* \"openzeppelin-contracts/utils/Create2.sol\":1394:1400  amount */\n      dup8\n        /* \"openzeppelin-contracts/utils/Create2.sol\":1386:1445  create2(amount, add(bytecode, 0x20), mload(bytecode), salt) */\n      create2\n        /* \"openzeppelin-contracts/utils/Create2.sol\":1378:1445  addr := create2(amount, add(bytecode, 0x20), mload(bytecode), salt) */\n      swap1\n      pop\n        /* \"openzeppelin-contracts/utils/Create2.sol\":1488:1489  0 */\n      0x00\n        /* \"openzeppelin-contracts/utils/Create2.sol\":1472:1490  addr != address(0) */\n      0xffffffffffffffffffffffffffffffffffffffff\n      and\n        /* \"openzeppelin-contracts/utils/Create2.sol\":1472:1476  addr */\n      dup2\n        /* \"openzeppelin-contracts/utils/Create2.sol\":1472:1490  addr != address(0) */\n      0xffffffffffffffffffffffffffffffffffffffff\n      and\n      sub\n        /* \"openzeppelin-contracts/utils/Create2.sol\":1464:1520  require(addr != address(0), \"Create2: Failed on deploy\") */\n      tag_51\n      jumpi\n      mload(0x40)\n      0x08c379a000000000000000000000000000000000000000000000000000000000\n      dup2\n      mstore\n      0x04\n      add\n      tag_52\n      swap1\n      tag_53\n      jump\t// in\n    tag_52:\n      mload(0x40)\n      dup1\n      swap2\n      sub\n      swap1\n      revert\n    tag_51:\n        /* \"openzeppelin-contracts/utils/Create2.sol\":1537:1541  addr */\n      dup1\n        /* \"openzeppelin-contracts/utils/Create2.sol\":1530:1541  return addr */\n      swap2\n      pop\n      pop\n        /* \"openzeppelin-contracts/utils/Create2.sol\":1013:1548  function deploy(uint256 amount, bytes32 salt, bytes memory bytecode) internal returns (address) {... */\n      swap4\n      swap3\n      pop\n      pop\n      pop\n      jump\t// out\n        /* \"openzeppelin-contracts/utils/Create2.sol\":2160:2445  function computeAddress(bytes32 salt, bytes32 bytecodeHash, address deployer) internal pure returns (address) {... */\n    tag_43:\n        /* \"openzeppelin-contracts/utils/Create2.sol\":2261:2268  address */\n      0x00\n        /* \"openzeppelin-contracts/utils/Create2.sol\":2280:2293  bytes32 _data */\n      dup1\n        /* \"openzeppelin-contracts/utils/Create2.sol\":2343:2347  0xff */\n      0xff\n        /* \"openzeppelin-contracts/utils/Create2.sol\":2336:2348  bytes1(0xff) */\n      0xf8\n      shl\n        /* \"openzeppelin-contracts/utils/Create2.sol\":2350:2358  deployer */\n      dup4\n        /* \"openzeppelin-contracts/utils/Create2.sol\":2360:2364  salt */\n      dup7\n        /* \"openzeppelin-contracts/utils/Create2.sol\":2366:2378  bytecodeHash */\n      dup7\n        /* \"openzeppelin-contracts/utils/Create2.sol\":2319:2379  abi.encodePacked(bytes1(0xff), deployer, salt, bytecodeHash) */\n      add(0x20, mload(0x40))\n      tag_55\n      swap5\n      swap4\n      swap3\n      swap2\n      swap1\n      tag_56\n      jump\t// in\n    tag_55:\n      mload(0x40)\n      0x20\n      dup2\n      dup4\n      sub\n      sub\n      dup2\n      mstore\n      swap1\n      0x40\n      mstore\n        /* \"openzeppelin-contracts/utils/Create2.sol\":2296:2389  keccak256(... */\n      dup1\n      mload\n      swap1\n      0x20\n      add\n      keccak256\n        /* \"openzeppelin-contracts/utils/Create2.sol\":2280:2389  bytes32 _data = keccak256(... */\n      swap1\n      pop\n        /* \"openzeppelin-contracts/utils/Create2.sol\":2430:2435  _data */\n      dup1\n        /* \"openzeppelin-contracts/utils/Create2.sol\":2422:2436  uint256(_data) */\n      0x00\n      shr\n        /* \"openzeppelin-contracts/utils/Create2.sol\":2399:2438  return address(uint160(uint256(_data))) */\n      swap2\n      pop\n      pop\n        /* \"openzeppelin-contracts/utils/Create2.sol\":2160:2445  function computeAddress(bytes32 salt, bytes32 bytecodeHash, address deployer) internal pure returns (address) {... */\n      swap4\n      swap3\n      pop\n      pop\n      pop\n      jump\t// out\n        /* \"#utility.yul\":88:205   */\n    tag_58:\n        /* \"#utility.yul\":197:198   */\n      0x00\n        /* \"#utility.yul\":194:195   */\n      dup1\n        /* \"#utility.yul\":187:199   */\n      revert\n        /* \"#utility.yul\":211:328   */\n    tag_59:\n        /* \"#utility.yul\":320:321   */\n      0x00\n        /* \"#utility.yul\":317:318   */\n      dup1\n        /* \"#utility.yul\":310:322   */\n      revert\n        /* \"#utility.yul\":334:460   */\n    tag_60:\n        /* \"#utility.yul\":371:378   */\n      0x00\n        /* \"#utility.yul\":411:453   */\n      0xffffffffffffffffffffffffffffffffffffffff\n        /* \"#utility.yul\":404:409   */\n      dup3\n        /* \"#utility.yul\":400:454   */\n      and\n        /* \"#utility.yul\":389:454   */\n      swap1\n      pop\n        /* \"#utility.yul\":334:460   */\n      swap2\n      swap1\n      pop\n      jump\t// out\n        /* \"#utility.yul\":466:562   */\n    tag_61:\n        /* \"#utility.yul\":503:510   */\n      0x00\n        /* \"#utility.yul\":532:556   */\n      tag_107\n        /* \"#utility.yul\":550:555   */\n      dup3\n        /* \"#utility.yul\":532:556   */\n      tag_60\n      jump\t// in\n    tag_107:\n        /* \"#utility.yul\":521:556   */\n      swap1\n      pop\n        /* \"#utility.yul\":466:562   */\n      swap2\n      swap1\n      pop\n      jump\t// out\n        /* \"#utility.yul\":568:690   */\n    tag_62:\n        /* \"#utility.yul\":641:665   */\n      tag_109\n        /* \"#utility.yul\":659:664   */\n      dup2\n        /* \"#utility.yul\":641:665   */\n      tag_61\n      jump\t// in\n    tag_109:\n        /* \"#utility.yul\":634:639   */\n      dup2\n        /* \"#utility.yul\":631:666   */\n      eq\n        /* \"#utility.yul\":621:684   */\n      tag_110\n      jumpi\n        /* \"#utility.yul\":680:681   */\n      0x00\n        /* \"#utility.yul\":677:678   */\n      dup1\n        /* \"#utility.yul\":670:682   */\n      revert\n        /* \"#utility.yul\":621:684   */\n    tag_110:\n        /* \"#utility.yul\":568:690   */\n      pop\n      jump\t// out\n        /* \"#utility.yul\":696:835   */\n    tag_63:\n        /* \"#utility.yul\":742:747   */\n      0x00\n        /* \"#utility.yul\":780:786   */\n      dup2\n        /* \"#utility.yul\":767:787   */\n      calldataload\n        /* \"#utility.yul\":758:787   */\n      swap1\n      pop\n        /* \"#utility.yul\":796:829   */\n      tag_112\n        /* \"#utility.yul\":823:828   */\n      dup2\n        /* \"#utility.yul\":796:829   */\n      tag_62\n      jump\t// in\n    tag_112:\n        /* \"#utility.yul\":696:835   */\n      swap3\n      swap2\n      pop\n      pop\n      jump\t// out\n        /* \"#utility.yul\":841:918   */\n    tag_64:\n        /* \"#utility.yul\":878:885   */\n      0x00\n        /* \"#utility.yul\":907:912   */\n      dup2\n        /* \"#utility.yul\":896:912   */\n      swap1\n      pop\n        /* \"#utility.yul\":841:918   */\n      swap2\n      swap1\n      pop\n      jump\t// out\n        /* \"#utility.yul\":924:1046   */\n    tag_65:\n        /* \"#utility.yul\":997:1021   */\n      tag_115\n        /* \"#utility.yul\":1015:1020   */\n      dup2\n        /* \"#utility.yul\":997:1021   */\n      tag_64\n      jump\t// in\n    tag_115:\n        /* \"#utility.yul\":990:995   */\n      dup2\n        /* \"#utility.yul\":987:1022   */\n      eq\n        /* \"#utility.yul\":977:1040   */\n      tag_116\n      jumpi\n        /* \"#utility.yul\":1036:1037   */\n      0x00\n        /* \"#utility.yul\":1033:1034   */\n      dup1\n        /* \"#utility.yul\":1026:1038   */\n      revert\n        /* \"#utility.yul\":977:1040   */\n    tag_116:\n        /* \"#utility.yul\":924:1046   */\n      pop\n      jump\t// out\n        /* \"#utility.yul\":1052:1191   */\n    tag_66:\n        /* \"#utility.yul\":1098:1103   */\n      0x00\n        /* \"#utility.yul\":1136:1142   */\n      dup2\n        /* \"#utility.yul\":1123:1143   */\n      calldataload\n        /* \"#utility.yul\":1114:1143   */\n      swap1\n      pop\n        /* \"#utility.yul\":1152:1185   */\n      tag_118\n        /* \"#utility.yul\":1179:1184   */\n      dup2\n        /* \"#utility.yul\":1152:1185   */\n      tag_65\n      jump\t// in\n    tag_118:\n        /* \"#utility.yul\":1052:1191   */\n      swap3\n      swap2\n      pop\n      pop\n      jump\t// out\n        /* \"#utility.yul\":1197:2108   */\n    tag_7:\n        /* \"#utility.yul\":1292:1298   */\n      0x00\n        /* \"#utility.yul\":1300:1306   */\n      dup1\n        /* \"#utility.yul\":1308:1314   */\n      0x00\n        /* \"#utility.yul\":1316:1322   */\n      dup1\n        /* \"#utility.yul\":1324:1330   */\n      0x00\n        /* \"#utility.yul\":1373:1376   */\n      0xa0\n        /* \"#utility.yul\":1361:1370   */\n      dup7\n        /* \"#utility.yul\":1352:1359   */\n      dup9\n        /* \"#utility.yul\":1348:1371   */\n      sub\n        /* \"#utility.yul\":1344:1377   */\n      slt\n        /* \"#utility.yul\":1341:1461   */\n      iszero\n      tag_120\n      jumpi\n        /* \"#utility.yul\":1380:1459   */\n      tag_121\n      tag_58\n      jump\t// in\n    tag_121:\n        /* \"#utility.yul\":1341:1461   */\n    tag_120:\n        /* \"#utility.yul\":1500:1501   */\n      0x00\n        /* \"#utility.yul\":1525:1578   */\n      tag_122\n        /* \"#utility.yul\":1570:1577   */\n      dup9\n        /* \"#utility.yul\":1561:1567   */\n      dup3\n        /* \"#utility.yul\":1550:1559   */\n      dup10\n        /* \"#utility.yul\":1546:1568   */\n      add\n        /* \"#utility.yul\":1525:1578   */\n      tag_63\n      jump\t// in\n    tag_122:\n        /* \"#utility.yul\":1515:1578   */\n      swap6\n      pop\n        /* \"#utility.yul\":1471:1588   */\n      pop\n        /* \"#utility.yul\":1627:1629   */\n      0x20\n        /* \"#utility.yul\":1653:1706   */\n      tag_123\n        /* \"#utility.yul\":1698:1705   */\n      dup9\n        /* \"#utility.yul\":1689:1695   */\n      dup3\n        /* \"#utility.yul\":1678:1687   */\n      dup10\n        /* \"#utility.yul\":1674:1696   */\n      add\n        /* \"#utility.yul\":1653:1706   */\n      tag_66\n      jump\t// in\n    tag_123:\n        /* \"#utility.yul\":1643:1706   */\n      swap5\n      pop\n        /* \"#utility.yul\":1598:1716   */\n      pop\n        /* \"#utility.yul\":1755:1757   */\n      0x40\n        /* \"#utility.yul\":1781:1834   */\n      tag_124\n        /* \"#utility.yul\":1826:1833   */\n      dup9\n        /* \"#utility.yul\":1817:1823   */\n      dup3\n        /* \"#utility.yul\":1806:1815   */\n      dup10\n        /* \"#utility.yul\":1802:1824   */\n      add\n        /* \"#utility.yul\":1781:1834   */\n      tag_63\n      jump\t// in\n    tag_124:\n        /* \"#utility.yul\":1771:1834   */\n      swap4\n      pop\n        /* \"#utility.yul\":1726:1844   */\n      pop\n        /* \"#utility.yul\":1883:1885   */\n      0x60\n        /* \"#utility.yul\":1909:1962   */\n      tag_125\n        /* \"#utility.yul\":1954:1961   */\n      dup9\n        /* \"#utility.yul\":1945:1951   */\n      dup3\n        /* \"#utility.yul\":1934:1943   */\n      dup10\n        /* \"#utility.yul\":1930:1952   */\n      add\n        /* \"#utility.yul\":1909:1962   */\n      tag_66\n      jump\t// in\n    tag_125:\n        /* \"#utility.yul\":1899:1962   */\n      swap3\n      pop\n        /* \"#utility.yul\":1854:1972   */\n      pop\n        /* \"#utility.yul\":2011:2014   */\n      0x80\n        /* \"#utility.yul\":2038:2091   */\n      tag_126\n        /* \"#utility.yul\":2083:2090   */\n      dup9\n        /* \"#utility.yul\":2074:2080   */\n      dup3\n        /* \"#utility.yul\":2063:2072   */\n      dup10\n        /* \"#utility.yul\":2059:2081   */\n      add\n        /* \"#utility.yul\":2038:2091   */\n      tag_66\n      jump\t// in\n    tag_126:\n        /* \"#utility.yul\":2028:2091   */\n      swap2\n      pop\n        /* \"#utility.yul\":1982:2101   */\n      pop\n        /* \"#utility.yul\":1197:2108   */\n      swap3\n      swap6\n      pop\n      swap3\n      swap6\n      swap1\n      swap4\n      pop\n      jump\t// out\n        /* \"#utility.yul\":2114:2232   */\n    tag_67:\n        /* \"#utility.yul\":2201:2225   */\n      tag_128\n        /* \"#utility.yul\":2219:2224   */\n      dup2\n        /* \"#utility.yul\":2201:2225   */\n      tag_61\n      jump\t// in\n    tag_128:\n        /* \"#utility.yul\":2196:2199   */\n      dup3\n        /* \"#utility.yul\":2189:2226   */\n      mstore\n        /* \"#utility.yul\":2114:2232   */\n      pop\n      pop\n      jump\t// out\n        /* \"#utility.yul\":2238:2460   */\n    tag_10:\n        /* \"#utility.yul\":2331:2335   */\n      0x00\n        /* \"#utility.yul\":2369:2371   */\n      0x20\n        /* \"#utility.yul\":2358:2367   */\n      dup3\n        /* \"#utility.yul\":2354:2372   */\n      add\n        /* \"#utility.yul\":2346:2372   */\n      swap1\n      pop\n        /* \"#utility.yul\":2382:2453   */\n      tag_130\n        /* \"#utility.yul\":2450:2451   */\n      0x00\n        /* \"#utility.yul\":2439:2448   */\n      dup4\n        /* \"#utility.yul\":2435:2452   */\n      add\n        /* \"#utility.yul\":2426:2432   */\n      dup5\n        /* \"#utility.yul\":2382:2453   */\n      tag_67\n      jump\t// in\n    tag_130:\n        /* \"#utility.yul\":2238:2460   */\n      swap3\n      swap2\n      pop\n      pop\n      jump\t// out\n        /* \"#utility.yul\":2466:2583   */\n    tag_68:\n        /* \"#utility.yul\":2575:2576   */\n      0x00\n        /* \"#utility.yul\":2572:2573   */\n      dup1\n        /* \"#utility.yul\":2565:2577   */\n      revert\n        /* \"#utility.yul\":2589:2706   */\n    tag_69:\n        /* \"#utility.yul\":2698:2699   */\n      0x00\n        /* \"#utility.yul\":2695:2696   */\n      dup1\n        /* \"#utility.yul\":2688:2700   */\n      revert\n        /* \"#utility.yul\":2712:2829   */\n    tag_70:\n        /* \"#utility.yul\":2821:2822   */\n      0x00\n        /* \"#utility.yul\":2818:2819   */\n      dup1\n        /* \"#utility.yul\":2811:2823   */\n      revert\n        /* \"#utility.yul\":2848:3400   */\n    tag_71:\n        /* \"#utility.yul\":2905:2913   */\n      0x00\n        /* \"#utility.yul\":2915:2921   */\n      dup1\n        /* \"#utility.yul\":2965:2968   */\n      dup4\n        /* \"#utility.yul\":2958:2962   */\n      0x1f\n        /* \"#utility.yul\":2950:2956   */\n      dup5\n        /* \"#utility.yul\":2946:2963   */\n      add\n        /* \"#utility.yul\":2942:2969   */\n      slt\n        /* \"#utility.yul\":2932:3054   */\n      tag_135\n      jumpi\n        /* \"#utility.yul\":2973:3052   */\n      tag_136\n      tag_68\n      jump\t// in\n    tag_136:\n        /* \"#utility.yul\":2932:3054   */\n    tag_135:\n        /* \"#utility.yul\":3086:3092   */\n      dup3\n        /* \"#utility.yul\":3073:3093   */\n      calldataload\n        /* \"#utility.yul\":3063:3093   */\n      swap1\n      pop\n        /* \"#utility.yul\":3116:3134   */\n      0xffffffffffffffff\n        /* \"#utility.yul\":3108:3114   */\n      dup2\n        /* \"#utility.yul\":3105:3135   */\n      gt\n        /* \"#utility.yul\":3102:3219   */\n      iszero\n      tag_137\n      jumpi\n        /* \"#utility.yul\":3138:3217   */\n      tag_138\n      tag_69\n      jump\t// in\n    tag_138:\n        /* \"#utility.yul\":3102:3219   */\n    tag_137:\n        /* \"#utility.yul\":3252:3256   */\n      0x20\n        /* \"#utility.yul\":3244:3250   */\n      dup4\n        /* \"#utility.yul\":3240:3257   */\n      add\n        /* \"#utility.yul\":3228:3257   */\n      swap2\n      pop\n        /* \"#utility.yul\":3306:3309   */\n      dup4\n        /* \"#utility.yul\":3298:3302   */\n      0x01\n        /* \"#utility.yul\":3290:3296   */\n      dup3\n        /* \"#utility.yul\":3286:3303   */\n      mul\n        /* \"#utility.yul\":3276:3284   */\n      dup4\n        /* \"#utility.yul\":3272:3304   */\n      add\n        /* \"#utility.yul\":3269:3310   */\n      gt\n        /* \"#utility.yul\":3266:3394   */\n      iszero\n      tag_139\n      jumpi\n        /* \"#utility.yul\":3313:3392   */\n      tag_140\n      tag_70\n      jump\t// in\n    tag_140:\n        /* \"#utility.yul\":3266:3394   */\n    tag_139:\n        /* \"#utility.yul\":2848:3400   */\n      swap3\n      pop\n      swap3\n      swap1\n      pop\n      jump\t// out\n        /* \"#utility.yul\":3406:4661   */\n    tag_13:\n        /* \"#utility.yul\":3521:3527   */\n      0x00\n        /* \"#utility.yul\":3529:3535   */\n      dup1\n        /* \"#utility.yul\":3537:3543   */\n      0x00\n        /* \"#utility.yul\":3545:3551   */\n      dup1\n        /* \"#utility.yul\":3553:3559   */\n      0x00\n        /* \"#utility.yul\":3561:3567   */\n      dup1\n        /* \"#utility.yul\":3569:3575   */\n      0x00\n        /* \"#utility.yul\":3618:3621   */\n      0xc0\n        /* \"#utility.yul\":3606:3615   */\n      dup9\n        /* \"#utility.yul\":3597:3604   */\n      dup11\n        /* \"#utility.yul\":3593:3616   */\n      sub\n        /* \"#utility.yul\":3589:3622   */\n      slt\n        /* \"#utility.yul\":3586:3706   */\n      iszero\n      tag_142\n      jumpi\n        /* \"#utility.yul\":3625:3704   */\n      tag_143\n      tag_58\n      jump\t// in\n    tag_143:\n        /* \"#utility.yul\":3586:3706   */\n    tag_142:\n        /* \"#utility.yul\":3745:3746   */\n      0x00\n        /* \"#utility.yul\":3770:3823   */\n      tag_144\n        /* \"#utility.yul\":3815:3822   */\n      dup11\n        /* \"#utility.yul\":3806:3812   */\n      dup3\n        /* \"#utility.yul\":3795:3804   */\n      dup12\n        /* \"#utility.yul\":3791:3813   */\n      add\n        /* \"#utility.yul\":3770:3823   */\n      tag_63\n      jump\t// in\n    tag_144:\n        /* \"#utility.yul\":3760:3823   */\n      swap8\n      pop\n        /* \"#utility.yul\":3716:3833   */\n      pop\n        /* \"#utility.yul\":3872:3874   */\n      0x20\n        /* \"#utility.yul\":3898:3951   */\n      tag_145\n        /* \"#utility.yul\":3943:3950   */\n      dup11\n        /* \"#utility.yul\":3934:3940   */\n      dup3\n        /* \"#utility.yul\":3923:3932   */\n      dup12\n        /* \"#utility.yul\":3919:3941   */\n      add\n        /* \"#utility.yul\":3898:3951   */\n      tag_66\n      jump\t// in\n    tag_145:\n        /* \"#utility.yul\":3888:3951   */\n      swap7\n      pop\n        /* \"#utility.yul\":3843:3961   */\n      pop\n        /* \"#utility.yul\":4000:4002   */\n      0x40\n        /* \"#utility.yul\":4026:4079   */\n      tag_146\n        /* \"#utility.yul\":4071:4078   */\n      dup11\n        /* \"#utility.yul\":4062:4068   */\n      dup3\n        /* \"#utility.yul\":4051:4060   */\n      dup12\n        /* \"#utility.yul\":4047:4069   */\n      add\n        /* \"#utility.yul\":4026:4079   */\n      tag_63\n      jump\t// in\n    tag_146:\n        /* \"#utility.yul\":4016:4079   */\n      swap6\n      pop\n        /* \"#utility.yul\":3971:4089   */\n      pop\n        /* \"#utility.yul\":4128:4130   */\n      0x60\n        /* \"#utility.yul\":4154:4207   */\n      tag_147\n        /* \"#utility.yul\":4199:4206   */\n      dup11\n        /* \"#utility.yul\":4190:4196   */\n      dup3\n        /* \"#utility.yul\":4179:4188   */\n      dup12\n        /* \"#utility.yul\":4175:4197   */\n      add\n        /* \"#utility.yul\":4154:4207   */\n      tag_66\n      jump\t// in\n    tag_147:\n        /* \"#utility.yul\":4144:4207   */\n      swap5\n      pop\n        /* \"#utility.yul\":4099:4217   */\n      pop\n        /* \"#utility.yul\":4256:4259   */\n      0x80\n        /* \"#utility.yul\":4283:4336   */\n      tag_148\n        /* \"#utility.yul\":4328:4335   */\n      dup11\n        /* \"#utility.yul\":4319:4325   */\n      dup3\n        /* \"#utility.yul\":4308:4317   */\n      dup12\n        /* \"#utility.yul\":4304:4326   */\n      add\n        /* \"#utility.yul\":4283:4336   */\n      tag_66\n      jump\t// in\n    tag_148:\n        /* \"#utility.yul\":4273:4336   */\n      swap4\n      pop\n        /* \"#utility.yul\":4227:4346   */\n      pop\n        /* \"#utility.yul\":4413:4416   */\n      0xa0\n        /* \"#utility.yul\":4402:4411   */\n      dup9\n        /* \"#utility.yul\":4398:4417   */\n      add\n        /* \"#utility.yul\":4385:4418   */\n      calldataload\n        /* \"#utility.yul\":4445:4463   */\n      0xffffffffffffffff\n        /* \"#utility.yul\":4437:4443   */\n      dup2\n        /* \"#utility.yul\":4434:4464   */\n      gt\n        /* \"#utility.yul\":4431:4548   */\n      iszero\n      tag_149\n      jumpi\n        /* \"#utility.yul\":4467:4546   */\n      tag_150\n      tag_59\n      jump\t// in\n    tag_150:\n        /* \"#utility.yul\":4431:4548   */\n    tag_149:\n        /* \"#utility.yul\":4580:4644   */\n      tag_151\n        /* \"#utility.yul\":4636:4643   */\n      dup11\n        /* \"#utility.yul\":4627:4633   */\n      dup3\n        /* \"#utility.yul\":4616:4625   */\n      dup12\n        /* \"#utility.yul\":4612:4634   */\n      add\n        /* \"#utility.yul\":4580:4644   */\n      tag_71\n      jump\t// in\n    tag_151:\n        /* \"#utility.yul\":4562:4644   */\n      swap3\n      pop\n      swap3\n      pop\n        /* \"#utility.yul\":4356:4654   */\n      pop\n        /* \"#utility.yul\":3406:4661   */\n      swap3\n      swap6\n      swap9\n      swap2\n      swap5\n      swap8\n      pop\n      swap3\n      swap6\n      pop\n      jump\t// out\n        /* \"#utility.yul\":4667:4785   */\n    tag_72:\n        /* \"#utility.yul\":4754:4778   */\n      tag_153\n        /* \"#utility.yul\":4772:4777   */\n      dup2\n        /* \"#utility.yul\":4754:4778   */\n      tag_64\n      jump\t// in\n    tag_153:\n        /* \"#utility.yul\":4749:4752   */\n      dup3\n        /* \"#utility.yul\":4742:4779   */\n      mstore\n        /* \"#utility.yul\":4667:4785   */\n      pop\n      pop\n      jump\t// out\n        /* \"#utility.yul\":4791:5566   */\n    tag_26:\n        /* \"#utility.yul\":5024:5028   */\n      0x00\n        /* \"#utility.yul\":5062:5065   */\n      0xc0\n        /* \"#utility.yul\":5051:5060   */\n      dup3\n        /* \"#utility.yul\":5047:5066   */\n      add\n        /* \"#utility.yul\":5039:5066   */\n      swap1\n      pop\n        /* \"#utility.yul\":5076:5147   */\n      tag_155\n        /* \"#utility.yul\":5144:5145   */\n      0x00\n        /* \"#utility.yul\":5133:5142   */\n      dup4\n        /* \"#utility.yul\":5129:5146   */\n      add\n        /* \"#utility.yul\":5120:5126   */\n      dup10\n        /* \"#utility.yul\":5076:5147   */\n      tag_67\n      jump\t// in\n    tag_155:\n        /* \"#utility.yul\":5157:5229   */\n      tag_156\n        /* \"#utility.yul\":5225:5227   */\n      0x20\n        /* \"#utility.yul\":5214:5223   */\n      dup4\n        /* \"#utility.yul\":5210:5228   */\n      add\n        /* \"#utility.yul\":5201:5207   */\n      dup9\n        /* \"#utility.yul\":5157:5229   */\n      tag_67\n      jump\t// in\n    tag_156:\n        /* \"#utility.yul\":5239:5311   */\n      tag_157\n        /* \"#utility.yul\":5307:5309   */\n      0x40\n        /* \"#utility.yul\":5296:5305   */\n      dup4\n        /* \"#utility.yul\":5292:5310   */\n      add\n        /* \"#utility.yul\":5283:5289   */\n      dup8\n        /* \"#utility.yul\":5239:5311   */\n      tag_72\n      jump\t// in\n    tag_157:\n        /* \"#utility.yul\":5321:5393   */\n      tag_158\n        /* \"#utility.yul\":5389:5391   */\n      0x60\n        /* \"#utility.yul\":5378:5387   */\n      dup4\n        /* \"#utility.yul\":5374:5392   */\n      add\n        /* \"#utility.yul\":5365:5371   */\n      dup7\n        /* \"#utility.yul\":5321:5393   */\n      tag_67\n      jump\t// in\n    tag_158:\n        /* \"#utility.yul\":5403:5476   */\n      tag_159\n        /* \"#utility.yul\":5471:5474   */\n      0x80\n        /* \"#utility.yul\":5460:5469   */\n      dup4\n        /* \"#utility.yul\":5456:5475   */\n      add\n        /* \"#utility.yul\":5447:5453   */\n      dup6\n        /* \"#utility.yul\":5403:5476   */\n      tag_72\n      jump\t// in\n    tag_159:\n        /* \"#utility.yul\":5486:5559   */\n      tag_160\n        /* \"#utility.yul\":5554:5557   */\n      0xa0\n        /* \"#utility.yul\":5543:5552   */\n      dup4\n        /* \"#utility.yul\":5539:5558   */\n      add\n        /* \"#utility.yul\":5530:5536   */\n      dup5\n        /* \"#utility.yul\":5486:5559   */\n      tag_72\n      jump\t// in\n    tag_160:\n        /* \"#utility.yul\":4791:5566   */\n      swap8\n      swap7\n      pop\n      pop\n      pop\n      pop\n      pop\n      pop\n      pop\n      jump\t// out\n        /* \"#utility.yul\":5572:5719   */\n    tag_73:\n        /* \"#utility.yul\":5673:5684   */\n      0x00\n        /* \"#utility.yul\":5710:5713   */\n      dup2\n        /* \"#utility.yul\":5695:5713   */\n      swap1\n      pop\n        /* \"#utility.yul\":5572:5719   */\n      swap3\n      swap2\n      pop\n      pop\n      jump\t// out\n        /* \"#utility.yul\":5725:5871   */\n    tag_74:\n        /* \"#utility.yul\":5822:5828   */\n      dup3\n        /* \"#utility.yul\":5817:5820   */\n      dup2\n        /* \"#utility.yul\":5812:5815   */\n      dup4\n        /* \"#utility.yul\":5799:5829   */\n      calldatacopy\n        /* \"#utility.yul\":5863:5864   */\n      0x00\n        /* \"#utility.yul\":5854:5860   */\n      dup4\n        /* \"#utility.yul\":5849:5852   */\n      dup4\n        /* \"#utility.yul\":5845:5861   */\n      add\n        /* \"#utility.yul\":5838:5865   */\n      mstore\n        /* \"#utility.yul\":5725:5871   */\n      pop\n      pop\n      pop\n      jump\t// out\n        /* \"#utility.yul\":5899:6226   */\n    tag_75:\n        /* \"#utility.yul\":6013:6016   */\n      0x00\n        /* \"#utility.yul\":6034:6122   */\n      tag_164\n        /* \"#utility.yul\":6115:6121   */\n      dup4\n        /* \"#utility.yul\":6110:6113   */\n      dup6\n        /* \"#utility.yul\":6034:6122   */\n      tag_73\n      jump\t// in\n    tag_164:\n        /* \"#utility.yul\":6027:6122   */\n      swap4\n      pop\n        /* \"#utility.yul\":6132:6188   */\n      tag_165\n        /* \"#utility.yul\":6181:6187   */\n      dup4\n        /* \"#utility.yul\":6176:6179   */\n      dup6\n        /* \"#utility.yul\":6169:6174   */\n      dup5\n        /* \"#utility.yul\":6132:6188   */\n      tag_74\n      jump\t// in\n    tag_165:\n        /* \"#utility.yul\":6213:6219   */\n      dup3\n        /* \"#utility.yul\":6208:6211   */\n      dup5\n        /* \"#utility.yul\":6204:6220   */\n      add\n        /* \"#utility.yul\":6197:6220   */\n      swap1\n      pop\n        /* \"#utility.yul\":5899:6226   */\n      swap4\n      swap3\n      pop\n      pop\n      pop\n      jump\t// out\n        /* \"#utility.yul\":6232:6523   */\n    tag_31:\n        /* \"#utility.yul\":6372:6375   */\n      0x00\n        /* \"#utility.yul\":6394:6497   */\n      tag_167\n        /* \"#utility.yul\":6493:6496   */\n      dup3\n        /* \"#utility.yul\":6484:6490   */\n      dup5\n        /* \"#utility.yul\":6476:6482   */\n      dup7\n        /* \"#utility.yul\":6394:6497   */\n      tag_75\n      jump\t// in\n    tag_167:\n        /* \"#utility.yul\":6387:6497   */\n      swap2\n      pop\n        /* \"#utility.yul\":6514:6517   */\n      dup2\n        /* \"#utility.yul\":6507:6517   */\n      swap1\n      pop\n        /* \"#utility.yul\":6232:6523   */\n      swap4\n      swap3\n      pop\n      pop\n      pop\n      jump\t// out\n        /* \"#utility.yul\":6529:7082   */\n    tag_38:\n        /* \"#utility.yul\":6706:6710   */\n      0x00\n        /* \"#utility.yul\":6744:6747   */\n      0x80\n        /* \"#utility.yul\":6733:6742   */\n      dup3\n        /* \"#utility.yul\":6729:6748   */\n      add\n        /* \"#utility.yul\":6721:6748   */\n      swap1\n      pop\n        /* \"#utility.yul\":6758:6829   */\n      tag_169\n        /* \"#utility.yul\":6826:6827   */\n      0x00\n        /* \"#utility.yul\":6815:6824   */\n      dup4\n        /* \"#utility.yul\":6811:6828   */\n      add\n        /* \"#utility.yul\":6802:6808   */\n      dup8\n        /* \"#utility.yul\":6758:6829   */\n      tag_72\n      jump\t// in\n    tag_169:\n        /* \"#utility.yul\":6839:6911   */\n      tag_170\n        /* \"#utility.yul\":6907:6909   */\n      0x20\n        /* \"#utility.yul\":6896:6905   */\n      dup4\n        /* \"#utility.yul\":6892:6910   */\n      add\n        /* \"#utility.yul\":6883:6889   */\n      dup7\n        /* \"#utility.yul\":6839:6911   */\n      tag_72\n      jump\t// in\n    tag_170:\n        /* \"#utility.yul\":6921:6993   */\n      tag_171\n        /* \"#utility.yul\":6989:6991   */\n      0x40\n        /* \"#utility.yul\":6978:6987   */\n      dup4\n        /* \"#utility.yul\":6974:6992   */\n      add\n        /* \"#utility.yul\":6965:6971   */\n      dup6\n        /* \"#utility.yul\":6921:6993   */\n      tag_67\n      jump\t// in\n    tag_171:\n        /* \"#utility.yul\":7003:7075   */\n      tag_172\n        /* \"#utility.yul\":7071:7073   */\n      0x60\n        /* \"#utility.yul\":7060:7069   */\n      dup4\n        /* \"#utility.yul\":7056:7074   */\n      add\n        /* \"#utility.yul\":7047:7053   */\n      dup5\n        /* \"#utility.yul\":7003:7075   */\n      tag_72\n      jump\t// in\n    tag_172:\n        /* \"#utility.yul\":6529:7082   */\n      swap6\n      swap5\n      pop\n      pop\n      pop\n      pop\n      pop\n      jump\t// out\n        /* \"#utility.yul\":7088:7236   */\n    tag_76:\n        /* \"#utility.yul\":7190:7201   */\n      0x00\n        /* \"#utility.yul\":7227:7230   */\n      dup2\n        /* \"#utility.yul\":7212:7230   */\n      swap1\n      pop\n        /* \"#utility.yul\":7088:7236   */\n      swap3\n      swap2\n      pop\n      pop\n      jump\t// out\n        /* \"#utility.yul\":7242:7456   */\n    tag_77:\n        /* \"#utility.yul\":7382:7448   */\n      0x3d60ad80600a3d3981f3363d3d373d3d3d363d73000000000000000000000000\n        /* \"#utility.yul\":7378:7379   */\n      0x00\n        /* \"#utility.yul\":7370:7376   */\n      dup3\n        /* \"#utility.yul\":7366:7380   */\n      add\n        /* \"#utility.yul\":7359:7449   */\n      mstore\n        /* \"#utility.yul\":7242:7456   */\n      pop\n      jump\t// out\n        /* \"#utility.yul\":7462:7864   */\n    tag_78:\n        /* \"#utility.yul\":7622:7625   */\n      0x00\n        /* \"#utility.yul\":7643:7728   */\n      tag_176\n        /* \"#utility.yul\":7725:7727   */\n      0x14\n        /* \"#utility.yul\":7720:7723   */\n      dup4\n        /* \"#utility.yul\":7643:7728   */\n      tag_76\n      jump\t// in\n    tag_176:\n        /* \"#utility.yul\":7636:7728   */\n      swap2\n      pop\n        /* \"#utility.yul\":7737:7830   */\n      tag_177\n        /* \"#utility.yul\":7826:7829   */\n      dup3\n        /* \"#utility.yul\":7737:7830   */\n      tag_77\n      jump\t// in\n    tag_177:\n        /* \"#utility.yul\":7855:7857   */\n      0x14\n        /* \"#utility.yul\":7850:7853   */\n      dup3\n        /* \"#utility.yul\":7846:7858   */\n      add\n        /* \"#utility.yul\":7839:7858   */\n      swap1\n      pop\n        /* \"#utility.yul\":7462:7864   */\n      swap2\n      swap1\n      pop\n      jump\t// out\n        /* \"#utility.yul\":7870:7964   */\n    tag_79:\n        /* \"#utility.yul\":7903:7911   */\n      0x00\n        /* \"#utility.yul\":7951:7956   */\n      dup2\n        /* \"#utility.yul\":7947:7949   */\n      0x60\n        /* \"#utility.yul\":7943:7957   */\n      shl\n        /* \"#utility.yul\":7922:7957   */\n      swap1\n      pop\n        /* \"#utility.yul\":7870:7964   */\n      swap2\n      swap1\n      pop\n      jump\t// out\n        /* \"#utility.yul\":7970:8064   */\n    tag_80:\n        /* \"#utility.yul\":8009:8016   */\n      0x00\n        /* \"#utility.yul\":8038:8058   */\n      tag_180\n        /* \"#utility.yul\":8052:8057   */\n      dup3\n        /* \"#utility.yul\":8038:8058   */\n      tag_79\n      jump\t// in\n    tag_180:\n        /* \"#utility.yul\":8027:8058   */\n      swap1\n      pop\n        /* \"#utility.yul\":7970:8064   */\n      swap2\n      swap1\n      pop\n      jump\t// out\n        /* \"#utility.yul\":8070:8170   */\n    tag_81:\n        /* \"#utility.yul\":8109:8116   */\n      0x00\n        /* \"#utility.yul\":8138:8164   */\n      tag_182\n        /* \"#utility.yul\":8158:8163   */\n      dup3\n        /* \"#utility.yul\":8138:8164   */\n      tag_80\n      jump\t// in\n    tag_182:\n        /* \"#utility.yul\":8127:8164   */\n      swap1\n      pop\n        /* \"#utility.yul\":8070:8170   */\n      swap2\n      swap1\n      pop\n      jump\t// out\n        /* \"#utility.yul\":8176:8333   */\n    tag_82:\n        /* \"#utility.yul\":8281:8326   */\n      tag_184\n        /* \"#utility.yul\":8301:8325   */\n      tag_185\n        /* \"#utility.yul\":8319:8324   */\n      dup3\n        /* \"#utility.yul\":8301:8325   */\n      tag_61\n      jump\t// in\n    tag_185:\n        /* \"#utility.yul\":8281:8326   */\n      tag_81\n      jump\t// in\n    tag_184:\n        /* \"#utility.yul\":8276:8279   */\n      dup3\n        /* \"#utility.yul\":8269:8327   */\n      mstore\n        /* \"#utility.yul\":8176:8333   */\n      pop\n      pop\n      jump\t// out\n        /* \"#utility.yul\":8339:8553   */\n    tag_83:\n        /* \"#utility.yul\":8479:8545   */\n      0x5af43d82803e903d91602b57fd5bf30000000000000000000000000000000000\n        /* \"#utility.yul\":8475:8476   */\n      0x00\n        /* \"#utility.yul\":8467:8473   */\n      dup3\n        /* \"#utility.yul\":8463:8477   */\n      add\n        /* \"#utility.yul\":8456:8546   */\n      mstore\n        /* \"#utility.yul\":8339:8553   */\n      pop\n      jump\t// out\n        /* \"#utility.yul\":8559:8961   */\n    tag_84:\n        /* \"#utility.yul\":8719:8722   */\n      0x00\n        /* \"#utility.yul\":8740:8825   */\n      tag_188\n        /* \"#utility.yul\":8822:8824   */\n      0x0f\n        /* \"#utility.yul\":8817:8820   */\n      dup4\n        /* \"#utility.yul\":8740:8825   */\n      tag_76\n      jump\t// in\n    tag_188:\n        /* \"#utility.yul\":8733:8825   */\n      swap2\n      pop\n        /* \"#utility.yul\":8834:8927   */\n      tag_189\n        /* \"#utility.yul\":8923:8926   */\n      dup3\n        /* \"#utility.yul\":8834:8927   */\n      tag_83\n      jump\t// in\n    tag_189:\n        /* \"#utility.yul\":8952:8954   */\n      0x0f\n        /* \"#utility.yul\":8947:8950   */\n      dup3\n        /* \"#utility.yul\":8943:8955   */\n      add\n        /* \"#utility.yul\":8936:8955   */\n      swap1\n      pop\n        /* \"#utility.yul\":8559:8961   */\n      swap2\n      swap1\n      pop\n      jump\t// out\n        /* \"#utility.yul\":8967:9065   */\n    tag_85:\n        /* \"#utility.yul\":9018:9024   */\n      0x00\n        /* \"#utility.yul\":9052:9057   */\n      dup2\n        /* \"#utility.yul\":9046:9058   */\n      mload\n        /* \"#utility.yul\":9036:9058   */\n      swap1\n      pop\n        /* \"#utility.yul\":8967:9065   */\n      swap2\n      swap1\n      pop\n      jump\t// out\n        /* \"#utility.yul\":9071:9317   */\n    tag_86:\n        /* \"#utility.yul\":9152:9153   */\n      0x00\n        /* \"#utility.yul\":9162:9275   */\n    tag_192:\n        /* \"#utility.yul\":9176:9182   */\n      dup4\n        /* \"#utility.yul\":9173:9174   */\n      dup2\n        /* \"#utility.yul\":9170:9183   */\n      lt\n        /* \"#utility.yul\":9162:9275   */\n      iszero\n      tag_194\n      jumpi\n        /* \"#utility.yul\":9261:9262   */\n      dup1\n        /* \"#utility.yul\":9256:9259   */\n      dup3\n        /* \"#utility.yul\":9252:9263   */\n      add\n        /* \"#utility.yul\":9246:9264   */\n      mload\n        /* \"#utility.yul\":9242:9243   */\n      dup2\n        /* \"#utility.yul\":9237:9240   */\n      dup5\n        /* \"#utility.yul\":9233:9244   */\n      add\n        /* \"#utility.yul\":9226:9265   */\n      mstore\n        /* \"#utility.yul\":9198:9200   */\n      0x20\n        /* \"#utility.yul\":9195:9196   */\n      dup2\n        /* \"#utility.yul\":9191:9201   */\n      add\n        /* \"#utility.yul\":9186:9201   */\n      swap1\n      pop\n        /* \"#utility.yul\":9162:9275   */\n      jump(tag_192)\n    tag_194:\n        /* \"#utility.yul\":9309:9310   */\n      0x00\n        /* \"#utility.yul\":9300:9306   */\n      dup5\n        /* \"#utility.yul\":9295:9298   */\n      dup5\n        /* \"#utility.yul\":9291:9307   */\n      add\n        /* \"#utility.yul\":9284:9311   */\n      mstore\n        /* \"#utility.yul\":9133:9317   */\n      pop\n        /* \"#utility.yul\":9071:9317   */\n      pop\n      pop\n      pop\n      jump\t// out\n        /* \"#utility.yul\":9323:9709   */\n    tag_87:\n        /* \"#utility.yul\":9427:9430   */\n      0x00\n        /* \"#utility.yul\":9455:9493   */\n      tag_196\n        /* \"#utility.yul\":9487:9492   */\n      dup3\n        /* \"#utility.yul\":9455:9493   */\n      tag_85\n      jump\t// in\n    tag_196:\n        /* \"#utility.yul\":9509:9597   */\n      tag_197\n        /* \"#utility.yul\":9590:9596   */\n      dup2\n        /* \"#utility.yul\":9585:9588   */\n      dup6\n        /* \"#utility.yul\":9509:9597   */\n      tag_73\n      jump\t// in\n    tag_197:\n        /* \"#utility.yul\":9502:9597   */\n      swap4\n      pop\n        /* \"#utility.yul\":9606:9671   */\n      tag_198\n        /* \"#utility.yul\":9664:9670   */\n      dup2\n        /* \"#utility.yul\":9659:9662   */\n      dup6\n        /* \"#utility.yul\":9652:9656   */\n      0x20\n        /* \"#utility.yul\":9645:9650   */\n      dup7\n        /* \"#utility.yul\":9641:9657   */\n      add\n        /* \"#utility.yul\":9606:9671   */\n      tag_86\n      jump\t// in\n    tag_198:\n        /* \"#utility.yul\":9696:9702   */\n      dup1\n        /* \"#utility.yul\":9691:9694   */\n      dup5\n        /* \"#utility.yul\":9687:9703   */\n      add\n        /* \"#utility.yul\":9680:9703   */\n      swap2\n      pop\n        /* \"#utility.yul\":9431:9709   */\n      pop\n        /* \"#utility.yul\":9323:9709   */\n      swap3\n      swap2\n      pop\n      pop\n      jump\t// out\n        /* \"#utility.yul\":9715:10659   */\n    tag_40:\n        /* \"#utility.yul\":10075:10078   */\n      0x00\n        /* \"#utility.yul\":10097:10245   */\n      tag_200\n        /* \"#utility.yul\":10241:10244   */\n      dup3\n        /* \"#utility.yul\":10097:10245   */\n      tag_78\n      jump\t// in\n    tag_200:\n        /* \"#utility.yul\":10090:10245   */\n      swap2\n      pop\n        /* \"#utility.yul\":10255:10330   */\n      tag_201\n        /* \"#utility.yul\":10326:10329   */\n      dup3\n        /* \"#utility.yul\":10317:10323   */\n      dup6\n        /* \"#utility.yul\":10255:10330   */\n      tag_82\n      jump\t// in\n    tag_201:\n        /* \"#utility.yul\":10355:10357   */\n      0x14\n        /* \"#utility.yul\":10350:10353   */\n      dup3\n        /* \"#utility.yul\":10346:10358   */\n      add\n        /* \"#utility.yul\":10339:10358   */\n      swap2\n      pop\n        /* \"#utility.yul\":10375:10523   */\n      tag_202\n        /* \"#utility.yul\":10519:10522   */\n      dup3\n        /* \"#utility.yul\":10375:10523   */\n      tag_84\n      jump\t// in\n    tag_202:\n        /* \"#utility.yul\":10368:10523   */\n      swap2\n      pop\n        /* \"#utility.yul\":10540:10633   */\n      tag_203\n        /* \"#utility.yul\":10629:10632   */\n      dup3\n        /* \"#utility.yul\":10620:10626   */\n      dup5\n        /* \"#utility.yul\":10540:10633   */\n      tag_87\n      jump\t// in\n    tag_203:\n        /* \"#utility.yul\":10533:10633   */\n      swap2\n      pop\n        /* \"#utility.yul\":10650:10653   */\n      dup2\n        /* \"#utility.yul\":10643:10653   */\n      swap1\n      pop\n        /* \"#utility.yul\":9715:10659   */\n      swap4\n      swap3\n      pop\n      pop\n      pop\n      jump\t// out\n        /* \"#utility.yul\":10665:10834   */\n    tag_88:\n        /* \"#utility.yul\":10749:10760   */\n      0x00\n        /* \"#utility.yul\":10783:10789   */\n      dup3\n        /* \"#utility.yul\":10778:10781   */\n      dup3\n        /* \"#utility.yul\":10771:10790   */\n      mstore\n        /* \"#utility.yul\":10823:10827   */\n      0x20\n        /* \"#utility.yul\":10818:10821   */\n      dup3\n        /* \"#utility.yul\":10814:10828   */\n      add\n        /* \"#utility.yul\":10799:10828   */\n      swap1\n      pop\n        /* \"#utility.yul\":10665:10834   */\n      swap3\n      swap2\n      pop\n      pop\n      jump\t// out\n        /* \"#utility.yul\":10840:11019   */\n    tag_89:\n        /* \"#utility.yul\":10980:11011   */\n      0x437265617465323a20696e73756666696369656e742062616c616e6365000000\n        /* \"#utility.yul\":10976:10977   */\n      0x00\n        /* \"#utility.yul\":10968:10974   */\n      dup3\n        /* \"#utility.yul\":10964:10978   */\n      add\n        /* \"#utility.yul\":10957:11012   */\n      mstore\n        /* \"#utility.yul\":10840:11019   */\n      pop\n      jump\t// out\n        /* \"#utility.yul\":11025:11391   */\n    tag_90:\n        /* \"#utility.yul\":11167:11170   */\n      0x00\n        /* \"#utility.yul\":11188:11255   */\n      tag_207\n        /* \"#utility.yul\":11252:11254   */\n      0x1d\n        /* \"#utility.yul\":11247:11250   */\n      dup4\n        /* \"#utility.yul\":11188:11255   */\n      tag_88\n      jump\t// in\n    tag_207:\n        /* \"#utility.yul\":11181:11255   */\n      swap2\n      pop\n        /* \"#utility.yul\":11264:11357   */\n      tag_208\n        /* \"#utility.yul\":11353:11356   */\n      dup3\n        /* \"#utility.yul\":11264:11357   */\n      tag_89\n      jump\t// in\n    tag_208:\n        /* \"#utility.yul\":11382:11384   */\n      0x20\n        /* \"#utility.yul\":11377:11380   */\n      dup3\n        /* \"#utility.yul\":11373:11385   */\n      add\n        /* \"#utility.yul\":11366:11385   */\n      swap1\n      pop\n        /* \"#utility.yul\":11025:11391   */\n      swap2\n      swap1\n      pop\n      jump\t// out\n        /* \"#utility.yul\":11397:11816   */\n    tag_47:\n        /* \"#utility.yul\":11563:11567   */\n      0x00\n        /* \"#utility.yul\":11601:11603   */\n      0x20\n        /* \"#utility.yul\":11590:11599   */\n      dup3\n        /* \"#utility.yul\":11586:11604   */\n      add\n        /* \"#utility.yul\":11578:11604   */\n      swap1\n      pop\n        /* \"#utility.yul\":11650:11659   */\n      dup2\n        /* \"#utility.yul\":11644:11648   */\n      dup2\n        /* \"#utility.yul\":11640:11660   */\n      sub\n        /* \"#utility.yul\":11636:11637   */\n      0x00\n        /* \"#utility.yul\":11625:11634   */\n      dup4\n        /* \"#utility.yul\":11621:11638   */\n      add\n        /* \"#utility.yul\":11614:11661   */\n      mstore\n        /* \"#utility.yul\":11678:11809   */\n      tag_210\n        /* \"#utility.yul\":11804:11808   */\n      dup2\n        /* \"#utility.yul\":11678:11809   */\n      tag_90\n      jump\t// in\n    tag_210:\n        /* \"#utility.yul\":11670:11809   */\n      swap1\n      pop\n        /* \"#utility.yul\":11397:11816   */\n      swap2\n      swap1\n      pop\n      jump\t// out\n        /* \"#utility.yul\":11822:12004   */\n    tag_91:\n        /* \"#utility.yul\":11962:11996   */\n      0x437265617465323a2062797465636f6465206c656e677468206973207a65726f\n        /* \"#utility.yul\":11958:11959   */\n      0x00\n        /* \"#utility.yul\":11950:11956   */\n      dup3\n        /* \"#utility.yul\":11946:11960   */\n      add\n        /* \"#utility.yul\":11939:11997   */\n      mstore\n        /* \"#utility.yul\":11822:12004   */\n      pop\n      jump\t// out\n        /* \"#utility.yul\":12010:12376   */\n    tag_92:\n        /* \"#utility.yul\":12152:12155   */\n      0x00\n        /* \"#utility.yul\":12173:12240   */\n      tag_213\n        /* \"#utility.yul\":12237:12239   */\n      0x20\n        /* \"#utility.yul\":12232:12235   */\n      dup4\n        /* \"#utility.yul\":12173:12240   */\n      tag_88\n      jump\t// in\n    tag_213:\n        /* \"#utility.yul\":12166:12240   */\n      swap2\n      pop\n        /* \"#utility.yul\":12249:12342   */\n      tag_214\n        /* \"#utility.yul\":12338:12341   */\n      dup3\n        /* \"#utility.yul\":12249:12342   */\n      tag_91\n      jump\t// in\n    tag_214:\n        /* \"#utility.yul\":12367:12369   */\n      0x20\n        /* \"#utility.yul\":12362:12365   */\n      dup3\n        /* \"#utility.yul\":12358:12370   */\n      add\n        /* \"#utility.yul\":12351:12370   */\n      swap1\n      pop\n        /* \"#utility.yul\":12010:12376   */\n      swap2\n      swap1\n      pop\n      jump\t// out\n        /* \"#utility.yul\":12382:12801   */\n    tag_50:\n        /* \"#utility.yul\":12548:12552   */\n      0x00\n        /* \"#utility.yul\":12586:12588   */\n      0x20\n        /* \"#utility.yul\":12575:12584   */\n      dup3\n        /* \"#utility.yul\":12571:12589   */\n      add\n        /* \"#utility.yul\":12563:12589   */\n      swap1\n      pop\n        /* \"#utility.yul\":12635:12644   */\n      dup2\n        /* \"#utility.yul\":12629:12633   */\n      dup2\n        /* \"#utility.yul\":12625:12645   */\n      sub\n        /* \"#utility.yul\":12621:12622   */\n      0x00\n        /* \"#utility.yul\":12610:12619   */\n      dup4\n        /* \"#utility.yul\":12606:12623   */\n      add\n        /* \"#utility.yul\":12599:12646   */\n      mstore\n        /* \"#utility.yul\":12663:12794   */\n      tag_216\n        /* \"#utility.yul\":12789:12793   */\n      dup2\n        /* \"#utility.yul\":12663:12794   */\n      tag_92\n      jump\t// in\n    tag_216:\n        /* \"#utility.yul\":12655:12794   */\n      swap1\n      pop\n        /* \"#utility.yul\":12382:12801   */\n      swap2\n      swap1\n      pop\n      jump\t// out\n        /* \"#utility.yul\":12807:12982   */\n    tag_93:\n        /* \"#utility.yul\":12947:12974   */\n      0x437265617465323a204661696c6564206f6e206465706c6f7900000000000000\n        /* \"#utility.yul\":12943:12944   */\n      0x00\n        /* \"#utility.yul\":12935:12941   */\n      dup3\n        /* \"#utility.yul\":12931:12945   */\n      add\n        /* \"#utility.yul\":12924:12975   */\n      mstore\n        /* \"#utility.yul\":12807:12982   */\n      pop\n      jump\t// out\n        /* \"#utility.yul\":12988:13354   */\n    tag_94:\n        /* \"#utility.yul\":13130:13133   */\n      0x00\n        /* \"#utility.yul\":13151:13218   */\n      tag_219\n        /* \"#utility.yul\":13215:13217   */\n      0x19\n        /* \"#utility.yul\":13210:13213   */\n      dup4\n        /* \"#utility.yul\":13151:13218   */\n      tag_88\n      jump\t// in\n    tag_219:\n        /* \"#utility.yul\":13144:13218   */\n      swap2\n      pop\n        /* \"#utility.yul\":13227:13320   */\n      tag_220\n        /* \"#utility.yul\":13316:13319   */\n      dup3\n        /* \"#utility.yul\":13227:13320   */\n      tag_93\n      jump\t// in\n    tag_220:\n        /* \"#utility.yul\":13345:13347   */\n      0x20\n        /* \"#utility.yul\":13340:13343   */\n      dup3\n        /* \"#utility.yul\":13336:13348   */\n      add\n        /* \"#utility.yul\":13329:13348   */\n      swap1\n      pop\n        /* \"#utility.yul\":12988:13354   */\n      swap2\n      swap1\n      pop\n      jump\t// out\n        /* \"#utility.yul\":13360:13779   */\n    tag_53:\n        /* \"#utility.yul\":13526:13530   */\n      0x00\n        /* \"#utility.yul\":13564:13566   */\n      0x20\n        /* \"#utility.yul\":13553:13562   */\n      dup3\n        /* \"#utility.yul\":13549:13567   */\n      add\n        /* \"#utility.yul\":13541:13567   */\n      swap1\n      pop\n        /* \"#utility.yul\":13613:13622   */\n      dup2\n        /* \"#utility.yul\":13607:13611   */\n      dup2\n        /* \"#utility.yul\":13603:13623   */\n      sub\n        /* \"#utility.yul\":13599:13600   */\n      0x00\n        /* \"#utility.yul\":13588:13597   */\n      dup4\n        /* \"#utility.yul\":13584:13601   */\n      add\n        /* \"#utility.yul\":13577:13624   */\n      mstore\n        /* \"#utility.yul\":13641:13772   */\n      tag_222\n        /* \"#utility.yul\":13767:13771   */\n      dup2\n        /* \"#utility.yul\":13641:13772   */\n      tag_94\n      jump\t// in\n    tag_222:\n        /* \"#utility.yul\":13633:13772   */\n      swap1\n      pop\n        /* \"#utility.yul\":13360:13779   */\n      swap2\n      swap1\n      pop\n      jump\t// out\n        /* \"#utility.yul\":13785:13934   */\n    tag_95:\n        /* \"#utility.yul\":13821:13828   */\n      0x00\n        /* \"#utility.yul\":13861:13927   */\n      0xff00000000000000000000000000000000000000000000000000000000000000\n        /* \"#utility.yul\":13854:13859   */\n      dup3\n        /* \"#utility.yul\":13850:13928   */\n      and\n        /* \"#utility.yul\":13839:13928   */\n      swap1\n      pop\n        /* \"#utility.yul\":13785:13934   */\n      swap2\n      swap1\n      pop\n      jump\t// out\n        /* \"#utility.yul\":13940:14018   */\n    tag_96:\n        /* \"#utility.yul\":13978:13985   */\n      0x00\n        /* \"#utility.yul\":14007:14012   */\n      dup2\n        /* \"#utility.yul\":13996:14012   */\n      swap1\n      pop\n        /* \"#utility.yul\":13940:14018   */\n      swap2\n      swap1\n      pop\n      jump\t// out\n        /* \"#utility.yul\":14024:14177   */\n    tag_97:\n        /* \"#utility.yul\":14127:14170   */\n      tag_226\n        /* \"#utility.yul\":14146:14169   */\n      tag_227\n        /* \"#utility.yul\":14163:14168   */\n      dup3\n        /* \"#utility.yul\":14146:14169   */\n      tag_95\n      jump\t// in\n    tag_227:\n        /* \"#utility.yul\":14127:14170   */\n      tag_96\n      jump\t// in\n    tag_226:\n        /* \"#utility.yul\":14122:14125   */\n      dup3\n        /* \"#utility.yul\":14115:14171   */\n      mstore\n        /* \"#utility.yul\":14024:14177   */\n      pop\n      pop\n      jump\t// out\n        /* \"#utility.yul\":14183:14260   */\n    tag_98:\n        /* \"#utility.yul\":14220:14227   */\n      0x00\n        /* \"#utility.yul\":14249:14254   */\n      dup2\n        /* \"#utility.yul\":14238:14254   */\n      swap1\n      pop\n        /* \"#utility.yul\":14183:14260   */\n      swap2\n      swap1\n      pop\n      jump\t// out\n        /* \"#utility.yul\":14266:14345   */\n    tag_99:\n        /* \"#utility.yul\":14305:14312   */\n      0x00\n        /* \"#utility.yul\":14334:14339   */\n      dup2\n        /* \"#utility.yul\":14323:14339   */\n      swap1\n      pop\n        /* \"#utility.yul\":14266:14345   */\n      swap2\n      swap1\n      pop\n      jump\t// out\n        /* \"#utility.yul\":14351:14508   */\n    tag_100:\n        /* \"#utility.yul\":14456:14501   */\n      tag_231\n        /* \"#utility.yul\":14476:14500   */\n      tag_232\n        /* \"#utility.yul\":14494:14499   */\n      dup3\n        /* \"#utility.yul\":14476:14500   */\n      tag_98\n      jump\t// in\n    tag_232:\n        /* \"#utility.yul\":14456:14501   */\n      tag_99\n      jump\t// in\n    tag_231:\n        /* \"#utility.yul\":14451:14454   */\n      dup3\n        /* \"#utility.yul\":14444:14502   */\n      mstore\n        /* \"#utility.yul\":14351:14508   */\n      pop\n      pop\n      jump\t// out\n        /* \"#utility.yul\":14514:15188   */\n    tag_56:\n        /* \"#utility.yul\":14708:14711   */\n      0x00\n        /* \"#utility.yul\":14723:14796   */\n      tag_234\n        /* \"#utility.yul\":14792:14795   */\n      dup3\n        /* \"#utility.yul\":14783:14789   */\n      dup8\n        /* \"#utility.yul\":14723:14796   */\n      tag_97\n      jump\t// in\n    tag_234:\n        /* \"#utility.yul\":14821:14822   */\n      0x01\n        /* \"#utility.yul\":14816:14819   */\n      dup3\n        /* \"#utility.yul\":14812:14823   */\n      add\n        /* \"#utility.yul\":14805:14823   */\n      swap2\n      pop\n        /* \"#utility.yul\":14833:14908   */\n      tag_235\n        /* \"#utility.yul\":14904:14907   */\n      dup3\n        /* \"#utility.yul\":14895:14901   */\n      dup7\n        /* \"#utility.yul\":14833:14908   */\n      tag_82\n      jump\t// in\n    tag_235:\n        /* \"#utility.yul\":14933:14935   */\n      0x14\n        /* \"#utility.yul\":14928:14931   */\n      dup3\n        /* \"#utility.yul\":14924:14936   */\n      add\n        /* \"#utility.yul\":14917:14936   */\n      swap2\n      pop\n        /* \"#utility.yul\":14946:15021   */\n      tag_236\n        /* \"#utility.yul\":15017:15020   */\n      dup3\n        /* \"#utility.yul\":15008:15014   */\n      dup6\n        /* \"#utility.yul\":14946:15021   */\n      tag_100\n      jump\t// in\n    tag_236:\n        /* \"#utility.yul\":15046:15048   */\n      0x20\n        /* \"#utility.yul\":15041:15044   */\n      dup3\n        /* \"#utility.yul\":15037:15049   */\n      add\n        /* \"#utility.yul\":15030:15049   */\n      swap2\n      pop\n        /* \"#utility.yul\":15059:15134   */\n      tag_237\n        /* \"#utility.yul\":15130:15133   */\n      dup3\n        /* \"#utility.yul\":15121:15127   */\n      dup5\n        /* \"#utility.yul\":15059:15134   */\n      tag_100\n      jump\t// in\n    tag_237:\n        /* \"#utility.yul\":15159:15161   */\n      0x20\n        /* \"#utility.yul\":15154:15157   */\n      dup3\n        /* \"#utility.yul\":15150:15162   */\n      add\n        /* \"#utility.yul\":15143:15162   */\n      swap2\n      pop\n        /* \"#utility.yul\":15179:15182   */\n      dup2\n        /* \"#utility.yul\":15172:15182   */\n      swap1\n      pop\n        /* \"#utility.yul\":14514:15188   */\n      swap6\n      swap5\n      pop\n      pop\n      pop\n      pop\n      pop\n      jump\t// out\n\n    auxdata: 0xa26469706673582212204c29b766cafad363e5445bb8d9f856123c10c6198603edd29f36b7d092a1a08f64736f6c63430008120033\n}\n",
				"bytecode": {
					"linkReferences": {},
					"object": "608060405234801561001057600080fd5b50610b36806100206000396000f3fe608060405234801561001057600080fd5b50600436106100365760003560e01c80635e9bc5361461003b578063da7323b31461006b575b600080fd5b61005560048036038101906100509190610490565b61009b565b604051610062919061051a565b60405180910390f35b6100856004803603810190610080919061059a565b6100cd565b604051610092919061051a565b60405180910390f35b6000806100ab8787878787610236565b8051906020012090506100c18360001b8261028a565b91505095945050505050565b6000806100dd8989898989610236565b905060006100f58660001b838051906020012061028a565b905060008173ffffffffffffffffffffffffffffffffffffffff163b1461012057809250505061022b565b7f07fba7bba1191da7ee1155dcfa0030701c9c9a9cc34a93b991fc6fd0c9268d8f818b8b8b8b8b60405161015996959493929190610658565b60405180910390a161017060008760001b8461029f565b9050600085859050146102255760008173ffffffffffffffffffffffffffffffffffffffff1686866040516101a69291906106f8565b6000604051808303816000865af19150503d80600081146101e3576040519150601f19603f3d011682016040523d82523d6000602084013e6101e8565b606091505b5050905080610223576040517f19b991a800000000000000000000000000000000000000000000000000000000815260040160405180910390fd5b505b80925050505b979650505050505050565b606085828686866040516020016102509493929190610711565b6040516020818303038152906040526040516020016102709291906108a7565b604051602081830303815290604052905095945050505050565b60006102978383306103ae565b905092915050565b600080844710156102e5576040517f08c379a00000000000000000000000000000000000000000000000000000000081526004016102dc90610942565b60405180910390fd5b6000835103610329576040517f08c379a0000000000000000000000000000000000000000000000000000000008152600401610320906109ae565b60405180910390fd5b8383516020850187f59050600073ffffffffffffffffffffffffffffffffffffffff168173ffffffffffffffffffffffffffffffffffffffff16036103a3576040517f08c379a000000000000000000000000000000000000000000000000000000000815260040161039a90610a1a565b60405180910390fd5b809150509392505050565b60008060ff60f81b8386866040516020016103cc9493929190610ab2565b6040516020818303038152906040528051906020012090508060001c9150509392505050565b600080fd5b600080fd5b600073ffffffffffffffffffffffffffffffffffffffff82169050919050565b6000610427826103fc565b9050919050565b6104378161041c565b811461044257600080fd5b50565b6000813590506104548161042e565b92915050565b6000819050919050565b61046d8161045a565b811461047857600080fd5b50565b60008135905061048a81610464565b92915050565b600080600080600060a086880312156104ac576104ab6103f2565b5b60006104ba88828901610445565b95505060206104cb8882890161047b565b94505060406104dc88828901610445565b93505060606104ed8882890161047b565b92505060806104fe8882890161047b565b9150509295509295909350565b6105148161041c565b82525050565b600060208201905061052f600083018461050b565b92915050565b600080fd5b600080fd5b600080fd5b60008083601f84011261055a57610559610535565b5b8235905067ffffffffffffffff8111156105775761057661053a565b5b6020830191508360018202830111156105935761059261053f565b5b9250929050565b600080600080600080600060c0888a0312156105b9576105b86103f2565b5b60006105c78a828b01610445565b97505060206105d88a828b0161047b565b96505060406105e98a828b01610445565b95505060606105fa8a828b0161047b565b945050608061060b8a828b0161047b565b93505060a088013567ffffffffffffffff81111561062c5761062b6103f7565b5b6106388a828b01610544565b925092505092959891949750929550565b6106528161045a565b82525050565b600060c08201905061066d600083018961050b565b61067a602083018861050b565b6106876040830187610649565b610694606083018661050b565b6106a16080830185610649565b6106ae60a0830184610649565b979650505050505050565b600081905092915050565b82818337600083830152505050565b60006106df83856106b9565b93506106ec8385846106c4565b82840190509392505050565b60006107058284866106d3565b91508190509392505050565b60006080820190506107266000830187610649565b6107336020830186610649565b610740604083018561050b565b61074d6060830184610649565b95945050505050565b600081905092915050565b7f3d60ad80600a3d3981f3363d3d373d3d3d363d73000000000000000000000000600082015250565b6000610797601483610756565b91506107a282610761565b601482019050919050565b60008160601b9050919050565b60006107c5826107ad565b9050919050565b60006107d7826107ba565b9050919050565b6107ef6107ea8261041c565b6107cc565b82525050565b7f5af43d82803e903d91602b57fd5bf30000000000000000000000000000000000600082015250565b600061082b600f83610756565b9150610836826107f5565b600f82019050919050565b600081519050919050565b60005b8381101561086a57808201518184015260208101905061084f565b60008484015250505050565b600061088182610841565b61088b81856106b9565b935061089b81856020860161084c565b80840191505092915050565b60006108b28261078a565b91506108be82856107de565b6014820191506108cd8261081e565b91506108d98284610876565b91508190509392505050565b600082825260208201905092915050565b7f437265617465323a20696e73756666696369656e742062616c616e6365000000600082015250565b600061092c601d836108e5565b9150610937826108f6565b602082019050919050565b6000602082019050818103600083015261095b8161091f565b9050919050565b7f437265617465323a2062797465636f6465206c656e677468206973207a65726f600082015250565b60006109986020836108e5565b91506109a382610962565b602082019050919050565b600060208201905081810360008301526109c78161098b565b9050919050565b7f437265617465323a204661696c6564206f6e206465706c6f7900000000000000600082015250565b6000610a046019836108e5565b9150610a0f826109ce565b602082019050919050565b60006020820190508181036000830152610a33816109f7565b9050919050565b60007fff0000000000000000000000000000000000000000000000000000000000000082169050919050565b6000819050919050565b610a81610a7c82610a3a565b610a66565b82525050565b6000819050919050565b6000819050919050565b610aac610aa782610a87565b610a91565b82525050565b6000610abe8287610a70565b600182019150610ace82866107de565b601482019150610ade8285610a9b565b602082019150610aee8284610a9b565b6020820191508190509594505050505056fea26469706673582212204c29b766cafad363e5445bb8d9f856123c10c6198603edd29f36b7d092a1a08f64736f6c63430008120033",
					"opcodes": "PUSH1 0x80 PUSH1 0x40 MSTORE CALLVALUE DUP1 ISZERO PUSH2 0x10 JUMPI PUSH1 0x0 DUP1 REVERT JUMPDEST POP PUSH2 0xB36 DUP1 PUSH2 0x20 PUSH1 0x0 CODECOPY PUSH1 0x0 RETURN INVALID PUSH1 0x80 PUSH1 0x40 MSTORE CALLVALUE DUP1 ISZERO PUSH2 0x10 JUMPI PUSH1 0x0 DUP1 REVERT JUMPDEST POP PUSH1 0x4 CALLDATASIZE LT PUSH2 0x36 JUMPI PUSH1 0x0 CALLDATALOAD PUSH1 0xE0 SHR DUP1 PUSH4 0x5E9BC536 EQ PUSH2 0x3B JUMPI DUP1 PUSH4 0xDA7323B3 EQ PUSH2 0x6B JUMPI JUMPDEST PUSH1 0x0 DUP1 REVERT JUMPDEST PUSH2 0x55 PUSH1 0x4 DUP1 CALLDATASIZE SUB DUP2 ADD SWAP1 PUSH2 0x50 SWAP2 SWAP1 PUSH2 0x490 JUMP JUMPDEST PUSH2 0x9B JUMP JUMPDEST PUSH1 0x40 MLOAD PUSH2 0x62 SWAP2 SWAP1 PUSH2 0x51A JUMP JUMPDEST PUSH1 0x40 MLOAD DUP1 SWAP2 SUB SWAP1 RETURN JUMPDEST PUSH2 0x85 PUSH1 0x4 DUP1 CALLDATASIZE SUB DUP2 ADD SWAP1 PUSH2 0x80 SWAP2 SWAP1 PUSH2 0x59A JUMP JUMPDEST PUSH2 0xCD JUMP JUMPDEST PUSH1 0x40 MLOAD PUSH2 0x92 SWAP2 SWAP1 PUSH2 0x51A JUMP JUMPDEST PUSH1 0x40 MLOAD DUP1 SWAP2 SUB SWAP1 RETURN JUMPDEST PUSH1 0x0 DUP1 PUSH2 0xAB DUP8 DUP8 DUP8 DUP8 DUP8 PUSH2 0x236 JUMP JUMPDEST DUP1 MLOAD SWAP1 PUSH1 0x20 ADD KECCAK256 SWAP1 POP PUSH2 0xC1 DUP4 PUSH1 0x0 SHL DUP3 PUSH2 0x28A JUMP JUMPDEST SWAP2 POP POP SWAP6 SWAP5 POP POP POP POP POP JUMP JUMPDEST PUSH1 0x0 DUP1 PUSH2 0xDD DUP10 DUP10 DUP10 DUP10 DUP10 PUSH2 0x236 JUMP JUMPDEST SWAP1 POP PUSH1 0x0 PUSH2 0xF5 DUP7 PUSH1 0x0 SHL DUP4 DUP1 MLOAD SWAP1 PUSH1 0x20 ADD KECCAK256 PUSH2 0x28A JUMP JUMPDEST SWAP1 POP PUSH1 0x0 DUP2 PUSH20 0xFFFFFFFFFFFFFFFFFFFFFFFFFFFFFFFFFFFFFFFF AND EXTCODESIZE EQ PUSH2 0x120 JUMPI DUP1 SWAP3 POP POP POP PUSH2 0x22B JUMP JUMPDEST PUSH32 0x7FBA7BBA1191DA7EE1155DCFA0030701C9C9A9CC34A93B991FC6FD0C9268D8F DUP2 DUP12 DUP12 DUP12 DUP12 DUP12 PUSH1 0x40 MLOAD PUSH2 0x159 SWAP7 SWAP6 SWAP5 SWAP4 SWAP3 SWAP2 SWAP1 PUSH2 0x658 JUMP JUMPDEST PUSH1 0x40 MLOAD DUP1 SWAP2 SUB SWAP1 LOG1 PUSH2 0x170 PUSH1 0x0 DUP8 PUSH1 0x0 SHL DUP5 PUSH2 0x29F JUMP JUMPDEST SWAP1 POP PUSH1 0x0 DUP6 DUP6 SWAP1 POP EQ PUSH2 0x225 JUMPI PUSH1 0x0 DUP2 PUSH20 0xFFFFFFFFFFFFFFFFFFFFFFFFFFFFFFFFFFFFFFFF AND DUP7 DUP7 PUSH1 0x40 MLOAD PUSH2 0x1A6 SWAP3 SWAP2 SWAP1 PUSH2 0x6F8 JUMP JUMPDEST PUSH1 0x0 PUSH1 0x40 MLOAD DUP1 DUP4 SUB DUP2 PUSH1 0x0 DUP7 GAS CALL SWAP2 POP POP RETURNDATASIZE DUP1 PUSH1 0x0 DUP2 EQ PUSH2 0x1E3 JUMPI PUSH1 0x40 MLOAD SWAP2 POP PUSH1 0x1F NOT PUSH1 0x3F RETURNDATASIZE ADD AND DUP3 ADD PUSH1 0x40 MSTORE RETURNDATASIZE DUP3 MSTORE RETURNDATASIZE PUSH1 0x0 PUSH1 0x20 DUP5 ADD RETURNDATACOPY PUSH2 0x1E8 JUMP JUMPDEST PUSH1 0x60 SWAP2 POP JUMPDEST POP POP SWAP1 POP DUP1 PUSH2 0x223 JUMPI PUSH1 0x40 MLOAD PUSH32 0x19B991A800000000000000000000000000000000000000000000000000000000 DUP2 MSTORE PUSH1 0x4 ADD PUSH1 0x40 MLOAD DUP1 SWAP2 SUB SWAP1 REVERT JUMPDEST POP JUMPDEST DUP1 SWAP3 POP POP POP JUMPDEST SWAP8 SWAP7 POP POP POP POP POP POP POP JUMP JUMPDEST PUSH1 0x60 DUP6 DUP3 DUP7 DUP7 DUP7 PUSH1 0x40 MLOAD PUSH1 0x20 ADD PUSH2 0x250 SWAP5 SWAP4 SWAP3 SWAP2 SWAP1 PUSH2 0x711 JUMP JUMPDEST PUSH1 0x40 MLOAD PUSH1 0x20 DUP2 DUP4 SUB SUB DUP2 MSTORE SWAP1 PUSH1 0x40 MSTORE PUSH1 0x40 MLOAD PUSH1 0x20 ADD PUSH2 0x270 SWAP3 SWAP2 SWAP1 PUSH2 0x8A7 JUMP JUMPDEST PUSH1 0x40 MLOAD PUSH1 0x20 DUP2 DUP4 SUB SUB DUP2 MSTORE SWAP1 PUSH1 0x40 MSTORE SWAP1 POP SWAP6 SWAP5 POP POP POP POP POP JUMP JUMPDEST PUSH1 0x0 PUSH2 0x297 DUP4 DUP4 ADDRESS PUSH2 0x3AE JUMP JUMPDEST SWAP1 POP SWAP3 SWAP2 POP POP JUMP JUMPDEST PUSH1 0x0 DUP1 DUP5 SELFBALANCE LT ISZERO PUSH2 0x2E5 JUMPI PUSH1 0x40 MLOAD PUSH32 0x8C379A000000000000000000000000000000000000000000000000000000000 DUP2 MSTORE PUSH1 0x4 ADD PUSH2 0x2DC SWAP1 PUSH2 0x942 JUMP JUMPDEST PUSH1 0x40 MLOAD DUP1 SWAP2 SUB SWAP1 REVERT JUMPDEST PUSH1 0x0 DUP4 MLOAD SUB PUSH2 0x329 JUMPI PUSH1 0x40 MLOAD PUSH32 0x8C379A000000000000000000000000000000000000000000000000000000000 DUP2 MSTORE PUSH1 0x4 ADD PUSH2 0x320 SWAP1 PUSH2 0x9AE JUMP JUMPDEST PUSH1 0x40 MLOAD DUP1 SWAP2 SUB SWAP1 REVERT JUMPDEST DUP4 DUP4 MLOAD PUSH1 0x20 DUP6 ADD DUP8 CREATE2 SWAP1 POP PUSH1 0x0 PUSH20 0xFFFFFFFFFFFFFFFFFFFFFFFFFFFFFFFFFFFFFFFF AND DUP2 PUSH20 0xFFFFFFFFFFFFFFFFFFFFFFFFFFFFFFFFFFFFFFFF AND SUB PUSH2 0x3A3 JUMPI PUSH1 0x40 MLOAD PUSH32 0x8C379A000000000000000000000000000000000000000000000000000000000 DUP2 MSTORE PUSH1 0x4 ADD PUSH2 0x39A SWAP1 PUSH2 0xA1A JUMP JUMPDEST PUSH1 0x40 MLOAD DUP1 SWAP2 SUB SWAP1 REVERT JUMPDEST DUP1 SWAP2 POP POP SWAP4 SWAP3 POP POP POP JUMP JUMPDEST PUSH1 0x0 DUP1 PUSH1 0xFF PUSH1 0xF8 SHL DUP4 DUP7 DUP7 PUSH1 0x40 MLOAD PUSH1 0x20 ADD PUSH2 0x3CC SWAP5 SWAP4 SWAP3 SWAP2 SWAP1 PUSH2 0xAB2 JUMP JUMPDEST PUSH1 0x40 MLOAD PUSH1 0x20 DUP2 DUP4 SUB SUB DUP2 MSTORE SWAP1 PUSH1 0x40 MSTORE DUP1 MLOAD SWAP1 PUSH1 0x20 ADD KECCAK256 SWAP1 POP DUP1 PUSH1 0x0 SHR SWAP2 POP POP SWAP4 SWAP3 POP POP POP JUMP JUMPDEST PUSH1 0x0 DUP1 REVERT JUMPDEST PUSH1 0x0 DUP1 REVERT JUMPDEST PUSH1 0x0 PUSH20 0xFFFFFFFFFFFFFFFFFFFFFFFFFFFFFFFFFFFFFFFF DUP3 AND SWAP1 POP SWAP2 SWAP1 POP JUMP JUMPDEST PUSH1 0x0 PUSH2 0x427 DUP3 PUSH2 0x3FC JUMP JUMPDEST SWAP1 POP SWAP2 SWAP1 POP JUMP JUMPDEST PUSH2 0x437 DUP2 PUSH2 0x41C JUMP JUMPDEST DUP2 EQ PUSH2 0x442 JUMPI PUSH1 0x0 DUP1 REVERT JUMPDEST POP JUMP JUMPDEST PUSH1 0x0 DUP2 CALLDATALOAD SWAP1 POP PUSH2 0x454 DUP2 PUSH2 0x42E JUMP JUMPDEST SWAP3 SWAP2 POP POP JUMP JUMPDEST PUSH1 0x0 DUP2 SWAP1 POP SWAP2 SWAP1 POP JUMP JUMPDEST PUSH2 0x46D DUP2 PUSH2 0x45A JUMP JUMPDEST DUP2 EQ PUSH2 0x478 JUMPI PUSH1 0x0 DUP1 REVERT JUMPDEST POP JUMP JUMPDEST PUSH1 0x0 DUP2 CALLDATALOAD SWAP1 POP PUSH2 0x48A DUP2 PUSH2 0x464 JUMP JUMPDEST SWAP3 SWAP2 POP POP JUMP JUMPDEST PUSH1 0x0 DUP1 PUSH1 0x0 DUP1 PUSH1 0x0 PUSH1 0xA0 DUP7 DUP9 SUB SLT ISZERO PUSH2 0x4AC JUMPI PUSH2 0x4AB PUSH2 0x3F2 JUMP JUMPDEST JUMPDEST PUSH1 0x0 PUSH2 0x4BA DUP9 DUP3 DUP10 ADD PUSH2 0x445 JUMP JUMPDEST SWAP6 POP POP PUSH1 0x20 PUSH2 0x4CB DUP9 DUP3 DUP10 ADD PUSH2 0x47B JUMP JUMPDEST SWAP5 POP POP PUSH1 0x40 PUSH2 0x4DC DUP9 DUP3 DUP10 ADD PUSH2 0x445 JUMP JUMPDEST SWAP4 POP POP PUSH1 0x60 PUSH2 0x4ED DUP9 DUP3 DUP10 ADD PUSH2 0x47B JUMP JUMPDEST SWAP3 POP POP PUSH1 0x80 PUSH2 0x4FE DUP9 DUP3 DUP10 ADD PUSH2 0x47B JUMP JUMPDEST SWAP2 POP POP SWAP3 SWAP6 POP SWAP3 SWAP6 SWAP1 SWAP4 POP JUMP JUMPDEST PUSH2 0x514 DUP2 PUSH2 0x41C JUMP JUMPDEST DUP3 MSTORE POP POP JUMP JUMPDEST PUSH1 0x0 PUSH1 0x20 DUP3 ADD SWAP1 POP PUSH2 0x52F PUSH1 0x0 DUP4 ADD DUP5 PUSH2 0x50B JUMP JUMPDEST SWAP3 SWAP2 POP POP JUMP JUMPDEST PUSH1 0x0 DUP1 REVERT JUMPDEST PUSH1 0x0 DUP1 REVERT JUMPDEST PUSH1 0x0 DUP1 REVERT JUMPDEST PUSH1 0x0 DUP1 DUP4 PUSH1 0x1F DUP5 ADD SLT PUSH2 0x55A JUMPI PUSH2 0x559 PUSH2 0x535 JUMP JUMPDEST JUMPDEST DUP3 CALLDATALOAD SWAP1 POP PUSH8 0xFFFFFFFFFFFFFFFF DUP2 GT ISZERO PUSH2 0x577 JUMPI PUSH2 0x576 PUSH2 0x53A JUMP JUMPDEST JUMPDEST PUSH1 0x20 DUP4 ADD SWAP2 POP DUP4 PUSH1 0x1 DUP3 MUL DUP4 ADD GT ISZERO PUSH2 0x593 JUMPI PUSH2 0x592 PUSH2 0x53F JUMP JUMPDEST JUMPDEST SWAP3 POP SWAP3 SWAP1 POP JUMP JUMPDEST PUSH1 0x0 DUP1 PUSH1 0x0 DUP1 PUSH1 0x0 DUP1 PUSH1 0x0 PUSH1 0xC0 DUP9 DUP11 SUB SLT ISZERO PUSH2 0x5B9 JUMPI PUSH2 0x5B8 PUSH2 0x3F2 JUMP JUMPDEST JUMPDEST PUSH1 0x0 PUSH2 0x5C7 DUP11 DUP3 DUP12 ADD PUSH2 0x445 JUMP JUMPDEST SWAP8 POP POP PUSH1 0x20 PUSH2 0x5D8 DUP11 DUP3 DUP12 ADD PUSH2 0x47B JUMP JUMPDEST SWAP7 POP POP PUSH1 0x40 PUSH2 0x5E9 DUP11 DUP3 DUP12 ADD PUSH2 0x445 JUMP JUMPDEST SWAP6 POP POP PUSH1 0x60 PUSH2 0x5FA DUP11 DUP3 DUP12 ADD PUSH2 0x47B JUMP JUMPDEST SWAP5 POP POP PUSH1 0x80 PUSH2 0x60B DUP11 DUP3 DUP12 ADD PUSH2 0x47B JUMP JUMPDEST SWAP4 POP POP PUSH1 0xA0 DUP9 ADD CALLDATALOAD PUSH8 0xFFFFFFFFFFFFFFFF DUP2 GT ISZERO PUSH2 0x62C JUMPI PUSH2 0x62B PUSH2 0x3F7 JUMP JUMPDEST JUMPDEST PUSH2 0x638 DUP11 DUP3 DUP12 ADD PUSH2 0x544 JUMP JUMPDEST SWAP3 POP SWAP3 POP POP SWAP3 SWAP6 SWAP9 SWAP2 SWAP5 SWAP8 POP SWAP3 SWAP6 POP JUMP JUMPDEST PUSH2 0x652 DUP2 PUSH2 0x45A JUMP JUMPDEST DUP3 MSTORE POP POP JUMP JUMPDEST PUSH1 0x0 PUSH1 0xC0 DUP3 ADD SWAP1 POP PUSH2 0x66D PUSH1 0x0 DUP4 ADD DUP10 PUSH2 0x50B JUMP JUMPDEST PUSH2 0x67A PUSH1 0x20 DUP4 ADD DUP9 PUSH2 0x50B JUMP JUMPDEST PUSH2 0x687 PUSH1 0x40 DUP4 ADD DUP8 PUSH2 0x649 JUMP JUMPDEST PUSH2 0x694 PUSH1 0x60 DUP4 ADD DUP7 PUSH2 0x50B JUMP JUMPDEST PUSH2 0x6A1 PUSH1 0x80 DUP4 ADD DUP6 PUSH2 0x649 JUMP JUMPDEST PUSH2 0x6AE PUSH1 0xA0 DUP4 ADD DUP5 PUSH2 0x649 JUMP JUMPDEST SWAP8 SWAP7 POP POP POP POP POP POP POP JUMP JUMPDEST PUSH1 0x0 DUP2 SWAP1 POP SWAP3 SWAP2 POP POP JUMP JUMPDEST DUP3 DUP2 DUP4 CALLDATACOPY PUSH1 0x0 DUP4 DUP4 ADD MSTORE POP POP POP JUMP JUMPDEST PUSH1 0x0 PUSH2 0x6DF DUP4 DUP6 PUSH2 0x6B9 JUMP JUMPDEST SWAP4 POP PUSH2 0x6EC DUP4 DUP6 DUP5 PUSH2 0x6C4 JUMP JUMPDEST DUP3 DUP5 ADD SWAP1 POP SWAP4 SWAP3 POP POP POP JUMP JUMPDEST PUSH1 0x0 PUSH2 0x705 DUP3 DUP5 DUP7 PUSH2 0x6D3 JUMP JUMPDEST SWAP2 POP DUP2 SWAP1 POP SWAP4 SWAP3 POP POP POP JUMP JUMPDEST PUSH1 0x0 PUSH1 0x80 DUP3 ADD SWAP1 POP PUSH2 0x726 PUSH1 0x0 DUP4 ADD DUP8 PUSH2 0x649 JUMP JUMPDEST PUSH2 0x733 PUSH1 0x20 DUP4 ADD DUP7 PUSH2 0x649 JUMP JUMPDEST PUSH2 0x740 PUSH1 0x40 DUP4 ADD DUP6 PUSH2 0x50B JUMP JUMPDEST PUSH2 0x74D PUSH1 0x60 DUP4 ADD DUP5 PUSH2 0x649 JUMP JUMPDEST SWAP6 SWAP5 POP POP POP POP POP JUMP JUMPDEST PUSH1 0x0 DUP2 SWAP1 POP SWAP3 SWAP2 POP POP JUMP JUMPDEST PUSH32 0x3D60AD80600A3D3981F3363D3D373D3D3D363D73000000000000000000000000 PUSH1 0x0 DUP3 ADD MSTORE POP JUMP JUMPDEST PUSH1 0x0 PUSH2 0x797 PUSH1 0x14 DUP4 PUSH2 0x756 JUMP JUMPDEST SWAP2 POP PUSH2 0x7A2 DUP3 PUSH2 0x761 JUMP JUMPDEST PUSH1 0x14 DUP3 ADD SWAP1 POP SWAP2 SWAP1 POP JUMP JUMPDEST PUSH1 0x0 DUP2 PUSH1 0x60 SHL SWAP1 POP SWAP2 SWAP1 POP JUMP JUMPDEST PUSH1 0x0 PUSH2 0x7C5 DUP3 PUSH2 0x7AD JUMP JUMPDEST SWAP1 POP SWAP2 SWAP1 POP JUMP JUMPDEST PUSH1 0x0 PUSH2 0x7D7 DUP3 PUSH2 0x7BA JUMP JUMPDEST SWAP1 POP SWAP2 SWAP1 POP JUMP JUMPDEST PUSH2 0x7EF PUSH2 0x7EA DUP3 PUSH2 0x41C JUMP JUMPDEST PUSH2 0x7CC JUMP JUMPDEST DUP3 MSTORE POP POP JUMP JUMPDEST PUSH32 0x5AF43D82803E903D91602B57FD5BF30000000000000000000000000000000000 PUSH1 0x0 DUP3 ADD MSTORE POP JUMP JUMPDEST PUSH1 0x0 PUSH2 0x82B PUSH1 0xF DUP4 PUSH2 0x756 JUMP JUMPDEST SWAP2 POP PUSH2 0x836 DUP3 PUSH2 0x7F5 JUMP JUMPDEST PUSH1 0xF DUP3 ADD SWAP1 POP SWAP2 SWAP1 POP JUMP JUMPDEST PUSH1 0x0 DUP2 MLOAD SWAP1 POP SWAP2 SWAP1 POP JUMP JUMPDEST PUSH1 0x0 JUMPDEST DUP4 DUP2 LT ISZERO PUSH2 0x86A JUMPI DUP1 DUP3 ADD MLOAD DUP2 DUP5 ADD MSTORE PUSH1 0x20 DUP2 ADD SWAP1 POP PUSH2 0x84F JUMP JUMPDEST PUSH1 0x0 DUP5 DUP5 ADD MSTORE POP POP POP POP JUMP JUMPDEST PUSH1 0x0 PUSH2 0x881 DUP3 PUSH2 0x841 JUMP JUMPDEST PUSH2 0x88B DUP2 DUP6 PUSH2 0x6B9 JUMP JUMPDEST SWAP4 POP PUSH2 0x89B DUP2 DUP6 PUSH1 0x20 DUP7 ADD PUSH2 0x84C JUMP JUMPDEST DUP1 DUP5 ADD SWAP2 POP POP SWAP3 SWAP2 POP POP JUMP JUMPDEST PUSH1 0x0 PUSH2 0x8B2 DUP3 PUSH2 0x78A JUMP JUMPDEST SWAP2 POP PUSH2 0x8BE DUP3 DUP6 PUSH2 0x7DE JUMP JUMPDEST PUSH1 0x14 DUP3 ADD SWAP2 POP PUSH2 0x8CD DUP3 PUSH2 0x81E JUMP JUMPDEST SWAP2 POP PUSH2 0x8D9 DUP3 DUP5 PUSH2 0x876 JUMP JUMPDEST SWAP2 POP DUP2 SWAP1 POP SWAP4 SWAP3 POP POP POP JUMP JUMPDEST PUSH1 0x0 DUP3 DUP3 MSTORE PUSH1 0x20 DUP3 ADD SWAP1 POP SWAP3 SWAP2 POP POP JUMP JUMPDEST PUSH32 0x437265617465323A20696E73756666696369656E742062616C616E6365000000 PUSH1 0x0 DUP3 ADD MSTORE POP JUMP JUMPDEST PUSH1 0x0 PUSH2 0x92C PUSH1 0x1D DUP4 PUSH2 0x8E5 JUMP JUMPDEST SWAP2 POP PUSH2 0x937 DUP3 PUSH2 0x8F6 JUMP JUMPDEST PUSH1 0x20 DUP3 ADD SWAP1 POP SWAP2 SWAP1 POP JUMP JUMPDEST PUSH1 0x0 PUSH1 0x20 DUP3 ADD SWAP1 POP DUP2 DUP2 SUB PUSH1 0x0 DUP4 ADD MSTORE PUSH2 0x95B DUP2 PUSH2 0x91F JUMP JUMPDEST SWAP1 POP SWAP2 SWAP1 POP JUMP JUMPDEST PUSH32 0x437265617465323A2062797465636F6465206C656E677468206973207A65726F PUSH1 0x0 DUP3 ADD MSTORE POP JUMP JUMPDEST PUSH1 0x0 PUSH2 0x998 PUSH1 0x20 DUP4 PUSH2 0x8E5 JUMP JUMPDEST SWAP2 POP PUSH2 0x9A3 DUP3 PUSH2 0x962 JUMP JUMPDEST PUSH1 0x20 DUP3 ADD SWAP1 POP SWAP2 SWAP1 POP JUMP JUMPDEST PUSH1 0x0 PUSH1 0x20 DUP3 ADD SWAP1 POP DUP2 DUP2 SUB PUSH1 0x0 DUP4 ADD MSTORE PUSH2 0x9C7 DUP2 PUSH2 0x98B JUMP JUMPDEST SWAP1 POP SWAP2 SWAP1 POP JUMP JUMPDEST PUSH32 0x437265617465323A204661696C6564206F6E206465706C6F7900000000000000 PUSH1 0x0 DUP3 ADD MSTORE POP JUMP JUMPDEST PUSH1 0x0 PUSH2 0xA04 PUSH1 0x19 DUP4 PUSH2 0x8E5 JUMP JUMPDEST SWAP2 POP PUSH2 0xA0F DUP3 PUSH2 0x9CE JUMP JUMPDEST PUSH1 0x20 DUP3 ADD SWAP1 POP SWAP2 SWAP1 POP JUMP JUMPDEST PUSH1 0x0 PUSH1 0x20 DUP3 ADD SWAP1 POP DUP2 DUP2 SUB PUSH1 0x0 DUP4 ADD MSTORE PUSH2 0xA33 DUP2 PUSH2 0x9F7 JUMP JUMPDEST SWAP1 POP SWAP2 SWAP1 POP JUMP JUMPDEST PUSH1 0x0 PUSH32 0xFF00000000000000000000000000000000000000000000000000000000000000 DUP3 AND SWAP1 POP SWAP2 SWAP1 POP JUMP JUMPDEST PUSH1 0x0 DUP2 SWAP1 POP SWAP2 SWAP1 POP JUMP JUMPDEST PUSH2 0xA81 PUSH2 0xA7C DUP3 PUSH2 0xA3A JUMP JUMPDEST PUSH2 0xA66 JUMP JUMPDEST DUP3 MSTORE POP POP JUMP JUMPDEST PUSH1 0x0 DUP2 SWAP1 POP SWAP2 SWAP1 POP JUMP JUMPDEST PUSH1 0x0 DUP2 SWAP1 POP SWAP2 SWAP1 POP JUMP JUMPDEST PUSH2 0xAAC PUSH2 0xAA7 DUP3 PUSH2 0xA87 JUMP JUMPDEST PUSH2 0xA91 JUMP JUMPDEST DUP3 MSTORE POP POP JUMP JUMPDEST PUSH1 0x0 PUSH2 0xABE DUP3 DUP8 PUSH2 0xA70 JUMP JUMPDEST PUSH1 0x1 DUP3 ADD SWAP2 POP PUSH2 0xACE DUP3 DUP7 PUSH2 0x7DE JUMP JUMPDEST PUSH1 0x14 DUP3 ADD SWAP2 POP PUSH2 0xADE DUP3 DUP6 PUSH2 0xA9B JUMP JUMPDEST PUSH1 0x20 DUP3 ADD SWAP2 POP PUSH2 0xAEE DUP3 DUP5 PUSH2 0xA9B JUMP JUMPDEST PUSH1 0x20 DUP3 ADD SWAP2 POP DUP2 SWAP1 POP SWAP6 SWAP5 POP POP POP POP POP JUMP INVALID LOG2 PUSH5 0x6970667358 0x22 SLT KECCAK256 0x4C 0x29 0xB7 PUSH7 0xCAFAD363E5445B 0xB8 0xD9 0xF8 JUMP SLT EXTCODECOPY LT 0xC6 NOT DUP7 SUB 0xED 0xD2 SWAP16 CALLDATASIZE 0xB7 0xD0 SWAP3 LOG1 LOG0 DUP16 PUSH5 0x736F6C6343 STOP ADDMOD SLT STOP CALLER "
				},
				"gasEstimates": {
					"creation": {
						"codeDepositCost": "574000",
						"executionCost": "606",
						"totalCost": "574606"
					},
					"external": {
						"account(address,uint256,address,uint256,uint256)": "infinite",
						"createAccount(address,uint256,address,uint256,uint256,bytes)": "infinite"
					}
				},
				"methodIdentifiers": {
					"account(address,uint256,address,uint256,uint256)": "5e9bc536",
					"createAccount(address,uint256,address,uint256,uint256,bytes)": "da7323b3"
				}
			},
			"storageLayout": {
				"storage": [],
				"types": null
			},
			"userdoc": {
				"kind": "user",
				"methods": {},
				"version": 1
			}
		}
	}
}