{
	"contracts/simple ERC721Account.sol": {
		"SimpleERC6551Account": {
			"abi": [
				{
					"anonymous": false,
					"inputs": [
						{
							"indexed": true,
							"internalType": "address",
							"name": "target",
							"type": "address"
						},
						{
							"indexed": true,
							"internalType": "uint256",
							"name": "value",
							"type": "uint256"
						},
						{
							"indexed": false,
							"internalType": "bytes",
							"name": "data",
							"type": "bytes"
						}
					],
					"name": "TransactionExecuted",
					"type": "event"
				},
				{
					"inputs": [
						{
							"internalType": "address",
							"name": "to",
							"type": "address"
						},
						{
							"internalType": "uint256",
							"name": "value",
							"type": "uint256"
						},
						{
							"internalType": "bytes",
							"name": "data",
							"type": "bytes"
						}
					],
					"name": "executeCall",
					"outputs": [
						{
							"internalType": "bytes",
							"name": "result",
							"type": "bytes"
						}
					],
					"stateMutability": "payable",
					"type": "function"
				},
				{
					"inputs": [
						{
							"internalType": "bytes32",
							"name": "hash",
							"type": "bytes32"
						},
						{
							"internalType": "bytes",
							"name": "signature",
							"type": "bytes"
						}
					],
					"name": "isValidSignature",
					"outputs": [
						{
							"internalType": "bytes4",
							"name": "magicValue",
							"type": "bytes4"
						}
					],
					"stateMutability": "view",
					"type": "function"
				},
				{
					"inputs": [],
					"name": "nonce",
					"outputs": [
						{
							"internalType": "uint256",
							"name": "",
							"type": "uint256"
						}
					],
					"stateMutability": "view",
					"type": "function"
				},
				{
					"inputs": [],
					"name": "owner",
					"outputs": [
						{
							"internalType": "address",
							"name": "",
							"type": "address"
						}
					],
					"stateMutability": "view",
					"type": "function"
				},
				{
					"inputs": [
						{
							"internalType": "bytes4",
							"name": "interfaceId",
							"type": "bytes4"
						}
					],
					"name": "supportsInterface",
					"outputs": [
						{
							"internalType": "bool",
							"name": "",
							"type": "bool"
						}
					],
					"stateMutability": "pure",
					"type": "function"
				},
				{
					"inputs": [],
					"name": "token",
					"outputs": [
						{
							"internalType": "uint256",
							"name": "",
							"type": "uint256"
						},
						{
							"internalType": "address",
							"name": "",
							"type": "address"
						},
						{
							"internalType": "uint256",
							"name": "",
							"type": "uint256"
						}
					],
					"stateMutability": "view",
					"type": "function"
				},
				{
					"stateMutability": "payable",
					"type": "receive"
				}
			],
			"devdoc": {
				"kind": "dev",
				"methods": {
					"isValidSignature(bytes32,bytes)": {
						"details": "Should return whether the signature provided is valid for the provided data",
						"params": {
							"hash": "Hash of the data to be signed",
							"signature": "Signature byte array associated with _data"
						}
					},
					"supportsInterface(bytes4)": {
						"details": "Returns true if this contract implements the interface defined by `interfaceId`. See the corresponding https://eips.ethereum.org/EIPS/eip-165#how-interfaces-are-identified[EIP section] to learn more about how these ids are created. This function call must use less than 30 000 gas."
					}
				},
				"version": 1
			},
			"evm": {
				"assembly": "    /* \"contracts/simple ERC721Account.sol\":1109:2747  contract SimpleERC6551Account is IERC165, IERC1271, IERC6551Account {... */\n  mstore(0x40, 0x80)\n  callvalue\n  dup1\n  iszero\n  tag_1\n  jumpi\n  0x00\n  dup1\n  revert\ntag_1:\n  pop\n  dataSize(sub_0)\n  dup1\n  dataOffset(sub_0)\n  0x00\n  codecopy\n  0x00\n  return\nstop\n\nsub_0: assembly {\n        /* \"contracts/simple ERC721Account.sol\":1109:2747  contract SimpleERC6551Account is IERC165, IERC1271, IERC6551Account {... */\n      mstore(0x40, 0x80)\n      jumpi(tag_1, lt(calldatasize, 0x04))\n      shr(0xe0, calldataload(0x00))\n      dup1\n      0x01ffc9a7\n      eq\n      tag_3\n      jumpi\n      dup1\n      0x1626ba7e\n      eq\n      tag_4\n      jumpi\n      dup1\n      0x8da5cb5b\n      eq\n      tag_5\n      jumpi\n      dup1\n      0x9e5d4c49\n      eq\n      tag_6\n      jumpi\n      dup1\n      0xaffed0e0\n      eq\n      tag_7\n      jumpi\n      dup1\n      0xfc0c546a\n      eq\n      tag_8\n      jumpi\n      jump(tag_2)\n    tag_1:\n      jumpi(tag_2, calldatasize)\n      stop\n    tag_2:\n      0x00\n      dup1\n      revert\n        /* \"contracts/simple ERC721Account.sol\":2198:2402  function supportsInterface(bytes4 interfaceId) public pure returns (bool) {... */\n    tag_3:\n      callvalue\n      dup1\n      iszero\n      tag_11\n      jumpi\n      0x00\n      dup1\n      revert\n    tag_11:\n      pop\n      tag_12\n      0x04\n      dup1\n      calldatasize\n      sub\n      dup2\n      add\n      swap1\n      tag_13\n      swap2\n      swap1\n      tag_14\n      jump\t// in\n    tag_13:\n      tag_15\n      jump\t// in\n    tag_12:\n      mload(0x40)\n      tag_16\n      swap2\n      swap1\n      tag_17\n      jump\t// in\n    tag_16:\n      mload(0x40)\n      dup1\n      swap2\n      sub\n      swap1\n      return\n        /* \"contracts/simple ERC721Account.sol\":2408:2745  function isValidSignature(bytes32 hash, bytes memory signature)... */\n    tag_4:\n      callvalue\n      dup1\n      iszero\n      tag_18\n      jumpi\n      0x00\n      dup1\n      revert\n    tag_18:\n      pop\n      tag_19\n      0x04\n      dup1\n      calldatasize\n      sub\n      dup2\n      add\n      swap1\n      tag_20\n      swap2\n      swap1\n      tag_21\n      jump\t// in\n    tag_20:\n      tag_22\n      jump\t// in\n    tag_19:\n      mload(0x40)\n      tag_23\n      swap2\n      swap1\n      tag_24\n      jump\t// in\n    tag_23:\n      mload(0x40)\n      dup1\n      swap2\n      sub\n      swap1\n      return\n        /* \"contracts/simple ERC721Account.sol\":1949:2191  function owner() public view returns(address) {... */\n    tag_5:\n      callvalue\n      dup1\n      iszero\n      tag_25\n      jumpi\n      0x00\n      dup1\n      revert\n    tag_25:\n      pop\n      tag_26\n      tag_27\n      jump\t// in\n    tag_26:\n      mload(0x40)\n      tag_28\n      swap2\n      swap1\n      tag_29\n      jump\t// in\n    tag_28:\n      mload(0x40)\n      dup1\n      swap2\n      sub\n      swap1\n      return\n        /* \"contracts/simple ERC721Account.sol\":1243:1828  function executeCall(... */\n    tag_6:\n      tag_30\n      0x04\n      dup1\n      calldatasize\n      sub\n      dup2\n      add\n      swap1\n      tag_31\n      swap2\n      swap1\n      tag_32\n      jump\t// in\n    tag_31:\n      tag_33\n      jump\t// in\n    tag_30:\n      mload(0x40)\n      tag_34\n      swap2\n      swap1\n      tag_35\n      jump\t// in\n    tag_34:\n      mload(0x40)\n      dup1\n      swap2\n      sub\n      swap1\n      return\n        /* \"contracts/simple ERC721Account.sol\":1184:1201  uint public nonce */\n    tag_7:\n      callvalue\n      dup1\n      iszero\n      tag_36\n      jumpi\n      0x00\n      dup1\n      revert\n    tag_36:\n      pop\n      tag_37\n      tag_38\n      jump\t// in\n    tag_37:\n      mload(0x40)\n      tag_39\n      swap2\n      swap1\n      tag_40\n      jump\t// in\n    tag_39:\n      mload(0x40)\n      dup1\n      swap2\n      sub\n      swap1\n      return\n        /* \"contracts/simple ERC721Account.sol\":1834:1943  function token() external view returns(uint, address, uint) {... */\n    tag_8:\n      callvalue\n      dup1\n      iszero\n      tag_41\n      jumpi\n      0x00\n      dup1\n      revert\n    tag_41:\n      pop\n      tag_42\n      tag_43\n      jump\t// in\n    tag_42:\n      mload(0x40)\n      tag_44\n      swap4\n      swap3\n      swap2\n      swap1\n      tag_45\n      jump\t// in\n    tag_44:\n      mload(0x40)\n      dup1\n      swap2\n      sub\n      swap1\n      return\n        /* \"contracts/simple ERC721Account.sol\":2198:2402  function supportsInterface(bytes4 interfaceId) public pure returns (bool) {... */\n    tag_15:\n        /* \"contracts/simple ERC721Account.sol\":2266:2270  bool */\n      0x00\n        /* \"contracts/simple ERC721Account.sol\":2305:2330  type(IERC165).interfaceId */\n      0x01ffc9a700000000000000000000000000000000000000000000000000000000\n        /* \"contracts/simple ERC721Account.sol\":2290:2330  interfaceId == type(IERC165).interfaceId */\n      not(0xffffffffffffffffffffffffffffffffffffffffffffffffffffffff)\n      and\n        /* \"contracts/simple ERC721Account.sol\":2290:2301  interfaceId */\n      dup3\n        /* \"contracts/simple ERC721Account.sol\":2290:2330  interfaceId == type(IERC165).interfaceId */\n      not(0xffffffffffffffffffffffffffffffffffffffffffffffffffffffff)\n      and\n      eq\n        /* \"contracts/simple ERC721Account.sol\":2290:2394  interfaceId == type(IERC165).interfaceId ||... */\n      dup1\n      tag_47\n      jumpi\n      pop\n        /* \"contracts/simple ERC721Account.sol\":2361:2394  type(IERC6551Account).interfaceId */\n      0x400a039800000000000000000000000000000000000000000000000000000000\n        /* \"contracts/simple ERC721Account.sol\":2346:2394  interfaceId == type(IERC6551Account).interfaceId */\n      not(0xffffffffffffffffffffffffffffffffffffffffffffffffffffffff)\n      and\n        /* \"contracts/simple ERC721Account.sol\":2346:2357  interfaceId */\n      dup3\n        /* \"contracts/simple ERC721Account.sol\":2346:2394  interfaceId == type(IERC6551Account).interfaceId */\n      not(0xffffffffffffffffffffffffffffffffffffffffffffffffffffffff)\n      and\n      eq\n        /* \"contracts/simple ERC721Account.sol\":2290:2394  interfaceId == type(IERC165).interfaceId ||... */\n    tag_47:\n        /* \"contracts/simple ERC721Account.sol\":2282:2395  return (interfaceId == type(IERC165).interfaceId ||... */\n      swap1\n      pop\n        /* \"contracts/simple ERC721Account.sol\":2198:2402  function supportsInterface(bytes4 interfaceId) public pure returns (bool) {... */\n      swap2\n      swap1\n      pop\n      jump\t// out\n        /* \"contracts/simple ERC721Account.sol\":2408:2745  function isValidSignature(bytes32 hash, bytes memory signature)... */\n    tag_22:\n        /* \"contracts/simple ERC721Account.sol\":2519:2536  bytes4 magicValue */\n      0x00\n        /* \"contracts/simple ERC721Account.sol\":2552:2564  bool isValid */\n      dup1\n        /* \"contracts/simple ERC721Account.sol\":2567:2629  SignatureChecker.isValidSignatureNow(owner(), hash, signature) */\n      tag_49\n        /* \"contracts/simple ERC721Account.sol\":2604:2611  owner() */\n      tag_50\n        /* \"contracts/simple ERC721Account.sol\":2604:2609  owner */\n      tag_27\n        /* \"contracts/simple ERC721Account.sol\":2604:2611  owner() */\n      jump\t// in\n    tag_50:\n        /* \"contracts/simple ERC721Account.sol\":2613:2617  hash */\n      dup6\n        /* \"contracts/simple ERC721Account.sol\":2619:2628  signature */\n      dup6\n        /* \"contracts/simple ERC721Account.sol\":2567:2603  SignatureChecker.isValidSignatureNow */\n      tag_51\n        /* \"contracts/simple ERC721Account.sol\":2567:2629  SignatureChecker.isValidSignatureNow(owner(), hash, signature) */\n      jump\t// in\n    tag_49:\n        /* \"contracts/simple ERC721Account.sol\":2552:2629  bool isValid = SignatureChecker.isValidSignatureNow(owner(), hash, signature) */\n      swap1\n      pop\n        /* \"contracts/simple ERC721Account.sol\":2644:2651  isValid */\n      dup1\n        /* \"contracts/simple ERC721Account.sol\":2640:2719  if (isValid) {... */\n      iszero\n      tag_52\n      jumpi\n        /* \"contracts/simple ERC721Account.sol\":2674:2708  IERC1271.isValidSignature.selector */\n      shl(0xe0, 0x1626ba7e)\n        /* \"contracts/simple ERC721Account.sol\":2667:2708  return IERC1271.isValidSignature.selector */\n      swap2\n      pop\n      pop\n      jump(tag_48)\n        /* \"contracts/simple ERC721Account.sol\":2640:2719  if (isValid) {... */\n    tag_52:\n        /* \"contracts/simple ERC721Account.sol\":2729:2738  return \"\" */\n      0x00\n      swap2\n      pop\n      pop\n        /* \"contracts/simple ERC721Account.sol\":2408:2745  function isValidSignature(bytes32 hash, bytes memory signature)... */\n    tag_48:\n      swap3\n      swap2\n      pop\n      pop\n      jump\t// out\n        /* \"contracts/simple ERC721Account.sol\":1949:2191  function owner() public view returns(address) {... */\n    tag_27:\n        /* \"contracts/simple ERC721Account.sol\":1986:1993  address */\n      0x00\n        /* \"contracts/simple ERC721Account.sol\":2006:2018  uint chainId */\n      dup1\n        /* \"contracts/simple ERC721Account.sol\":2020:2041  address tokenContract */\n      0x00\n        /* \"contracts/simple ERC721Account.sol\":2043:2055  uint tokenId */\n      dup1\n        /* \"contracts/simple ERC721Account.sol\":2059:2063  this */\n      address\n        /* \"contracts/simple ERC721Account.sol\":2059:2069  this.token */\n      0xffffffffffffffffffffffffffffffffffffffff\n      and\n      0xfc0c546a\n        /* \"contracts/simple ERC721Account.sol\":2059:2071  this.token() */\n      mload(0x40)\n      dup2\n      0xffffffff\n      and\n      0xe0\n      shl\n      dup2\n      mstore\n      0x04\n      add\n      0x60\n      mload(0x40)\n      dup1\n      dup4\n      sub\n      dup2\n      dup7\n      gas\n      staticcall\n      iszero\n      dup1\n      iszero\n      tag_55\n      jumpi\n      returndatasize\n      0x00\n      dup1\n      returndatacopy\n      revert(0x00, returndatasize)\n    tag_55:\n      pop\n      pop\n      pop\n      pop\n      mload(0x40)\n      returndatasize\n      not(0x1f)\n      0x1f\n      dup3\n      add\n      and\n      dup3\n      add\n      dup1\n      0x40\n      mstore\n      pop\n      dup2\n      add\n      swap1\n      tag_56\n      swap2\n      swap1\n      tag_57\n      jump\t// in\n    tag_56:\n        /* \"contracts/simple ERC721Account.sol\":2005:2071  (uint chainId, address tokenContract, uint tokenId) = this.token() */\n      swap3\n      pop\n      swap3\n      pop\n      swap3\n      pop\n        /* \"contracts/simple ERC721Account.sol\":2095:2108  block.chainid */\n      chainid\n        /* \"contracts/simple ERC721Account.sol\":2084:2091  chainId */\n      dup4\n        /* \"contracts/simple ERC721Account.sol\":2084:2108  chainId != block.chainid */\n      eq\n        /* \"contracts/simple ERC721Account.sol\":2081:2127  if(chainId != block.chainid) return address(0) */\n      tag_58\n      jumpi\n        /* \"contracts/simple ERC721Account.sol\":2125:2126  0 */\n      0x00\n        /* \"contracts/simple ERC721Account.sol\":2110:2127  return address(0) */\n      swap4\n      pop\n      pop\n      pop\n      pop\n      jump(tag_53)\n        /* \"contracts/simple ERC721Account.sol\":2081:2127  if(chainId != block.chainid) return address(0) */\n    tag_58:\n        /* \"contracts/simple ERC721Account.sol\":2153:2166  tokenContract */\n      dup2\n        /* \"contracts/simple ERC721Account.sol\":2145:2175  IERC721(tokenContract).ownerOf */\n      0xffffffffffffffffffffffffffffffffffffffff\n      and\n      0x6352211e\n        /* \"contracts/simple ERC721Account.sol\":2176:2183  tokenId */\n      dup3\n        /* \"contracts/simple ERC721Account.sol\":2145:2184  IERC721(tokenContract).ownerOf(tokenId) */\n      mload(0x40)\n      dup3\n      0xffffffff\n      and\n      0xe0\n      shl\n      dup2\n      mstore\n      0x04\n      add\n      tag_59\n      swap2\n      swap1\n      tag_40\n      jump\t// in\n    tag_59:\n      0x20\n      mload(0x40)\n      dup1\n      dup4\n      sub\n      dup2\n      dup7\n      gas\n      staticcall\n      iszero\n      dup1\n      iszero\n      tag_61\n      jumpi\n      returndatasize\n      0x00\n      dup1\n      returndatacopy\n      revert(0x00, returndatasize)\n    tag_61:\n      pop\n      pop\n      pop\n      pop\n      mload(0x40)\n      returndatasize\n      not(0x1f)\n      0x1f\n      dup3\n      add\n      and\n      dup3\n      add\n      dup1\n      0x40\n      mstore\n      pop\n      dup2\n      add\n      swap1\n      tag_62\n      swap2\n      swap1\n      tag_63\n      jump\t// in\n    tag_62:\n        /* \"contracts/simple ERC721Account.sol\":2138:2184  return IERC721(tokenContract).ownerOf(tokenId) */\n      swap4\n      pop\n      pop\n      pop\n      pop\n        /* \"contracts/simple ERC721Account.sol\":1949:2191  function owner() public view returns(address) {... */\n    tag_53:\n      swap1\n      jump\t// out\n        /* \"contracts/simple ERC721Account.sol\":1243:1828  function executeCall(... */\n    tag_33:\n        /* \"contracts/simple ERC721Account.sol\":1363:1382  bytes memory result */\n      0x60\n        /* \"contracts/simple ERC721Account.sol\":1410:1417  owner() */\n      tag_65\n        /* \"contracts/simple ERC721Account.sol\":1410:1415  owner */\n      tag_27\n        /* \"contracts/simple ERC721Account.sol\":1410:1417  owner() */\n      jump\t// in\n    tag_65:\n        /* \"contracts/simple ERC721Account.sol\":1396:1417  msg.sender != owner() */\n      0xffffffffffffffffffffffffffffffffffffffff\n      and\n        /* \"contracts/simple ERC721Account.sol\":1396:1406  msg.sender */\n      caller\n        /* \"contracts/simple ERC721Account.sol\":1396:1417  msg.sender != owner() */\n      0xffffffffffffffffffffffffffffffffffffffff\n      and\n      eq\n        /* \"contracts/simple ERC721Account.sol\":1393:1472  if(msg.sender != owner()) {... */\n      tag_66\n      jumpi\n        /* \"contracts/simple ERC721Account.sol\":1433:1461  revert(\"Your not the owner\") */\n      mload(0x40)\n      0x08c379a000000000000000000000000000000000000000000000000000000000\n      dup2\n      mstore\n      0x04\n      add\n      tag_67\n      swap1\n      tag_68\n      jump\t// in\n    tag_67:\n      mload(0x40)\n      dup1\n      swap2\n      sub\n      swap1\n      revert\n        /* \"contracts/simple ERC721Account.sol\":1393:1472  if(msg.sender != owner()) {... */\n    tag_66:\n        /* \"contracts/simple ERC721Account.sol\":1484:1489  nonce */\n      0x00\n      dup1\n        /* \"contracts/simple ERC721Account.sol\":1482:1489  ++nonce */\n      dup2\n      sload\n      tag_69\n      swap1\n      tag_70\n      jump\t// in\n    tag_69:\n      swap2\n      swap1\n      pop\n      dup2\n      swap1\n      sstore\n      pop\n        /* \"contracts/simple ERC721Account.sol\":1602:1607  value */\n      dup4\n        /* \"contracts/simple ERC721Account.sol\":1598:1600  to */\n      dup6\n        /* \"contracts/simple ERC721Account.sol\":1578:1614  TransactionExecuted(to, value, data) */\n      0xffffffffffffffffffffffffffffffffffffffff\n      and\n      0x47d99ad340f52da66535aff7e10da1ceb85a32bcbd9fa1c42314d194545e14d2\n        /* \"contracts/simple ERC721Account.sol\":1609:1613  data */\n      dup6\n      dup6\n        /* \"contracts/simple ERC721Account.sol\":1578:1614  TransactionExecuted(to, value, data) */\n      mload(0x40)\n      tag_71\n      swap3\n      swap2\n      swap1\n      tag_72\n      jump\t// in\n    tag_71:\n      mload(0x40)\n      dup1\n      swap2\n      sub\n      swap1\n      log3\n        /* \"contracts/simple ERC721Account.sol\":1625:1637  bool success */\n      0x00\n        /* \"contracts/simple ERC721Account.sol\":1668:1670  to */\n      dup6\n        /* \"contracts/simple ERC721Account.sol\":1668:1675  to.call */\n      0xffffffffffffffffffffffffffffffffffffffff\n      and\n        /* \"contracts/simple ERC721Account.sol\":1683:1688  value */\n      dup6\n        /* \"contracts/simple ERC721Account.sol\":1690:1694  data */\n      dup6\n      dup6\n        /* \"contracts/simple ERC721Account.sol\":1668:1695  to.call{value: value}(data) */\n      mload(0x40)\n      tag_73\n      swap3\n      swap2\n      swap1\n      tag_74\n      jump\t// in\n    tag_73:\n      0x00\n      mload(0x40)\n      dup1\n      dup4\n      sub\n      dup2\n      dup6\n      dup8\n      gas\n      call\n      swap3\n      pop\n      pop\n      pop\n      returndatasize\n      dup1\n      0x00\n      dup2\n      eq\n      tag_77\n      jumpi\n      mload(0x40)\n      swap2\n      pop\n      and(add(returndatasize, 0x3f), not(0x1f))\n      dup3\n      add\n      0x40\n      mstore\n      returndatasize\n      dup3\n      mstore\n      returndatasize\n      0x00\n      0x20\n      dup5\n      add\n      returndatacopy\n      jump(tag_76)\n    tag_77:\n      0x60\n      swap2\n      pop\n    tag_76:\n      pop\n        /* \"contracts/simple ERC721Account.sol\":1648:1695  (success, result) = to.call{value: value}(data) */\n      dup1\n      swap4\n      pop\n      dup2\n      swap3\n      pop\n      pop\n      pop\n        /* \"contracts/simple ERC721Account.sol\":1710:1717  success */\n      dup1\n        /* \"contracts/simple ERC721Account.sol\":1706:1822  if(!success) {... */\n      tag_78\n      jumpi\n        /* \"contracts/simple ERC721Account.sol\":1790:1796  result */\n      dup2\n        /* \"contracts/simple ERC721Account.sol\":1784:1797  mload(result) */\n      mload\n        /* \"contracts/simple ERC721Account.sol\":1779:1781  32 */\n      0x20\n        /* \"contracts/simple ERC721Account.sol\":1771:1777  result */\n      dup4\n        /* \"contracts/simple ERC721Account.sol\":1767:1782  add(result, 32) */\n      add\n        /* \"contracts/simple ERC721Account.sol\":1760:1798  revert(add(result, 32), mload(result)) */\n      revert\n        /* \"contracts/simple ERC721Account.sol\":1706:1822  if(!success) {... */\n    tag_78:\n        /* \"contracts/simple ERC721Account.sol\":1383:1828  {... */\n      pop\n        /* \"contracts/simple ERC721Account.sol\":1243:1828  function executeCall(... */\n      swap5\n      swap4\n      pop\n      pop\n      pop\n      pop\n      jump\t// out\n        /* \"contracts/simple ERC721Account.sol\":1184:1201  uint public nonce */\n    tag_38:\n      sload(0x00)\n      dup2\n      jump\t// out\n        /* \"contracts/simple ERC721Account.sol\":1834:1943  function token() external view returns(uint, address, uint) {... */\n    tag_43:\n        /* \"contracts/simple ERC721Account.sol\":1873:1877  uint */\n      0x00\n        /* \"contracts/simple ERC721Account.sol\":1879:1886  address */\n      dup1\n        /* \"contracts/simple ERC721Account.sol\":1888:1892  uint */\n      0x00\n        /* \"contracts/simple ERC721Account.sol\":1911:1936  ERC6551AccountLib.token() */\n      tag_80\n        /* \"contracts/simple ERC721Account.sol\":1911:1934  ERC6551AccountLib.token */\n      tag_81\n        /* \"contracts/simple ERC721Account.sol\":1911:1936  ERC6551AccountLib.token() */\n      jump\t// in\n    tag_80:\n        /* \"contracts/simple ERC721Account.sol\":1904:1936  return ERC6551AccountLib.token() */\n      swap3\n      pop\n      swap3\n      pop\n      swap3\n      pop\n        /* \"contracts/simple ERC721Account.sol\":1834:1943  function token() external view returns(uint, address, uint) {... */\n      swap1\n      swap2\n      swap3\n      jump\t// out\n        /* \"@openzeppelin/contracts/utils/cryptography/SignatureChecker.sol\":1014:1380  function isValidSignatureNow(address signer, bytes32 hash, bytes memory signature) internal view returns (bool) {... */\n    tag_51:\n        /* \"@openzeppelin/contracts/utils/cryptography/SignatureChecker.sol\":1120:1124  bool */\n      0x00\n        /* \"@openzeppelin/contracts/utils/cryptography/SignatureChecker.sol\":1137:1154  address recovered */\n      dup1\n        /* \"@openzeppelin/contracts/utils/cryptography/SignatureChecker.sol\":1156:1180  ECDSA.RecoverError error */\n      0x00\n        /* \"@openzeppelin/contracts/utils/cryptography/SignatureChecker.sol\":1184:1217  ECDSA.tryRecover(hash, signature) */\n      tag_83\n        /* \"@openzeppelin/contracts/utils/cryptography/SignatureChecker.sol\":1201:1205  hash */\n      dup6\n        /* \"@openzeppelin/contracts/utils/cryptography/SignatureChecker.sol\":1207:1216  signature */\n      dup6\n        /* \"@openzeppelin/contracts/utils/cryptography/SignatureChecker.sol\":1184:1200  ECDSA.tryRecover */\n      tag_84\n        /* \"@openzeppelin/contracts/utils/cryptography/SignatureChecker.sol\":1184:1217  ECDSA.tryRecover(hash, signature) */\n      jump\t// in\n    tag_83:\n        /* \"@openzeppelin/contracts/utils/cryptography/SignatureChecker.sol\":1136:1217  (address recovered, ECDSA.RecoverError error) = ECDSA.tryRecover(hash, signature) */\n      swap2\n      pop\n      swap2\n      pop\n        /* \"@openzeppelin/contracts/utils/cryptography/SignatureChecker.sol\":1256:1282  ECDSA.RecoverError.NoError */\n      0x00\n        /* \"@openzeppelin/contracts/utils/cryptography/SignatureChecker.sol\":1247:1282  error == ECDSA.RecoverError.NoError */\n      0x04\n      dup2\n      gt\n      iszero\n      tag_85\n      jumpi\n      tag_86\n      tag_87\n      jump\t// in\n    tag_86:\n    tag_85:\n        /* \"@openzeppelin/contracts/utils/cryptography/SignatureChecker.sol\":1247:1252  error */\n      dup2\n        /* \"@openzeppelin/contracts/utils/cryptography/SignatureChecker.sol\":1247:1282  error == ECDSA.RecoverError.NoError */\n      0x04\n      dup2\n      gt\n      iszero\n      tag_88\n      jumpi\n      tag_89\n      tag_87\n      jump\t// in\n    tag_89:\n    tag_88:\n      eq\n        /* \"@openzeppelin/contracts/utils/cryptography/SignatureChecker.sol\":1247:1305  error == ECDSA.RecoverError.NoError && recovered == signer */\n      dup1\n      iszero\n      tag_90\n      jumpi\n      pop\n        /* \"@openzeppelin/contracts/utils/cryptography/SignatureChecker.sol\":1299:1305  signer */\n      dup6\n        /* \"@openzeppelin/contracts/utils/cryptography/SignatureChecker.sol\":1286:1305  recovered == signer */\n      0xffffffffffffffffffffffffffffffffffffffff\n      and\n        /* \"@openzeppelin/contracts/utils/cryptography/SignatureChecker.sol\":1286:1295  recovered */\n      dup3\n        /* \"@openzeppelin/contracts/utils/cryptography/SignatureChecker.sol\":1286:1305  recovered == signer */\n      0xffffffffffffffffffffffffffffffffffffffff\n      and\n      eq\n        /* \"@openzeppelin/contracts/utils/cryptography/SignatureChecker.sol\":1247:1305  error == ECDSA.RecoverError.NoError && recovered == signer */\n    tag_90:\n        /* \"@openzeppelin/contracts/utils/cryptography/SignatureChecker.sol\":1246:1373  (error == ECDSA.RecoverError.NoError && recovered == signer) ||... */\n      dup1\n      tag_91\n      jumpi\n      pop\n        /* \"@openzeppelin/contracts/utils/cryptography/SignatureChecker.sol\":1322:1373  isValidERC1271SignatureNow(signer, hash, signature) */\n      tag_92\n        /* \"@openzeppelin/contracts/utils/cryptography/SignatureChecker.sol\":1349:1355  signer */\n      dup7\n        /* \"@openzeppelin/contracts/utils/cryptography/SignatureChecker.sol\":1357:1361  hash */\n      dup7\n        /* \"@openzeppelin/contracts/utils/cryptography/SignatureChecker.sol\":1363:1372  signature */\n      dup7\n        /* \"@openzeppelin/contracts/utils/cryptography/SignatureChecker.sol\":1322:1348  isValidERC1271SignatureNow */\n      tag_93\n        /* \"@openzeppelin/contracts/utils/cryptography/SignatureChecker.sol\":1322:1373  isValidERC1271SignatureNow(signer, hash, signature) */\n      jump\t// in\n    tag_92:\n        /* \"@openzeppelin/contracts/utils/cryptography/SignatureChecker.sol\":1246:1373  (error == ECDSA.RecoverError.NoError && recovered == signer) ||... */\n    tag_91:\n        /* \"@openzeppelin/contracts/utils/cryptography/SignatureChecker.sol\":1227:1373  return... */\n      swap3\n      pop\n      pop\n      pop\n        /* \"@openzeppelin/contracts/utils/cryptography/SignatureChecker.sol\":1014:1380  function isValidSignatureNow(address signer, bytes32 hash, bytes memory signature) internal view returns (bool) {... */\n      swap4\n      swap3\n      pop\n      pop\n      pop\n      jump\t// out\n        /* \"https://github.com/erc6551/reference/blob/v0.2.0-deployment/src/lib/ERC6551AccountLib.sol\":743:1149  function token()... */\n    tag_81:\n        /* \"https://github.com/erc6551/reference/blob/v0.2.0-deployment/src/lib/ERC6551AccountLib.sol\":820:827  uint256 */\n      0x00\n        /* \"https://github.com/erc6551/reference/blob/v0.2.0-deployment/src/lib/ERC6551AccountLib.sol\":841:848  address */\n      dup1\n        /* \"https://github.com/erc6551/reference/blob/v0.2.0-deployment/src/lib/ERC6551AccountLib.sol\":862:869  uint256 */\n      0x00\n        /* \"https://github.com/erc6551/reference/blob/v0.2.0-deployment/src/lib/ERC6551AccountLib.sol\":894:913  bytes memory footer */\n      dup1\n        /* \"https://github.com/erc6551/reference/blob/v0.2.0-deployment/src/lib/ERC6551AccountLib.sol\":926:930  0x60 */\n      0x60\n        /* \"https://github.com/erc6551/reference/blob/v0.2.0-deployment/src/lib/ERC6551AccountLib.sol\":916:931  new bytes(0x60) */\n      0xffffffffffffffff\n      dup2\n      gt\n      iszero\n      tag_95\n      jumpi\n      tag_96\n      tag_97\n      jump\t// in\n    tag_96:\n    tag_95:\n      mload(0x40)\n      swap1\n      dup1\n      dup3\n      mstore\n      dup1\n      0x1f\n      add\n      not(0x1f)\n      and\n      0x20\n      add\n      dup3\n      add\n      0x40\n      mstore\n      dup1\n      iszero\n      tag_98\n      jumpi\n      dup2\n      0x20\n      add\n      0x01\n      dup3\n      mul\n      dup1\n      calldatasize\n      dup4\n      calldatacopy\n      dup1\n      dup3\n      add\n      swap2\n      pop\n      pop\n      swap1\n      pop\n    tag_98:\n      pop\n        /* \"https://github.com/erc6551/reference/blob/v0.2.0-deployment/src/lib/ERC6551AccountLib.sol\":894:931  bytes memory footer = new bytes(0x60) */\n      swap1\n      pop\n        /* \"https://github.com/erc6551/reference/blob/v0.2.0-deployment/src/lib/ERC6551AccountLib.sol\":1063:1067  0xad */\n      0xad\n        /* \"https://github.com/erc6551/reference/blob/v0.2.0-deployment/src/lib/ERC6551AccountLib.sol\":1057:1061  0x4d */\n      0x4d\n        /* \"https://github.com/erc6551/reference/blob/v0.2.0-deployment/src/lib/ERC6551AccountLib.sol\":1050:1054  0x20 */\n      0x20\n        /* \"https://github.com/erc6551/reference/blob/v0.2.0-deployment/src/lib/ERC6551AccountLib.sol\":1042:1048  footer */\n      dup4\n        /* \"https://github.com/erc6551/reference/blob/v0.2.0-deployment/src/lib/ERC6551AccountLib.sol\":1038:1055  add(footer, 0x20) */\n      add\n        /* \"https://github.com/erc6551/reference/blob/v0.2.0-deployment/src/lib/ERC6551AccountLib.sol\":1027:1036  address() */\n      address\n        /* \"https://github.com/erc6551/reference/blob/v0.2.0-deployment/src/lib/ERC6551AccountLib.sol\":1015:1068  extcodecopy(address(), add(footer, 0x20), 0x4d, 0xad) */\n      extcodecopy\n        /* \"https://github.com/erc6551/reference/blob/v0.2.0-deployment/src/lib/ERC6551AccountLib.sol\":1106:1112  footer */\n      dup1\n        /* \"https://github.com/erc6551/reference/blob/v0.2.0-deployment/src/lib/ERC6551AccountLib.sol\":1095:1142  abi.decode(footer, (uint256, address, uint256)) */\n      dup1\n      0x20\n      add\n      swap1\n      mload\n      dup2\n      add\n      swap1\n      tag_99\n      swap2\n      swap1\n      tag_100\n      jump\t// in\n    tag_99:\n        /* \"https://github.com/erc6551/reference/blob/v0.2.0-deployment/src/lib/ERC6551AccountLib.sol\":1088:1142  return abi.decode(footer, (uint256, address, uint256)) */\n      swap4\n      pop\n      swap4\n      pop\n      swap4\n      pop\n      pop\n        /* \"https://github.com/erc6551/reference/blob/v0.2.0-deployment/src/lib/ERC6551AccountLib.sol\":743:1149  function token()... */\n      swap1\n      swap2\n      swap3\n      jump\t// out\n        /* \"@openzeppelin/contracts/utils/cryptography/ECDSA.sol\":2145:2875  function tryRecover(bytes32 hash, bytes memory signature) internal pure returns (address, RecoverError) {... */\n    tag_84:\n        /* \"@openzeppelin/contracts/utils/cryptography/ECDSA.sol\":2226:2233  address */\n      0x00\n        /* \"@openzeppelin/contracts/utils/cryptography/ECDSA.sol\":2235:2247  RecoverError */\n      dup1\n        /* \"@openzeppelin/contracts/utils/cryptography/ECDSA.sol\":2283:2285  65 */\n      0x41\n        /* \"@openzeppelin/contracts/utils/cryptography/ECDSA.sol\":2263:2272  signature */\n      dup4\n        /* \"@openzeppelin/contracts/utils/cryptography/ECDSA.sol\":2263:2279  signature.length */\n      mload\n        /* \"@openzeppelin/contracts/utils/cryptography/ECDSA.sol\":2263:2285  signature.length == 65 */\n      sub\n        /* \"@openzeppelin/contracts/utils/cryptography/ECDSA.sol\":2259:2869  if (signature.length == 65) {... */\n      tag_102\n      jumpi\n        /* \"@openzeppelin/contracts/utils/cryptography/ECDSA.sol\":2301:2310  bytes32 r */\n      0x00\n        /* \"@openzeppelin/contracts/utils/cryptography/ECDSA.sol\":2324:2333  bytes32 s */\n      dup1\n        /* \"@openzeppelin/contracts/utils/cryptography/ECDSA.sol\":2347:2354  uint8 v */\n      0x00\n        /* \"@openzeppelin/contracts/utils/cryptography/ECDSA.sol\":2599:2603  0x20 */\n      0x20\n        /* \"@openzeppelin/contracts/utils/cryptography/ECDSA.sol\":2588:2597  signature */\n      dup7\n        /* \"@openzeppelin/contracts/utils/cryptography/ECDSA.sol\":2584:2604  add(signature, 0x20) */\n      add\n        /* \"@openzeppelin/contracts/utils/cryptography/ECDSA.sol\":2578:2605  mload(add(signature, 0x20)) */\n      mload\n        /* \"@openzeppelin/contracts/utils/cryptography/ECDSA.sol\":2573:2605  r := mload(add(signature, 0x20)) */\n      swap3\n      pop\n        /* \"@openzeppelin/contracts/utils/cryptography/ECDSA.sol\":2648:2652  0x40 */\n      0x40\n        /* \"@openzeppelin/contracts/utils/cryptography/ECDSA.sol\":2637:2646  signature */\n      dup7\n        /* \"@openzeppelin/contracts/utils/cryptography/ECDSA.sol\":2633:2653  add(signature, 0x40) */\n      add\n        /* \"@openzeppelin/contracts/utils/cryptography/ECDSA.sol\":2627:2654  mload(add(signature, 0x40)) */\n      mload\n        /* \"@openzeppelin/contracts/utils/cryptography/ECDSA.sol\":2622:2654  s := mload(add(signature, 0x40)) */\n      swap2\n      pop\n        /* \"@openzeppelin/contracts/utils/cryptography/ECDSA.sol\":2705:2709  0x60 */\n      0x60\n        /* \"@openzeppelin/contracts/utils/cryptography/ECDSA.sol\":2694:2703  signature */\n      dup7\n        /* \"@openzeppelin/contracts/utils/cryptography/ECDSA.sol\":2690:2710  add(signature, 0x60) */\n      add\n        /* \"@openzeppelin/contracts/utils/cryptography/ECDSA.sol\":2684:2711  mload(add(signature, 0x60)) */\n      mload\n        /* \"@openzeppelin/contracts/utils/cryptography/ECDSA.sol\":2681:2682  0 */\n      0x00\n        /* \"@openzeppelin/contracts/utils/cryptography/ECDSA.sol\":2676:2712  byte(0, mload(add(signature, 0x60))) */\n      byte\n        /* \"@openzeppelin/contracts/utils/cryptography/ECDSA.sol\":2671:2712  v := byte(0, mload(add(signature, 0x60))) */\n      swap1\n      pop\n        /* \"@openzeppelin/contracts/utils/cryptography/ECDSA.sol\":2746:2771  tryRecover(hash, v, r, s) */\n      tag_103\n        /* \"@openzeppelin/contracts/utils/cryptography/ECDSA.sol\":2757:2761  hash */\n      dup8\n        /* \"@openzeppelin/contracts/utils/cryptography/ECDSA.sol\":2763:2764  v */\n      dup3\n        /* \"@openzeppelin/contracts/utils/cryptography/ECDSA.sol\":2766:2767  r */\n      dup6\n        /* \"@openzeppelin/contracts/utils/cryptography/ECDSA.sol\":2769:2770  s */\n      dup6\n        /* \"@openzeppelin/contracts/utils/cryptography/ECDSA.sol\":2746:2756  tryRecover */\n      tag_104\n        /* \"@openzeppelin/contracts/utils/cryptography/ECDSA.sol\":2746:2771  tryRecover(hash, v, r, s) */\n      jump\t// in\n    tag_103:\n        /* \"@openzeppelin/contracts/utils/cryptography/ECDSA.sol\":2739:2771  return tryRecover(hash, v, r, s) */\n      swap5\n      pop\n      swap5\n      pop\n      pop\n      pop\n      pop\n      jump(tag_101)\n        /* \"@openzeppelin/contracts/utils/cryptography/ECDSA.sol\":2259:2869  if (signature.length == 65) {... */\n    tag_102:\n        /* \"@openzeppelin/contracts/utils/cryptography/ECDSA.sol\":2818:2819  0 */\n      0x00\n        /* \"@openzeppelin/contracts/utils/cryptography/ECDSA.sol\":2822:2857  RecoverError.InvalidSignatureLength */\n      0x02\n        /* \"@openzeppelin/contracts/utils/cryptography/ECDSA.sol\":2802:2858  return (address(0), RecoverError.InvalidSignatureLength) */\n      swap2\n      pop\n      swap2\n      pop\n        /* \"@openzeppelin/contracts/utils/cryptography/ECDSA.sol\":2145:2875  function tryRecover(bytes32 hash, bytes memory signature) internal pure returns (address, RecoverError) {... */\n    tag_101:\n      swap3\n      pop\n      swap3\n      swap1\n      pop\n      jump\t// out\n        /* \"@openzeppelin/contracts/utils/cryptography/SignatureChecker.sol\":1786:2259  function isValidERC1271SignatureNow(... */\n    tag_93:\n        /* \"@openzeppelin/contracts/utils/cryptography/SignatureChecker.sol\":1929:1933  bool */\n      0x00\n        /* \"@openzeppelin/contracts/utils/cryptography/SignatureChecker.sol\":1946:1958  bool success */\n      dup1\n        /* \"@openzeppelin/contracts/utils/cryptography/SignatureChecker.sol\":1960:1979  bytes memory result */\n      0x00\n        /* \"@openzeppelin/contracts/utils/cryptography/SignatureChecker.sol\":1983:1989  signer */\n      dup6\n        /* \"@openzeppelin/contracts/utils/cryptography/SignatureChecker.sol\":1983:2000  signer.staticcall */\n      0xffffffffffffffffffffffffffffffffffffffff\n      and\n        /* \"@openzeppelin/contracts/utils/cryptography/SignatureChecker.sol\":2037:2071  IERC1271.isValidSignature.selector */\n      shl(0xe0, 0x1626ba7e)\n        /* \"@openzeppelin/contracts/utils/cryptography/SignatureChecker.sol\":2073:2077  hash */\n      dup7\n        /* \"@openzeppelin/contracts/utils/cryptography/SignatureChecker.sol\":2079:2088  signature */\n      dup7\n        /* \"@openzeppelin/contracts/utils/cryptography/SignatureChecker.sol\":2014:2089  abi.encodeWithSelector(IERC1271.isValidSignature.selector, hash, signature) */\n      add(0x24, mload(0x40))\n      tag_107\n      swap3\n      swap2\n      swap1\n      tag_108\n      jump\t// in\n    tag_107:\n      mload(0x40)\n      0x20\n      dup2\n      dup4\n      sub\n      sub\n      dup2\n      mstore\n      swap1\n      0x40\n      mstore\n      swap1\n      not(0xffffffffffffffffffffffffffffffffffffffffffffffffffffffff)\n      and\n      0x20\n      dup3\n      add\n      dup1\n      mload\n      0xffffffffffffffffffffffffffffffffffffffffffffffffffffffff\n      dup4\n      dup2\n      dup4\n      and\n      or\n      dup4\n      mstore\n      pop\n      pop\n      pop\n      pop\n        /* \"@openzeppelin/contracts/utils/cryptography/SignatureChecker.sol\":1983:2099  signer.staticcall(... */\n      mload(0x40)\n      tag_109\n      swap2\n      swap1\n      tag_110\n      jump\t// in\n    tag_109:\n      0x00\n      mload(0x40)\n      dup1\n      dup4\n      sub\n      dup2\n      dup6\n      gas\n      staticcall\n      swap2\n      pop\n      pop\n      returndatasize\n      dup1\n      0x00\n      dup2\n      eq\n      tag_113\n      jumpi\n      mload(0x40)\n      swap2\n      pop\n      and(add(returndatasize, 0x3f), not(0x1f))\n      dup3\n      add\n      0x40\n      mstore\n      returndatasize\n      dup3\n      mstore\n      returndatasize\n      0x00\n      0x20\n      dup5\n      add\n      returndatacopy\n      jump(tag_112)\n    tag_113:\n      0x60\n      swap2\n      pop\n    tag_112:\n      pop\n        /* \"@openzeppelin/contracts/utils/cryptography/SignatureChecker.sol\":1945:2099  (bool success, bytes memory result) = signer.staticcall(... */\n      swap2\n      pop\n      swap2\n      pop\n        /* \"@openzeppelin/contracts/utils/cryptography/SignatureChecker.sol\":2117:2124  success */\n      dup2\n        /* \"@openzeppelin/contracts/utils/cryptography/SignatureChecker.sol\":2117:2159  success &&... */\n      dup1\n      iszero\n      tag_114\n      jumpi\n      pop\n        /* \"@openzeppelin/contracts/utils/cryptography/SignatureChecker.sol\":2157:2159  32 */\n      0x20\n        /* \"@openzeppelin/contracts/utils/cryptography/SignatureChecker.sol\":2140:2146  result */\n      dup2\n        /* \"@openzeppelin/contracts/utils/cryptography/SignatureChecker.sol\":2140:2153  result.length */\n      mload\n        /* \"@openzeppelin/contracts/utils/cryptography/SignatureChecker.sol\":2140:2159  result.length >= 32 */\n      lt\n      iszero\n        /* \"@openzeppelin/contracts/utils/cryptography/SignatureChecker.sol\":2117:2159  success &&... */\n    tag_114:\n        /* \"@openzeppelin/contracts/utils/cryptography/SignatureChecker.sol\":2117:2251  success &&... */\n      dup1\n      iszero\n      tag_115\n      jumpi\n      pop\n        /* \"@openzeppelin/contracts/utils/cryptography/SignatureChecker.sol\":2216:2250  IERC1271.isValidSignature.selector */\n      shl(0xe0, 0x1626ba7e)\n        /* \"@openzeppelin/contracts/utils/cryptography/SignatureChecker.sol\":2208:2251  bytes32(IERC1271.isValidSignature.selector) */\n      not(0xffffffffffffffffffffffffffffffffffffffffffffffffffffffff)\n      and\n        /* \"@openzeppelin/contracts/utils/cryptography/SignatureChecker.sol\":2186:2192  result */\n      dup2\n        /* \"@openzeppelin/contracts/utils/cryptography/SignatureChecker.sol\":2175:2204  abi.decode(result, (bytes32)) */\n      dup1\n      0x20\n      add\n      swap1\n      mload\n      dup2\n      add\n      swap1\n      tag_116\n      swap2\n      swap1\n      tag_117\n      jump\t// in\n    tag_116:\n        /* \"@openzeppelin/contracts/utils/cryptography/SignatureChecker.sol\":2175:2251  abi.decode(result, (bytes32)) == bytes32(IERC1271.isValidSignature.selector) */\n      eq\n        /* \"@openzeppelin/contracts/utils/cryptography/SignatureChecker.sol\":2117:2251  success &&... */\n    tag_115:\n        /* \"@openzeppelin/contracts/utils/cryptography/SignatureChecker.sol\":2109:2252  return (success &&... */\n      swap3\n      pop\n      pop\n      pop\n        /* \"@openzeppelin/contracts/utils/cryptography/SignatureChecker.sol\":1786:2259  function isValidERC1271SignatureNow(... */\n      swap4\n      swap3\n      pop\n      pop\n      pop\n      jump\t// out\n        /* \"@openzeppelin/contracts/utils/cryptography/ECDSA.sol\":5009:6465  function tryRecover(bytes32 hash, uint8 v, bytes32 r, bytes32 s) internal pure returns (address, RecoverError) {... */\n    tag_104:\n        /* \"@openzeppelin/contracts/utils/cryptography/ECDSA.sol\":5097:5104  address */\n      0x00\n        /* \"@openzeppelin/contracts/utils/cryptography/ECDSA.sol\":5106:5118  RecoverError */\n      dup1\n        /* \"@openzeppelin/contracts/utils/cryptography/ECDSA.sol\":6021:6087  0x7FFFFFFFFFFFFFFFFFFFFFFFFFFFFFFF5D576E7357A4501DDFE92F46681B20A0 */\n      0x7fffffffffffffffffffffffffffffff5d576e7357a4501ddfe92f46681b20a0\n        /* \"@openzeppelin/contracts/utils/cryptography/ECDSA.sol\":6016:6017  s */\n      dup4\n        /* \"@openzeppelin/contracts/utils/cryptography/ECDSA.sol\":6008:6018  uint256(s) */\n      0x00\n      shr\n        /* \"@openzeppelin/contracts/utils/cryptography/ECDSA.sol\":6008:6087  uint256(s) > 0x7FFFFFFFFFFFFFFFFFFFFFFFFFFFFFFF5D576E7357A4501DDFE92F46681B20A0 */\n      gt\n        /* \"@openzeppelin/contracts/utils/cryptography/ECDSA.sol\":6004:6165  if (uint256(s) > 0x7FFFFFFFFFFFFFFFFFFFFFFFFFFFFFFF5D576E7357A4501DDFE92F46681B20A0) {... */\n      iszero\n      tag_119\n      jumpi\n        /* \"@openzeppelin/contracts/utils/cryptography/ECDSA.sol\":6119:6120  0 */\n      0x00\n        /* \"@openzeppelin/contracts/utils/cryptography/ECDSA.sol\":6123:6153  RecoverError.InvalidSignatureS */\n      0x03\n        /* \"@openzeppelin/contracts/utils/cryptography/ECDSA.sol\":6103:6154  return (address(0), RecoverError.InvalidSignatureS) */\n      swap2\n      pop\n      swap2\n      pop\n      jump(tag_118)\n        /* \"@openzeppelin/contracts/utils/cryptography/ECDSA.sol\":6004:6165  if (uint256(s) > 0x7FFFFFFFFFFFFFFFFFFFFFFFFFFFFFFF5D576E7357A4501DDFE92F46681B20A0) {... */\n    tag_119:\n        /* \"@openzeppelin/contracts/utils/cryptography/ECDSA.sol\":6259:6273  address signer */\n      0x00\n        /* \"@openzeppelin/contracts/utils/cryptography/ECDSA.sol\":6276:6300  ecrecover(hash, v, r, s) */\n      0x01\n        /* \"@openzeppelin/contracts/utils/cryptography/ECDSA.sol\":6286:6290  hash */\n      dup8\n        /* \"@openzeppelin/contracts/utils/cryptography/ECDSA.sol\":6292:6293  v */\n      dup8\n        /* \"@openzeppelin/contracts/utils/cryptography/ECDSA.sol\":6295:6296  r */\n      dup8\n        /* \"@openzeppelin/contracts/utils/cryptography/ECDSA.sol\":6298:6299  s */\n      dup8\n        /* \"@openzeppelin/contracts/utils/cryptography/ECDSA.sol\":6276:6300  ecrecover(hash, v, r, s) */\n      mload(0x40)\n      0x00\n      dup2\n      mstore\n      0x20\n      add\n      0x40\n      mstore\n      mload(0x40)\n      tag_120\n      swap5\n      swap4\n      swap3\n      swap2\n      swap1\n      tag_121\n      jump\t// in\n    tag_120:\n      0x20\n      mload(0x40)\n      0x20\n      dup2\n      sub\n      swap1\n      dup1\n      dup5\n      sub\n      swap1\n      dup6\n      gas\n      staticcall\n      iszero\n      dup1\n      iszero\n      tag_123\n      jumpi\n      returndatasize\n      0x00\n      dup1\n      returndatacopy\n      revert(0x00, returndatasize)\n    tag_123:\n      pop\n      pop\n      pop\n      mload(sub(mload(0x40), 0x20))\n        /* \"@openzeppelin/contracts/utils/cryptography/ECDSA.sol\":6259:6300  address signer = ecrecover(hash, v, r, s) */\n      swap1\n      pop\n        /* \"@openzeppelin/contracts/utils/cryptography/ECDSA.sol\":6332:6333  0 */\n      0x00\n        /* \"@openzeppelin/contracts/utils/cryptography/ECDSA.sol\":6314:6334  signer == address(0) */\n      0xffffffffffffffffffffffffffffffffffffffff\n      and\n        /* \"@openzeppelin/contracts/utils/cryptography/ECDSA.sol\":6314:6320  signer */\n      dup2\n        /* \"@openzeppelin/contracts/utils/cryptography/ECDSA.sol\":6314:6334  signer == address(0) */\n      0xffffffffffffffffffffffffffffffffffffffff\n      and\n      sub\n        /* \"@openzeppelin/contracts/utils/cryptography/ECDSA.sol\":6310:6411  if (signer == address(0)) {... */\n      tag_124\n      jumpi\n        /* \"@openzeppelin/contracts/utils/cryptography/ECDSA.sol\":6366:6367  0 */\n      0x00\n        /* \"@openzeppelin/contracts/utils/cryptography/ECDSA.sol\":6370:6399  RecoverError.InvalidSignature */\n      0x01\n        /* \"@openzeppelin/contracts/utils/cryptography/ECDSA.sol\":6350:6400  return (address(0), RecoverError.InvalidSignature) */\n      swap3\n      pop\n      swap3\n      pop\n      pop\n      jump(tag_118)\n        /* \"@openzeppelin/contracts/utils/cryptography/ECDSA.sol\":6310:6411  if (signer == address(0)) {... */\n    tag_124:\n        /* \"@openzeppelin/contracts/utils/cryptography/ECDSA.sol\":6429:6435  signer */\n      dup1\n        /* \"@openzeppelin/contracts/utils/cryptography/ECDSA.sol\":6437:6457  RecoverError.NoError */\n      0x00\n        /* \"@openzeppelin/contracts/utils/cryptography/ECDSA.sol\":6421:6458  return (signer, RecoverError.NoError) */\n      swap3\n      pop\n      swap3\n      pop\n      pop\n        /* \"@openzeppelin/contracts/utils/cryptography/ECDSA.sol\":5009:6465  function tryRecover(bytes32 hash, uint8 v, bytes32 r, bytes32 s) internal pure returns (address, RecoverError) {... */\n    tag_118:\n      swap5\n      pop\n      swap5\n      swap3\n      pop\n      pop\n      pop\n      jump\t// out\n        /* \"#utility.yul\":7:82   */\n    tag_125:\n        /* \"#utility.yul\":40:46   */\n      0x00\n        /* \"#utility.yul\":73:75   */\n      0x40\n        /* \"#utility.yul\":67:76   */\n      mload\n        /* \"#utility.yul\":57:76   */\n      swap1\n      pop\n        /* \"#utility.yul\":7:82   */\n      swap1\n      jump\t// out\n        /* \"#utility.yul\":88:205   */\n    tag_126:\n        /* \"#utility.yul\":197:198   */\n      0x00\n        /* \"#utility.yul\":194:195   */\n      dup1\n        /* \"#utility.yul\":187:199   */\n      revert\n        /* \"#utility.yul\":211:328   */\n    tag_127:\n        /* \"#utility.yul\":320:321   */\n      0x00\n        /* \"#utility.yul\":317:318   */\n      dup1\n        /* \"#utility.yul\":310:322   */\n      revert\n        /* \"#utility.yul\":334:483   */\n    tag_128:\n        /* \"#utility.yul\":370:377   */\n      0x00\n        /* \"#utility.yul\":410:476   */\n      0xffffffff00000000000000000000000000000000000000000000000000000000\n        /* \"#utility.yul\":403:408   */\n      dup3\n        /* \"#utility.yul\":399:477   */\n      and\n        /* \"#utility.yul\":388:477   */\n      swap1\n      pop\n        /* \"#utility.yul\":334:483   */\n      swap2\n      swap1\n      pop\n      jump\t// out\n        /* \"#utility.yul\":489:609   */\n    tag_129:\n        /* \"#utility.yul\":561:584   */\n      tag_185\n        /* \"#utility.yul\":578:583   */\n      dup2\n        /* \"#utility.yul\":561:584   */\n      tag_128\n      jump\t// in\n    tag_185:\n        /* \"#utility.yul\":554:559   */\n      dup2\n        /* \"#utility.yul\":551:585   */\n      eq\n        /* \"#utility.yul\":541:603   */\n      tag_186\n      jumpi\n        /* \"#utility.yul\":599:600   */\n      0x00\n        /* \"#utility.yul\":596:597   */\n      dup1\n        /* \"#utility.yul\":589:601   */\n      revert\n        /* \"#utility.yul\":541:603   */\n    tag_186:\n        /* \"#utility.yul\":489:609   */\n      pop\n      jump\t// out\n        /* \"#utility.yul\":615:752   */\n    tag_130:\n        /* \"#utility.yul\":660:665   */\n      0x00\n        /* \"#utility.yul\":698:704   */\n      dup2\n        /* \"#utility.yul\":685:705   */\n      calldataload\n        /* \"#utility.yul\":676:705   */\n      swap1\n      pop\n        /* \"#utility.yul\":714:746   */\n      tag_188\n        /* \"#utility.yul\":740:745   */\n      dup2\n        /* \"#utility.yul\":714:746   */\n      tag_129\n      jump\t// in\n    tag_188:\n        /* \"#utility.yul\":615:752   */\n      swap3\n      swap2\n      pop\n      pop\n      jump\t// out\n        /* \"#utility.yul\":758:1085   */\n    tag_14:\n        /* \"#utility.yul\":816:822   */\n      0x00\n        /* \"#utility.yul\":865:867   */\n      0x20\n        /* \"#utility.yul\":853:862   */\n      dup3\n        /* \"#utility.yul\":844:851   */\n      dup5\n        /* \"#utility.yul\":840:863   */\n      sub\n        /* \"#utility.yul\":836:868   */\n      slt\n        /* \"#utility.yul\":833:952   */\n      iszero\n      tag_190\n      jumpi\n        /* \"#utility.yul\":871:950   */\n      tag_191\n      tag_126\n      jump\t// in\n    tag_191:\n        /* \"#utility.yul\":833:952   */\n    tag_190:\n        /* \"#utility.yul\":991:992   */\n      0x00\n        /* \"#utility.yul\":1016:1068   */\n      tag_192\n        /* \"#utility.yul\":1060:1067   */\n      dup5\n        /* \"#utility.yul\":1051:1057   */\n      dup3\n        /* \"#utility.yul\":1040:1049   */\n      dup6\n        /* \"#utility.yul\":1036:1058   */\n      add\n        /* \"#utility.yul\":1016:1068   */\n      tag_130\n      jump\t// in\n    tag_192:\n        /* \"#utility.yul\":1006:1068   */\n      swap2\n      pop\n        /* \"#utility.yul\":962:1078   */\n      pop\n        /* \"#utility.yul\":758:1085   */\n      swap3\n      swap2\n      pop\n      pop\n      jump\t// out\n        /* \"#utility.yul\":1091:1181   */\n    tag_131:\n        /* \"#utility.yul\":1125:1132   */\n      0x00\n        /* \"#utility.yul\":1168:1173   */\n      dup2\n        /* \"#utility.yul\":1161:1174   */\n      iszero\n        /* \"#utility.yul\":1154:1175   */\n      iszero\n        /* \"#utility.yul\":1143:1175   */\n      swap1\n      pop\n        /* \"#utility.yul\":1091:1181   */\n      swap2\n      swap1\n      pop\n      jump\t// out\n        /* \"#utility.yul\":1187:1296   */\n    tag_132:\n        /* \"#utility.yul\":1268:1289   */\n      tag_195\n        /* \"#utility.yul\":1283:1288   */\n      dup2\n        /* \"#utility.yul\":1268:1289   */\n      tag_131\n      jump\t// in\n    tag_195:\n        /* \"#utility.yul\":1263:1266   */\n      dup3\n        /* \"#utility.yul\":1256:1290   */\n      mstore\n        /* \"#utility.yul\":1187:1296   */\n      pop\n      pop\n      jump\t// out\n        /* \"#utility.yul\":1302:1512   */\n    tag_17:\n        /* \"#utility.yul\":1389:1393   */\n      0x00\n        /* \"#utility.yul\":1427:1429   */\n      0x20\n        /* \"#utility.yul\":1416:1425   */\n      dup3\n        /* \"#utility.yul\":1412:1430   */\n      add\n        /* \"#utility.yul\":1404:1430   */\n      swap1\n      pop\n        /* \"#utility.yul\":1440:1505   */\n      tag_197\n        /* \"#utility.yul\":1502:1503   */\n      0x00\n        /* \"#utility.yul\":1491:1500   */\n      dup4\n        /* \"#utility.yul\":1487:1504   */\n      add\n        /* \"#utility.yul\":1478:1484   */\n      dup5\n        /* \"#utility.yul\":1440:1505   */\n      tag_132\n      jump\t// in\n    tag_197:\n        /* \"#utility.yul\":1302:1512   */\n      swap3\n      swap2\n      pop\n      pop\n      jump\t// out\n        /* \"#utility.yul\":1518:1595   */\n    tag_133:\n        /* \"#utility.yul\":1555:1562   */\n      0x00\n        /* \"#utility.yul\":1584:1589   */\n      dup2\n        /* \"#utility.yul\":1573:1589   */\n      swap1\n      pop\n        /* \"#utility.yul\":1518:1595   */\n      swap2\n      swap1\n      pop\n      jump\t// out\n        /* \"#utility.yul\":1601:1723   */\n    tag_134:\n        /* \"#utility.yul\":1674:1698   */\n      tag_200\n        /* \"#utility.yul\":1692:1697   */\n      dup2\n        /* \"#utility.yul\":1674:1698   */\n      tag_133\n      jump\t// in\n    tag_200:\n        /* \"#utility.yul\":1667:1672   */\n      dup2\n        /* \"#utility.yul\":1664:1699   */\n      eq\n        /* \"#utility.yul\":1654:1717   */\n      tag_201\n      jumpi\n        /* \"#utility.yul\":1713:1714   */\n      0x00\n        /* \"#utility.yul\":1710:1711   */\n      dup1\n        /* \"#utility.yul\":1703:1715   */\n      revert\n        /* \"#utility.yul\":1654:1717   */\n    tag_201:\n        /* \"#utility.yul\":1601:1723   */\n      pop\n      jump\t// out\n        /* \"#utility.yul\":1729:1868   */\n    tag_135:\n        /* \"#utility.yul\":1775:1780   */\n      0x00\n        /* \"#utility.yul\":1813:1819   */\n      dup2\n        /* \"#utility.yul\":1800:1820   */\n      calldataload\n        /* \"#utility.yul\":1791:1820   */\n      swap1\n      pop\n        /* \"#utility.yul\":1829:1862   */\n      tag_203\n        /* \"#utility.yul\":1856:1861   */\n      dup2\n        /* \"#utility.yul\":1829:1862   */\n      tag_134\n      jump\t// in\n    tag_203:\n        /* \"#utility.yul\":1729:1868   */\n      swap3\n      swap2\n      pop\n      pop\n      jump\t// out\n        /* \"#utility.yul\":1874:1991   */\n    tag_136:\n        /* \"#utility.yul\":1983:1984   */\n      0x00\n        /* \"#utility.yul\":1980:1981   */\n      dup1\n        /* \"#utility.yul\":1973:1985   */\n      revert\n        /* \"#utility.yul\":1997:2114   */\n    tag_137:\n        /* \"#utility.yul\":2106:2107   */\n      0x00\n        /* \"#utility.yul\":2103:2104   */\n      dup1\n        /* \"#utility.yul\":2096:2108   */\n      revert\n        /* \"#utility.yul\":2120:2222   */\n    tag_138:\n        /* \"#utility.yul\":2161:2167   */\n      0x00\n        /* \"#utility.yul\":2212:2214   */\n      0x1f\n        /* \"#utility.yul\":2208:2215   */\n      not\n        /* \"#utility.yul\":2203:2205   */\n      0x1f\n        /* \"#utility.yul\":2196:2201   */\n      dup4\n        /* \"#utility.yul\":2192:2206   */\n      add\n        /* \"#utility.yul\":2188:2216   */\n      and\n        /* \"#utility.yul\":2178:2216   */\n      swap1\n      pop\n        /* \"#utility.yul\":2120:2222   */\n      swap2\n      swap1\n      pop\n      jump\t// out\n        /* \"#utility.yul\":2228:2408   */\n    tag_97:\n        /* \"#utility.yul\":2276:2353   */\n      0x4e487b7100000000000000000000000000000000000000000000000000000000\n        /* \"#utility.yul\":2273:2274   */\n      0x00\n        /* \"#utility.yul\":2266:2354   */\n      mstore\n        /* \"#utility.yul\":2373:2377   */\n      0x41\n        /* \"#utility.yul\":2370:2371   */\n      0x04\n        /* \"#utility.yul\":2363:2378   */\n      mstore\n        /* \"#utility.yul\":2397:2401   */\n      0x24\n        /* \"#utility.yul\":2394:2395   */\n      0x00\n        /* \"#utility.yul\":2387:2402   */\n      revert\n        /* \"#utility.yul\":2414:2695   */\n    tag_139:\n        /* \"#utility.yul\":2497:2524   */\n      tag_209\n        /* \"#utility.yul\":2519:2523   */\n      dup3\n        /* \"#utility.yul\":2497:2524   */\n      tag_138\n      jump\t// in\n    tag_209:\n        /* \"#utility.yul\":2489:2495   */\n      dup2\n        /* \"#utility.yul\":2485:2525   */\n      add\n        /* \"#utility.yul\":2627:2633   */\n      dup2\n        /* \"#utility.yul\":2615:2625   */\n      dup2\n        /* \"#utility.yul\":2612:2634   */\n      lt\n        /* \"#utility.yul\":2591:2609   */\n      0xffffffffffffffff\n        /* \"#utility.yul\":2579:2589   */\n      dup3\n        /* \"#utility.yul\":2576:2610   */\n      gt\n        /* \"#utility.yul\":2573:2635   */\n      or\n        /* \"#utility.yul\":2570:2658   */\n      iszero\n      tag_210\n      jumpi\n        /* \"#utility.yul\":2638:2656   */\n      tag_211\n      tag_97\n      jump\t// in\n    tag_211:\n        /* \"#utility.yul\":2570:2658   */\n    tag_210:\n        /* \"#utility.yul\":2678:2688   */\n      dup1\n        /* \"#utility.yul\":2674:2676   */\n      0x40\n        /* \"#utility.yul\":2667:2689   */\n      mstore\n        /* \"#utility.yul\":2457:2695   */\n      pop\n        /* \"#utility.yul\":2414:2695   */\n      pop\n      pop\n      jump\t// out\n        /* \"#utility.yul\":2701:2830   */\n    tag_140:\n        /* \"#utility.yul\":2735:2741   */\n      0x00\n        /* \"#utility.yul\":2762:2782   */\n      tag_213\n      tag_125\n      jump\t// in\n    tag_213:\n        /* \"#utility.yul\":2752:2782   */\n      swap1\n      pop\n        /* \"#utility.yul\":2791:2824   */\n      tag_214\n        /* \"#utility.yul\":2819:2823   */\n      dup3\n        /* \"#utility.yul\":2811:2817   */\n      dup3\n        /* \"#utility.yul\":2791:2824   */\n      tag_139\n      jump\t// in\n    tag_214:\n        /* \"#utility.yul\":2701:2830   */\n      swap2\n      swap1\n      pop\n      jump\t// out\n        /* \"#utility.yul\":2836:3143   */\n    tag_141:\n        /* \"#utility.yul\":2897:2901   */\n      0x00\n        /* \"#utility.yul\":2987:3005   */\n      0xffffffffffffffff\n        /* \"#utility.yul\":2979:2985   */\n      dup3\n        /* \"#utility.yul\":2976:3006   */\n      gt\n        /* \"#utility.yul\":2973:3029   */\n      iszero\n      tag_216\n      jumpi\n        /* \"#utility.yul\":3009:3027   */\n      tag_217\n      tag_97\n      jump\t// in\n    tag_217:\n        /* \"#utility.yul\":2973:3029   */\n    tag_216:\n        /* \"#utility.yul\":3047:3076   */\n      tag_218\n        /* \"#utility.yul\":3069:3075   */\n      dup3\n        /* \"#utility.yul\":3047:3076   */\n      tag_138\n      jump\t// in\n    tag_218:\n        /* \"#utility.yul\":3039:3076   */\n      swap1\n      pop\n        /* \"#utility.yul\":3131:3135   */\n      0x20\n        /* \"#utility.yul\":3125:3129   */\n      dup2\n        /* \"#utility.yul\":3121:3136   */\n      add\n        /* \"#utility.yul\":3113:3136   */\n      swap1\n      pop\n        /* \"#utility.yul\":2836:3143   */\n      swap2\n      swap1\n      pop\n      jump\t// out\n        /* \"#utility.yul\":3149:3295   */\n    tag_142:\n        /* \"#utility.yul\":3246:3252   */\n      dup3\n        /* \"#utility.yul\":3241:3244   */\n      dup2\n        /* \"#utility.yul\":3236:3239   */\n      dup4\n        /* \"#utility.yul\":3223:3253   */\n      calldatacopy\n        /* \"#utility.yul\":3287:3288   */\n      0x00\n        /* \"#utility.yul\":3278:3284   */\n      dup4\n        /* \"#utility.yul\":3273:3276   */\n      dup4\n        /* \"#utility.yul\":3269:3285   */\n      add\n        /* \"#utility.yul\":3262:3289   */\n      mstore\n        /* \"#utility.yul\":3149:3295   */\n      pop\n      pop\n      pop\n      jump\t// out\n        /* \"#utility.yul\":3301:3724   */\n    tag_143:\n        /* \"#utility.yul\":3378:3383   */\n      0x00\n        /* \"#utility.yul\":3403:3468   */\n      tag_221\n        /* \"#utility.yul\":3419:3467   */\n      tag_222\n        /* \"#utility.yul\":3460:3466   */\n      dup5\n        /* \"#utility.yul\":3419:3467   */\n      tag_141\n      jump\t// in\n    tag_222:\n        /* \"#utility.yul\":3403:3468   */\n      tag_140\n      jump\t// in\n    tag_221:\n        /* \"#utility.yul\":3394:3468   */\n      swap1\n      pop\n        /* \"#utility.yul\":3491:3497   */\n      dup3\n        /* \"#utility.yul\":3484:3489   */\n      dup2\n        /* \"#utility.yul\":3477:3498   */\n      mstore\n        /* \"#utility.yul\":3529:3533   */\n      0x20\n        /* \"#utility.yul\":3522:3527   */\n      dup2\n        /* \"#utility.yul\":3518:3534   */\n      add\n        /* \"#utility.yul\":3567:3570   */\n      dup5\n        /* \"#utility.yul\":3558:3564   */\n      dup5\n        /* \"#utility.yul\":3553:3556   */\n      dup5\n        /* \"#utility.yul\":3549:3565   */\n      add\n        /* \"#utility.yul\":3546:3571   */\n      gt\n        /* \"#utility.yul\":3543:3655   */\n      iszero\n      tag_223\n      jumpi\n        /* \"#utility.yul\":3574:3653   */\n      tag_224\n      tag_137\n      jump\t// in\n    tag_224:\n        /* \"#utility.yul\":3543:3655   */\n    tag_223:\n        /* \"#utility.yul\":3664:3718   */\n      tag_225\n        /* \"#utility.yul\":3711:3717   */\n      dup5\n        /* \"#utility.yul\":3706:3709   */\n      dup3\n        /* \"#utility.yul\":3701:3704   */\n      dup6\n        /* \"#utility.yul\":3664:3718   */\n      tag_142\n      jump\t// in\n    tag_225:\n        /* \"#utility.yul\":3384:3724   */\n      pop\n        /* \"#utility.yul\":3301:3724   */\n      swap4\n      swap3\n      pop\n      pop\n      pop\n      jump\t// out\n        /* \"#utility.yul\":3743:4081   */\n    tag_144:\n        /* \"#utility.yul\":3798:3803   */\n      0x00\n        /* \"#utility.yul\":3847:3850   */\n      dup3\n        /* \"#utility.yul\":3840:3844   */\n      0x1f\n        /* \"#utility.yul\":3832:3838   */\n      dup4\n        /* \"#utility.yul\":3828:3845   */\n      add\n        /* \"#utility.yul\":3824:3851   */\n      slt\n        /* \"#utility.yul\":3814:3936   */\n      tag_227\n      jumpi\n        /* \"#utility.yul\":3855:3934   */\n      tag_228\n      tag_136\n      jump\t// in\n    tag_228:\n        /* \"#utility.yul\":3814:3936   */\n    tag_227:\n        /* \"#utility.yul\":3972:3978   */\n      dup2\n        /* \"#utility.yul\":3959:3979   */\n      calldataload\n        /* \"#utility.yul\":3997:4075   */\n      tag_229\n        /* \"#utility.yul\":4071:4074   */\n      dup5\n        /* \"#utility.yul\":4063:4069   */\n      dup3\n        /* \"#utility.yul\":4056:4060   */\n      0x20\n        /* \"#utility.yul\":4048:4054   */\n      dup7\n        /* \"#utility.yul\":4044:4061   */\n      add\n        /* \"#utility.yul\":3997:4075   */\n      tag_143\n      jump\t// in\n    tag_229:\n        /* \"#utility.yul\":3988:4075   */\n      swap2\n      pop\n        /* \"#utility.yul\":3804:4081   */\n      pop\n        /* \"#utility.yul\":3743:4081   */\n      swap3\n      swap2\n      pop\n      pop\n      jump\t// out\n        /* \"#utility.yul\":4087:4739   */\n    tag_21:\n        /* \"#utility.yul\":4164:4170   */\n      0x00\n        /* \"#utility.yul\":4172:4178   */\n      dup1\n        /* \"#utility.yul\":4221:4223   */\n      0x40\n        /* \"#utility.yul\":4209:4218   */\n      dup4\n        /* \"#utility.yul\":4200:4207   */\n      dup6\n        /* \"#utility.yul\":4196:4219   */\n      sub\n        /* \"#utility.yul\":4192:4224   */\n      slt\n        /* \"#utility.yul\":4189:4308   */\n      iszero\n      tag_231\n      jumpi\n        /* \"#utility.yul\":4227:4306   */\n      tag_232\n      tag_126\n      jump\t// in\n    tag_232:\n        /* \"#utility.yul\":4189:4308   */\n    tag_231:\n        /* \"#utility.yul\":4347:4348   */\n      0x00\n        /* \"#utility.yul\":4372:4425   */\n      tag_233\n        /* \"#utility.yul\":4417:4424   */\n      dup6\n        /* \"#utility.yul\":4408:4414   */\n      dup3\n        /* \"#utility.yul\":4397:4406   */\n      dup7\n        /* \"#utility.yul\":4393:4415   */\n      add\n        /* \"#utility.yul\":4372:4425   */\n      tag_135\n      jump\t// in\n    tag_233:\n        /* \"#utility.yul\":4362:4425   */\n      swap3\n      pop\n        /* \"#utility.yul\":4318:4435   */\n      pop\n        /* \"#utility.yul\":4502:4504   */\n      0x20\n        /* \"#utility.yul\":4491:4500   */\n      dup4\n        /* \"#utility.yul\":4487:4505   */\n      add\n        /* \"#utility.yul\":4474:4506   */\n      calldataload\n        /* \"#utility.yul\":4533:4551   */\n      0xffffffffffffffff\n        /* \"#utility.yul\":4525:4531   */\n      dup2\n        /* \"#utility.yul\":4522:4552   */\n      gt\n        /* \"#utility.yul\":4519:4636   */\n      iszero\n      tag_234\n      jumpi\n        /* \"#utility.yul\":4555:4634   */\n      tag_235\n      tag_127\n      jump\t// in\n    tag_235:\n        /* \"#utility.yul\":4519:4636   */\n    tag_234:\n        /* \"#utility.yul\":4660:4722   */\n      tag_236\n        /* \"#utility.yul\":4714:4721   */\n      dup6\n        /* \"#utility.yul\":4705:4711   */\n      dup3\n        /* \"#utility.yul\":4694:4703   */\n      dup7\n        /* \"#utility.yul\":4690:4712   */\n      add\n        /* \"#utility.yul\":4660:4722   */\n      tag_144\n      jump\t// in\n    tag_236:\n        /* \"#utility.yul\":4650:4722   */\n      swap2\n      pop\n        /* \"#utility.yul\":4445:4732   */\n      pop\n        /* \"#utility.yul\":4087:4739   */\n      swap3\n      pop\n      swap3\n      swap1\n      pop\n      jump\t// out\n        /* \"#utility.yul\":4745:4860   */\n    tag_145:\n        /* \"#utility.yul\":4830:4853   */\n      tag_238\n        /* \"#utility.yul\":4847:4852   */\n      dup2\n        /* \"#utility.yul\":4830:4853   */\n      tag_128\n      jump\t// in\n    tag_238:\n        /* \"#utility.yul\":4825:4828   */\n      dup3\n        /* \"#utility.yul\":4818:4854   */\n      mstore\n        /* \"#utility.yul\":4745:4860   */\n      pop\n      pop\n      jump\t// out\n        /* \"#utility.yul\":4866:5084   */\n    tag_24:\n        /* \"#utility.yul\":4957:4961   */\n      0x00\n        /* \"#utility.yul\":4995:4997   */\n      0x20\n        /* \"#utility.yul\":4984:4993   */\n      dup3\n        /* \"#utility.yul\":4980:4998   */\n      add\n        /* \"#utility.yul\":4972:4998   */\n      swap1\n      pop\n        /* \"#utility.yul\":5008:5077   */\n      tag_240\n        /* \"#utility.yul\":5074:5075   */\n      0x00\n        /* \"#utility.yul\":5063:5072   */\n      dup4\n        /* \"#utility.yul\":5059:5076   */\n      add\n        /* \"#utility.yul\":5050:5056   */\n      dup5\n        /* \"#utility.yul\":5008:5077   */\n      tag_145\n      jump\t// in\n    tag_240:\n        /* \"#utility.yul\":4866:5084   */\n      swap3\n      swap2\n      pop\n      pop\n      jump\t// out\n        /* \"#utility.yul\":5090:5216   */\n    tag_146:\n        /* \"#utility.yul\":5127:5134   */\n      0x00\n        /* \"#utility.yul\":5167:5209   */\n      0xffffffffffffffffffffffffffffffffffffffff\n        /* \"#utility.yul\":5160:5165   */\n      dup3\n        /* \"#utility.yul\":5156:5210   */\n      and\n        /* \"#utility.yul\":5145:5210   */\n      swap1\n      pop\n        /* \"#utility.yul\":5090:5216   */\n      swap2\n      swap1\n      pop\n      jump\t// out\n        /* \"#utility.yul\":5222:5318   */\n    tag_147:\n        /* \"#utility.yul\":5259:5266   */\n      0x00\n        /* \"#utility.yul\":5288:5312   */\n      tag_243\n        /* \"#utility.yul\":5306:5311   */\n      dup3\n        /* \"#utility.yul\":5288:5312   */\n      tag_146\n      jump\t// in\n    tag_243:\n        /* \"#utility.yul\":5277:5312   */\n      swap1\n      pop\n        /* \"#utility.yul\":5222:5318   */\n      swap2\n      swap1\n      pop\n      jump\t// out\n        /* \"#utility.yul\":5324:5442   */\n    tag_148:\n        /* \"#utility.yul\":5411:5435   */\n      tag_245\n        /* \"#utility.yul\":5429:5434   */\n      dup2\n        /* \"#utility.yul\":5411:5435   */\n      tag_147\n      jump\t// in\n    tag_245:\n        /* \"#utility.yul\":5406:5409   */\n      dup3\n        /* \"#utility.yul\":5399:5436   */\n      mstore\n        /* \"#utility.yul\":5324:5442   */\n      pop\n      pop\n      jump\t// out\n        /* \"#utility.yul\":5448:5670   */\n    tag_29:\n        /* \"#utility.yul\":5541:5545   */\n      0x00\n        /* \"#utility.yul\":5579:5581   */\n      0x20\n        /* \"#utility.yul\":5568:5577   */\n      dup3\n        /* \"#utility.yul\":5564:5582   */\n      add\n        /* \"#utility.yul\":5556:5582   */\n      swap1\n      pop\n        /* \"#utility.yul\":5592:5663   */\n      tag_247\n        /* \"#utility.yul\":5660:5661   */\n      0x00\n        /* \"#utility.yul\":5649:5658   */\n      dup4\n        /* \"#utility.yul\":5645:5662   */\n      add\n        /* \"#utility.yul\":5636:5642   */\n      dup5\n        /* \"#utility.yul\":5592:5663   */\n      tag_148\n      jump\t// in\n    tag_247:\n        /* \"#utility.yul\":5448:5670   */\n      swap3\n      swap2\n      pop\n      pop\n      jump\t// out\n        /* \"#utility.yul\":5676:5798   */\n    tag_149:\n        /* \"#utility.yul\":5749:5773   */\n      tag_249\n        /* \"#utility.yul\":5767:5772   */\n      dup2\n        /* \"#utility.yul\":5749:5773   */\n      tag_147\n      jump\t// in\n    tag_249:\n        /* \"#utility.yul\":5742:5747   */\n      dup2\n        /* \"#utility.yul\":5739:5774   */\n      eq\n        /* \"#utility.yul\":5729:5792   */\n      tag_250\n      jumpi\n        /* \"#utility.yul\":5788:5789   */\n      0x00\n        /* \"#utility.yul\":5785:5786   */\n      dup1\n        /* \"#utility.yul\":5778:5790   */\n      revert\n        /* \"#utility.yul\":5729:5792   */\n    tag_250:\n        /* \"#utility.yul\":5676:5798   */\n      pop\n      jump\t// out\n        /* \"#utility.yul\":5804:5943   */\n    tag_150:\n        /* \"#utility.yul\":5850:5855   */\n      0x00\n        /* \"#utility.yul\":5888:5894   */\n      dup2\n        /* \"#utility.yul\":5875:5895   */\n      calldataload\n        /* \"#utility.yul\":5866:5895   */\n      swap1\n      pop\n        /* \"#utility.yul\":5904:5937   */\n      tag_252\n        /* \"#utility.yul\":5931:5936   */\n      dup2\n        /* \"#utility.yul\":5904:5937   */\n      tag_149\n      jump\t// in\n    tag_252:\n        /* \"#utility.yul\":5804:5943   */\n      swap3\n      swap2\n      pop\n      pop\n      jump\t// out\n        /* \"#utility.yul\":5949:6026   */\n    tag_151:\n        /* \"#utility.yul\":5986:5993   */\n      0x00\n        /* \"#utility.yul\":6015:6020   */\n      dup2\n        /* \"#utility.yul\":6004:6020   */\n      swap1\n      pop\n        /* \"#utility.yul\":5949:6026   */\n      swap2\n      swap1\n      pop\n      jump\t// out\n        /* \"#utility.yul\":6032:6154   */\n    tag_152:\n        /* \"#utility.yul\":6105:6129   */\n      tag_255\n        /* \"#utility.yul\":6123:6128   */\n      dup2\n        /* \"#utility.yul\":6105:6129   */\n      tag_151\n      jump\t// in\n    tag_255:\n        /* \"#utility.yul\":6098:6103   */\n      dup2\n        /* \"#utility.yul\":6095:6130   */\n      eq\n        /* \"#utility.yul\":6085:6148   */\n      tag_256\n      jumpi\n        /* \"#utility.yul\":6144:6145   */\n      0x00\n        /* \"#utility.yul\":6141:6142   */\n      dup1\n        /* \"#utility.yul\":6134:6146   */\n      revert\n        /* \"#utility.yul\":6085:6148   */\n    tag_256:\n        /* \"#utility.yul\":6032:6154   */\n      pop\n      jump\t// out\n        /* \"#utility.yul\":6160:6299   */\n    tag_153:\n        /* \"#utility.yul\":6206:6211   */\n      0x00\n        /* \"#utility.yul\":6244:6250   */\n      dup2\n        /* \"#utility.yul\":6231:6251   */\n      calldataload\n        /* \"#utility.yul\":6222:6251   */\n      swap1\n      pop\n        /* \"#utility.yul\":6260:6293   */\n      tag_258\n        /* \"#utility.yul\":6287:6292   */\n      dup2\n        /* \"#utility.yul\":6260:6293   */\n      tag_152\n      jump\t// in\n    tag_258:\n        /* \"#utility.yul\":6160:6299   */\n      swap3\n      swap2\n      pop\n      pop\n      jump\t// out\n        /* \"#utility.yul\":6305:6422   */\n    tag_154:\n        /* \"#utility.yul\":6414:6415   */\n      0x00\n        /* \"#utility.yul\":6411:6412   */\n      dup1\n        /* \"#utility.yul\":6404:6416   */\n      revert\n        /* \"#utility.yul\":6428:6545   */\n    tag_155:\n        /* \"#utility.yul\":6537:6538   */\n      0x00\n        /* \"#utility.yul\":6534:6535   */\n      dup1\n        /* \"#utility.yul\":6527:6539   */\n      revert\n        /* \"#utility.yul\":6564:7116   */\n    tag_156:\n        /* \"#utility.yul\":6621:6629   */\n      0x00\n        /* \"#utility.yul\":6631:6637   */\n      dup1\n        /* \"#utility.yul\":6681:6684   */\n      dup4\n        /* \"#utility.yul\":6674:6678   */\n      0x1f\n        /* \"#utility.yul\":6666:6672   */\n      dup5\n        /* \"#utility.yul\":6662:6679   */\n      add\n        /* \"#utility.yul\":6658:6685   */\n      slt\n        /* \"#utility.yul\":6648:6770   */\n      tag_262\n      jumpi\n        /* \"#utility.yul\":6689:6768   */\n      tag_263\n      tag_136\n      jump\t// in\n    tag_263:\n        /* \"#utility.yul\":6648:6770   */\n    tag_262:\n        /* \"#utility.yul\":6802:6808   */\n      dup3\n        /* \"#utility.yul\":6789:6809   */\n      calldataload\n        /* \"#utility.yul\":6779:6809   */\n      swap1\n      pop\n        /* \"#utility.yul\":6832:6850   */\n      0xffffffffffffffff\n        /* \"#utility.yul\":6824:6830   */\n      dup2\n        /* \"#utility.yul\":6821:6851   */\n      gt\n        /* \"#utility.yul\":6818:6935   */\n      iszero\n      tag_264\n      jumpi\n        /* \"#utility.yul\":6854:6933   */\n      tag_265\n      tag_154\n      jump\t// in\n    tag_265:\n        /* \"#utility.yul\":6818:6935   */\n    tag_264:\n        /* \"#utility.yul\":6968:6972   */\n      0x20\n        /* \"#utility.yul\":6960:6966   */\n      dup4\n        /* \"#utility.yul\":6956:6973   */\n      add\n        /* \"#utility.yul\":6944:6973   */\n      swap2\n      pop\n        /* \"#utility.yul\":7022:7025   */\n      dup4\n        /* \"#utility.yul\":7014:7018   */\n      0x01\n        /* \"#utility.yul\":7006:7012   */\n      dup3\n        /* \"#utility.yul\":7002:7019   */\n      mul\n        /* \"#utility.yul\":6992:7000   */\n      dup4\n        /* \"#utility.yul\":6988:7020   */\n      add\n        /* \"#utility.yul\":6985:7026   */\n      gt\n        /* \"#utility.yul\":6982:7110   */\n      iszero\n      tag_266\n      jumpi\n        /* \"#utility.yul\":7029:7108   */\n      tag_267\n      tag_155\n      jump\t// in\n    tag_267:\n        /* \"#utility.yul\":6982:7110   */\n    tag_266:\n        /* \"#utility.yul\":6564:7116   */\n      swap3\n      pop\n      swap3\n      swap1\n      pop\n      jump\t// out\n        /* \"#utility.yul\":7122:7939   */\n    tag_32:\n        /* \"#utility.yul\":7210:7216   */\n      0x00\n        /* \"#utility.yul\":7218:7224   */\n      dup1\n        /* \"#utility.yul\":7226:7232   */\n      0x00\n        /* \"#utility.yul\":7234:7240   */\n      dup1\n        /* \"#utility.yul\":7283:7285   */\n      0x60\n        /* \"#utility.yul\":7271:7280   */\n      dup6\n        /* \"#utility.yul\":7262:7269   */\n      dup8\n        /* \"#utility.yul\":7258:7281   */\n      sub\n        /* \"#utility.yul\":7254:7286   */\n      slt\n        /* \"#utility.yul\":7251:7370   */\n      iszero\n      tag_269\n      jumpi\n        /* \"#utility.yul\":7289:7368   */\n      tag_270\n      tag_126\n      jump\t// in\n    tag_270:\n        /* \"#utility.yul\":7251:7370   */\n    tag_269:\n        /* \"#utility.yul\":7409:7410   */\n      0x00\n        /* \"#utility.yul\":7434:7487   */\n      tag_271\n        /* \"#utility.yul\":7479:7486   */\n      dup8\n        /* \"#utility.yul\":7470:7476   */\n      dup3\n        /* \"#utility.yul\":7459:7468   */\n      dup9\n        /* \"#utility.yul\":7455:7477   */\n      add\n        /* \"#utility.yul\":7434:7487   */\n      tag_150\n      jump\t// in\n    tag_271:\n        /* \"#utility.yul\":7424:7487   */\n      swap5\n      pop\n        /* \"#utility.yul\":7380:7497   */\n      pop\n        /* \"#utility.yul\":7536:7538   */\n      0x20\n        /* \"#utility.yul\":7562:7615   */\n      tag_272\n        /* \"#utility.yul\":7607:7614   */\n      dup8\n        /* \"#utility.yul\":7598:7604   */\n      dup3\n        /* \"#utility.yul\":7587:7596   */\n      dup9\n        /* \"#utility.yul\":7583:7605   */\n      add\n        /* \"#utility.yul\":7562:7615   */\n      tag_153\n      jump\t// in\n    tag_272:\n        /* \"#utility.yul\":7552:7615   */\n      swap4\n      pop\n        /* \"#utility.yul\":7507:7625   */\n      pop\n        /* \"#utility.yul\":7692:7694   */\n      0x40\n        /* \"#utility.yul\":7681:7690   */\n      dup6\n        /* \"#utility.yul\":7677:7695   */\n      add\n        /* \"#utility.yul\":7664:7696   */\n      calldataload\n        /* \"#utility.yul\":7723:7741   */\n      0xffffffffffffffff\n        /* \"#utility.yul\":7715:7721   */\n      dup2\n        /* \"#utility.yul\":7712:7742   */\n      gt\n        /* \"#utility.yul\":7709:7826   */\n      iszero\n      tag_273\n      jumpi\n        /* \"#utility.yul\":7745:7824   */\n      tag_274\n      tag_127\n      jump\t// in\n    tag_274:\n        /* \"#utility.yul\":7709:7826   */\n    tag_273:\n        /* \"#utility.yul\":7858:7922   */\n      tag_275\n        /* \"#utility.yul\":7914:7921   */\n      dup8\n        /* \"#utility.yul\":7905:7911   */\n      dup3\n        /* \"#utility.yul\":7894:7903   */\n      dup9\n        /* \"#utility.yul\":7890:7912   */\n      add\n        /* \"#utility.yul\":7858:7922   */\n      tag_156\n      jump\t// in\n    tag_275:\n        /* \"#utility.yul\":7840:7922   */\n      swap3\n      pop\n      swap3\n      pop\n        /* \"#utility.yul\":7635:7932   */\n      pop\n        /* \"#utility.yul\":7122:7939   */\n      swap3\n      swap6\n      swap2\n      swap5\n      pop\n      swap3\n      pop\n      jump\t// out\n        /* \"#utility.yul\":7945:8043   */\n    tag_157:\n        /* \"#utility.yul\":7996:8002   */\n      0x00\n        /* \"#utility.yul\":8030:8035   */\n      dup2\n        /* \"#utility.yul\":8024:8036   */\n      mload\n        /* \"#utility.yul\":8014:8036   */\n      swap1\n      pop\n        /* \"#utility.yul\":7945:8043   */\n      swap2\n      swap1\n      pop\n      jump\t// out\n        /* \"#utility.yul\":8049:8217   */\n    tag_158:\n        /* \"#utility.yul\":8132:8143   */\n      0x00\n        /* \"#utility.yul\":8166:8172   */\n      dup3\n        /* \"#utility.yul\":8161:8164   */\n      dup3\n        /* \"#utility.yul\":8154:8173   */\n      mstore\n        /* \"#utility.yul\":8206:8210   */\n      0x20\n        /* \"#utility.yul\":8201:8204   */\n      dup3\n        /* \"#utility.yul\":8197:8211   */\n      add\n        /* \"#utility.yul\":8182:8211   */\n      swap1\n      pop\n        /* \"#utility.yul\":8049:8217   */\n      swap3\n      swap2\n      pop\n      pop\n      jump\t// out\n        /* \"#utility.yul\":8223:8469   */\n    tag_159:\n        /* \"#utility.yul\":8304:8305   */\n      0x00\n        /* \"#utility.yul\":8314:8427   */\n    tag_279:\n        /* \"#utility.yul\":8328:8334   */\n      dup4\n        /* \"#utility.yul\":8325:8326   */\n      dup2\n        /* \"#utility.yul\":8322:8335   */\n      lt\n        /* \"#utility.yul\":8314:8427   */\n      iszero\n      tag_281\n      jumpi\n        /* \"#utility.yul\":8413:8414   */\n      dup1\n        /* \"#utility.yul\":8408:8411   */\n      dup3\n        /* \"#utility.yul\":8404:8415   */\n      add\n        /* \"#utility.yul\":8398:8416   */\n      mload\n        /* \"#utility.yul\":8394:8395   */\n      dup2\n        /* \"#utility.yul\":8389:8392   */\n      dup5\n        /* \"#utility.yul\":8385:8396   */\n      add\n        /* \"#utility.yul\":8378:8417   */\n      mstore\n        /* \"#utility.yul\":8350:8352   */\n      0x20\n        /* \"#utility.yul\":8347:8348   */\n      dup2\n        /* \"#utility.yul\":8343:8353   */\n      add\n        /* \"#utility.yul\":8338:8353   */\n      swap1\n      pop\n        /* \"#utility.yul\":8314:8427   */\n      jump(tag_279)\n    tag_281:\n        /* \"#utility.yul\":8461:8462   */\n      0x00\n        /* \"#utility.yul\":8452:8458   */\n      dup5\n        /* \"#utility.yul\":8447:8450   */\n      dup5\n        /* \"#utility.yul\":8443:8459   */\n      add\n        /* \"#utility.yul\":8436:8463   */\n      mstore\n        /* \"#utility.yul\":8285:8469   */\n      pop\n        /* \"#utility.yul\":8223:8469   */\n      pop\n      pop\n      pop\n      jump\t// out\n        /* \"#utility.yul\":8475:8848   */\n    tag_160:\n        /* \"#utility.yul\":8561:8564   */\n      0x00\n        /* \"#utility.yul\":8589:8627   */\n      tag_283\n        /* \"#utility.yul\":8621:8626   */\n      dup3\n        /* \"#utility.yul\":8589:8627   */\n      tag_157\n      jump\t// in\n    tag_283:\n        /* \"#utility.yul\":8643:8713   */\n      tag_284\n        /* \"#utility.yul\":8706:8712   */\n      dup2\n        /* \"#utility.yul\":8701:8704   */\n      dup6\n        /* \"#utility.yul\":8643:8713   */\n      tag_158\n      jump\t// in\n    tag_284:\n        /* \"#utility.yul\":8636:8713   */\n      swap4\n      pop\n        /* \"#utility.yul\":8722:8787   */\n      tag_285\n        /* \"#utility.yul\":8780:8786   */\n      dup2\n        /* \"#utility.yul\":8775:8778   */\n      dup6\n        /* \"#utility.yul\":8768:8772   */\n      0x20\n        /* \"#utility.yul\":8761:8766   */\n      dup7\n        /* \"#utility.yul\":8757:8773   */\n      add\n        /* \"#utility.yul\":8722:8787   */\n      tag_159\n      jump\t// in\n    tag_285:\n        /* \"#utility.yul\":8812:8841   */\n      tag_286\n        /* \"#utility.yul\":8834:8840   */\n      dup2\n        /* \"#utility.yul\":8812:8841   */\n      tag_138\n      jump\t// in\n    tag_286:\n        /* \"#utility.yul\":8807:8810   */\n      dup5\n        /* \"#utility.yul\":8803:8842   */\n      add\n        /* \"#utility.yul\":8796:8842   */\n      swap2\n      pop\n        /* \"#utility.yul\":8565:8848   */\n      pop\n        /* \"#utility.yul\":8475:8848   */\n      swap3\n      swap2\n      pop\n      pop\n      jump\t// out\n        /* \"#utility.yul\":8854:9163   */\n    tag_35:\n        /* \"#utility.yul\":8965:8969   */\n      0x00\n        /* \"#utility.yul\":9003:9005   */\n      0x20\n        /* \"#utility.yul\":8992:9001   */\n      dup3\n        /* \"#utility.yul\":8988:9006   */\n      add\n        /* \"#utility.yul\":8980:9006   */\n      swap1\n      pop\n        /* \"#utility.yul\":9052:9061   */\n      dup2\n        /* \"#utility.yul\":9046:9050   */\n      dup2\n        /* \"#utility.yul\":9042:9062   */\n      sub\n        /* \"#utility.yul\":9038:9039   */\n      0x00\n        /* \"#utility.yul\":9027:9036   */\n      dup4\n        /* \"#utility.yul\":9023:9040   */\n      add\n        /* \"#utility.yul\":9016:9063   */\n      mstore\n        /* \"#utility.yul\":9080:9156   */\n      tag_288\n        /* \"#utility.yul\":9151:9155   */\n      dup2\n        /* \"#utility.yul\":9142:9148   */\n      dup5\n        /* \"#utility.yul\":9080:9156   */\n      tag_160\n      jump\t// in\n    tag_288:\n        /* \"#utility.yul\":9072:9156   */\n      swap1\n      pop\n        /* \"#utility.yul\":8854:9163   */\n      swap3\n      swap2\n      pop\n      pop\n      jump\t// out\n        /* \"#utility.yul\":9169:9287   */\n    tag_161:\n        /* \"#utility.yul\":9256:9280   */\n      tag_290\n        /* \"#utility.yul\":9274:9279   */\n      dup2\n        /* \"#utility.yul\":9256:9280   */\n      tag_151\n      jump\t// in\n    tag_290:\n        /* \"#utility.yul\":9251:9254   */\n      dup3\n        /* \"#utility.yul\":9244:9281   */\n      mstore\n        /* \"#utility.yul\":9169:9287   */\n      pop\n      pop\n      jump\t// out\n        /* \"#utility.yul\":9293:9515   */\n    tag_40:\n        /* \"#utility.yul\":9386:9390   */\n      0x00\n        /* \"#utility.yul\":9424:9426   */\n      0x20\n        /* \"#utility.yul\":9413:9422   */\n      dup3\n        /* \"#utility.yul\":9409:9427   */\n      add\n        /* \"#utility.yul\":9401:9427   */\n      swap1\n      pop\n        /* \"#utility.yul\":9437:9508   */\n      tag_292\n        /* \"#utility.yul\":9505:9506   */\n      0x00\n        /* \"#utility.yul\":9494:9503   */\n      dup4\n        /* \"#utility.yul\":9490:9507   */\n      add\n        /* \"#utility.yul\":9481:9487   */\n      dup5\n        /* \"#utility.yul\":9437:9508   */\n      tag_161\n      jump\t// in\n    tag_292:\n        /* \"#utility.yul\":9293:9515   */\n      swap3\n      swap2\n      pop\n      pop\n      jump\t// out\n        /* \"#utility.yul\":9521:9963   */\n    tag_45:\n        /* \"#utility.yul\":9670:9674   */\n      0x00\n        /* \"#utility.yul\":9708:9710   */\n      0x60\n        /* \"#utility.yul\":9697:9706   */\n      dup3\n        /* \"#utility.yul\":9693:9711   */\n      add\n        /* \"#utility.yul\":9685:9711   */\n      swap1\n      pop\n        /* \"#utility.yul\":9721:9792   */\n      tag_294\n        /* \"#utility.yul\":9789:9790   */\n      0x00\n        /* \"#utility.yul\":9778:9787   */\n      dup4\n        /* \"#utility.yul\":9774:9791   */\n      add\n        /* \"#utility.yul\":9765:9771   */\n      dup7\n        /* \"#utility.yul\":9721:9792   */\n      tag_161\n      jump\t// in\n    tag_294:\n        /* \"#utility.yul\":9802:9874   */\n      tag_295\n        /* \"#utility.yul\":9870:9872   */\n      0x20\n        /* \"#utility.yul\":9859:9868   */\n      dup4\n        /* \"#utility.yul\":9855:9873   */\n      add\n        /* \"#utility.yul\":9846:9852   */\n      dup6\n        /* \"#utility.yul\":9802:9874   */\n      tag_148\n      jump\t// in\n    tag_295:\n        /* \"#utility.yul\":9884:9956   */\n      tag_296\n        /* \"#utility.yul\":9952:9954   */\n      0x40\n        /* \"#utility.yul\":9941:9950   */\n      dup4\n        /* \"#utility.yul\":9937:9955   */\n      add\n        /* \"#utility.yul\":9928:9934   */\n      dup5\n        /* \"#utility.yul\":9884:9956   */\n      tag_161\n      jump\t// in\n    tag_296:\n        /* \"#utility.yul\":9521:9963   */\n      swap5\n      swap4\n      pop\n      pop\n      pop\n      pop\n      jump\t// out\n        /* \"#utility.yul\":9969:10112   */\n    tag_162:\n        /* \"#utility.yul\":10026:10031   */\n      0x00\n        /* \"#utility.yul\":10057:10063   */\n      dup2\n        /* \"#utility.yul\":10051:10064   */\n      mload\n        /* \"#utility.yul\":10042:10064   */\n      swap1\n      pop\n        /* \"#utility.yul\":10073:10106   */\n      tag_298\n        /* \"#utility.yul\":10100:10105   */\n      dup2\n        /* \"#utility.yul\":10073:10106   */\n      tag_152\n      jump\t// in\n    tag_298:\n        /* \"#utility.yul\":9969:10112   */\n      swap3\n      swap2\n      pop\n      pop\n      jump\t// out\n        /* \"#utility.yul\":10118:10261   */\n    tag_163:\n        /* \"#utility.yul\":10175:10180   */\n      0x00\n        /* \"#utility.yul\":10206:10212   */\n      dup2\n        /* \"#utility.yul\":10200:10213   */\n      mload\n        /* \"#utility.yul\":10191:10213   */\n      swap1\n      pop\n        /* \"#utility.yul\":10222:10255   */\n      tag_300\n        /* \"#utility.yul\":10249:10254   */\n      dup2\n        /* \"#utility.yul\":10222:10255   */\n      tag_149\n      jump\t// in\n    tag_300:\n        /* \"#utility.yul\":10118:10261   */\n      swap3\n      swap2\n      pop\n      pop\n      jump\t// out\n        /* \"#utility.yul\":10267:10930   */\n    tag_57:\n        /* \"#utility.yul\":10355:10361   */\n      0x00\n        /* \"#utility.yul\":10363:10369   */\n      dup1\n        /* \"#utility.yul\":10371:10377   */\n      0x00\n        /* \"#utility.yul\":10420:10422   */\n      0x60\n        /* \"#utility.yul\":10408:10417   */\n      dup5\n        /* \"#utility.yul\":10399:10406   */\n      dup7\n        /* \"#utility.yul\":10395:10418   */\n      sub\n        /* \"#utility.yul\":10391:10423   */\n      slt\n        /* \"#utility.yul\":10388:10507   */\n      iszero\n      tag_302\n      jumpi\n        /* \"#utility.yul\":10426:10505   */\n      tag_303\n      tag_126\n      jump\t// in\n    tag_303:\n        /* \"#utility.yul\":10388:10507   */\n    tag_302:\n        /* \"#utility.yul\":10546:10547   */\n      0x00\n        /* \"#utility.yul\":10571:10635   */\n      tag_304\n        /* \"#utility.yul\":10627:10634   */\n      dup7\n        /* \"#utility.yul\":10618:10624   */\n      dup3\n        /* \"#utility.yul\":10607:10616   */\n      dup8\n        /* \"#utility.yul\":10603:10625   */\n      add\n        /* \"#utility.yul\":10571:10635   */\n      tag_162\n      jump\t// in\n    tag_304:\n        /* \"#utility.yul\":10561:10635   */\n      swap4\n      pop\n        /* \"#utility.yul\":10517:10645   */\n      pop\n        /* \"#utility.yul\":10684:10686   */\n      0x20\n        /* \"#utility.yul\":10710:10774   */\n      tag_305\n        /* \"#utility.yul\":10766:10773   */\n      dup7\n        /* \"#utility.yul\":10757:10763   */\n      dup3\n        /* \"#utility.yul\":10746:10755   */\n      dup8\n        /* \"#utility.yul\":10742:10764   */\n      add\n        /* \"#utility.yul\":10710:10774   */\n      tag_163\n      jump\t// in\n    tag_305:\n        /* \"#utility.yul\":10700:10774   */\n      swap3\n      pop\n        /* \"#utility.yul\":10655:10784   */\n      pop\n        /* \"#utility.yul\":10823:10825   */\n      0x40\n        /* \"#utility.yul\":10849:10913   */\n      tag_306\n        /* \"#utility.yul\":10905:10912   */\n      dup7\n        /* \"#utility.yul\":10896:10902   */\n      dup3\n        /* \"#utility.yul\":10885:10894   */\n      dup8\n        /* \"#utility.yul\":10881:10903   */\n      add\n        /* \"#utility.yul\":10849:10913   */\n      tag_162\n      jump\t// in\n    tag_306:\n        /* \"#utility.yul\":10839:10913   */\n      swap2\n      pop\n        /* \"#utility.yul\":10794:10923   */\n      pop\n        /* \"#utility.yul\":10267:10930   */\n      swap3\n      pop\n      swap3\n      pop\n      swap3\n      jump\t// out\n        /* \"#utility.yul\":10936:11287   */\n    tag_63:\n        /* \"#utility.yul\":11006:11012   */\n      0x00\n        /* \"#utility.yul\":11055:11057   */\n      0x20\n        /* \"#utility.yul\":11043:11052   */\n      dup3\n        /* \"#utility.yul\":11034:11041   */\n      dup5\n        /* \"#utility.yul\":11030:11053   */\n      sub\n        /* \"#utility.yul\":11026:11058   */\n      slt\n        /* \"#utility.yul\":11023:11142   */\n      iszero\n      tag_308\n      jumpi\n        /* \"#utility.yul\":11061:11140   */\n      tag_309\n      tag_126\n      jump\t// in\n    tag_309:\n        /* \"#utility.yul\":11023:11142   */\n    tag_308:\n        /* \"#utility.yul\":11181:11182   */\n      0x00\n        /* \"#utility.yul\":11206:11270   */\n      tag_310\n        /* \"#utility.yul\":11262:11269   */\n      dup5\n        /* \"#utility.yul\":11253:11259   */\n      dup3\n        /* \"#utility.yul\":11242:11251   */\n      dup6\n        /* \"#utility.yul\":11238:11260   */\n      add\n        /* \"#utility.yul\":11206:11270   */\n      tag_163\n      jump\t// in\n    tag_310:\n        /* \"#utility.yul\":11196:11270   */\n      swap2\n      pop\n        /* \"#utility.yul\":11152:11280   */\n      pop\n        /* \"#utility.yul\":10936:11287   */\n      swap3\n      swap2\n      pop\n      pop\n      jump\t// out\n        /* \"#utility.yul\":11293:11462   */\n    tag_164:\n        /* \"#utility.yul\":11377:11388   */\n      0x00\n        /* \"#utility.yul\":11411:11417   */\n      dup3\n        /* \"#utility.yul\":11406:11409   */\n      dup3\n        /* \"#utility.yul\":11399:11418   */\n      mstore\n        /* \"#utility.yul\":11451:11455   */\n      0x20\n        /* \"#utility.yul\":11446:11449   */\n      dup3\n        /* \"#utility.yul\":11442:11456   */\n      add\n        /* \"#utility.yul\":11427:11456   */\n      swap1\n      pop\n        /* \"#utility.yul\":11293:11462   */\n      swap3\n      swap2\n      pop\n      pop\n      jump\t// out\n        /* \"#utility.yul\":11468:11636   */\n    tag_165:\n        /* \"#utility.yul\":11608:11628   */\n      0x596f7572206e6f7420746865206f776e65720000000000000000000000000000\n        /* \"#utility.yul\":11604:11605   */\n      0x00\n        /* \"#utility.yul\":11596:11602   */\n      dup3\n        /* \"#utility.yul\":11592:11606   */\n      add\n        /* \"#utility.yul\":11585:11629   */\n      mstore\n        /* \"#utility.yul\":11468:11636   */\n      pop\n      jump\t// out\n        /* \"#utility.yul\":11642:12008   */\n    tag_166:\n        /* \"#utility.yul\":11784:11787   */\n      0x00\n        /* \"#utility.yul\":11805:11872   */\n      tag_314\n        /* \"#utility.yul\":11869:11871   */\n      0x12\n        /* \"#utility.yul\":11864:11867   */\n      dup4\n        /* \"#utility.yul\":11805:11872   */\n      tag_164\n      jump\t// in\n    tag_314:\n        /* \"#utility.yul\":11798:11872   */\n      swap2\n      pop\n        /* \"#utility.yul\":11881:11974   */\n      tag_315\n        /* \"#utility.yul\":11970:11973   */\n      dup3\n        /* \"#utility.yul\":11881:11974   */\n      tag_165\n      jump\t// in\n    tag_315:\n        /* \"#utility.yul\":11999:12001   */\n      0x20\n        /* \"#utility.yul\":11994:11997   */\n      dup3\n        /* \"#utility.yul\":11990:12002   */\n      add\n        /* \"#utility.yul\":11983:12002   */\n      swap1\n      pop\n        /* \"#utility.yul\":11642:12008   */\n      swap2\n      swap1\n      pop\n      jump\t// out\n        /* \"#utility.yul\":12014:12433   */\n    tag_68:\n        /* \"#utility.yul\":12180:12184   */\n      0x00\n        /* \"#utility.yul\":12218:12220   */\n      0x20\n        /* \"#utility.yul\":12207:12216   */\n      dup3\n        /* \"#utility.yul\":12203:12221   */\n      add\n        /* \"#utility.yul\":12195:12221   */\n      swap1\n      pop\n        /* \"#utility.yul\":12267:12276   */\n      dup2\n        /* \"#utility.yul\":12261:12265   */\n      dup2\n        /* \"#utility.yul\":12257:12277   */\n      sub\n        /* \"#utility.yul\":12253:12254   */\n      0x00\n        /* \"#utility.yul\":12242:12251   */\n      dup4\n        /* \"#utility.yul\":12238:12255   */\n      add\n        /* \"#utility.yul\":12231:12278   */\n      mstore\n        /* \"#utility.yul\":12295:12426   */\n      tag_317\n        /* \"#utility.yul\":12421:12425   */\n      dup2\n        /* \"#utility.yul\":12295:12426   */\n      tag_166\n      jump\t// in\n    tag_317:\n        /* \"#utility.yul\":12287:12426   */\n      swap1\n      pop\n        /* \"#utility.yul\":12014:12433   */\n      swap2\n      swap1\n      pop\n      jump\t// out\n        /* \"#utility.yul\":12439:12619   */\n    tag_167:\n        /* \"#utility.yul\":12487:12564   */\n      0x4e487b7100000000000000000000000000000000000000000000000000000000\n        /* \"#utility.yul\":12484:12485   */\n      0x00\n        /* \"#utility.yul\":12477:12565   */\n      mstore\n        /* \"#utility.yul\":12584:12588   */\n      0x11\n        /* \"#utility.yul\":12581:12582   */\n      0x04\n        /* \"#utility.yul\":12574:12589   */\n      mstore\n        /* \"#utility.yul\":12608:12612   */\n      0x24\n        /* \"#utility.yul\":12605:12606   */\n      0x00\n        /* \"#utility.yul\":12598:12613   */\n      revert\n        /* \"#utility.yul\":12625:12858   */\n    tag_70:\n        /* \"#utility.yul\":12664:12667   */\n      0x00\n        /* \"#utility.yul\":12687:12711   */\n      tag_320\n        /* \"#utility.yul\":12705:12710   */\n      dup3\n        /* \"#utility.yul\":12687:12711   */\n      tag_151\n      jump\t// in\n    tag_320:\n        /* \"#utility.yul\":12678:12711   */\n      swap2\n      pop\n        /* \"#utility.yul\":12733:12799   */\n      0xffffffffffffffffffffffffffffffffffffffffffffffffffffffffffffffff\n        /* \"#utility.yul\":12726:12731   */\n      dup3\n        /* \"#utility.yul\":12723:12800   */\n      sub\n        /* \"#utility.yul\":12720:12823   */\n      tag_321\n      jumpi\n        /* \"#utility.yul\":12803:12821   */\n      tag_322\n      tag_167\n      jump\t// in\n    tag_322:\n        /* \"#utility.yul\":12720:12823   */\n    tag_321:\n        /* \"#utility.yul\":12850:12851   */\n      0x01\n        /* \"#utility.yul\":12843:12848   */\n      dup3\n        /* \"#utility.yul\":12839:12852   */\n      add\n        /* \"#utility.yul\":12832:12852   */\n      swap1\n      pop\n        /* \"#utility.yul\":12625:12858   */\n      swap2\n      swap1\n      pop\n      jump\t// out\n        /* \"#utility.yul\":12886:13200   */\n    tag_168:\n        /* \"#utility.yul\":12982:12985   */\n      0x00\n        /* \"#utility.yul\":13003:13073   */\n      tag_324\n        /* \"#utility.yul\":13066:13072   */\n      dup4\n        /* \"#utility.yul\":13061:13064   */\n      dup6\n        /* \"#utility.yul\":13003:13073   */\n      tag_158\n      jump\t// in\n    tag_324:\n        /* \"#utility.yul\":12996:13073   */\n      swap4\n      pop\n        /* \"#utility.yul\":13083:13139   */\n      tag_325\n        /* \"#utility.yul\":13132:13138   */\n      dup4\n        /* \"#utility.yul\":13127:13130   */\n      dup6\n        /* \"#utility.yul\":13120:13125   */\n      dup5\n        /* \"#utility.yul\":13083:13139   */\n      tag_142\n      jump\t// in\n    tag_325:\n        /* \"#utility.yul\":13164:13193   */\n      tag_326\n        /* \"#utility.yul\":13186:13192   */\n      dup4\n        /* \"#utility.yul\":13164:13193   */\n      tag_138\n      jump\t// in\n    tag_326:\n        /* \"#utility.yul\":13159:13162   */\n      dup5\n        /* \"#utility.yul\":13155:13194   */\n      add\n        /* \"#utility.yul\":13148:13194   */\n      swap1\n      pop\n        /* \"#utility.yul\":12886:13200   */\n      swap4\n      swap3\n      pop\n      pop\n      pop\n      jump\t// out\n        /* \"#utility.yul\":13206:13535   */\n    tag_72:\n        /* \"#utility.yul\":13327:13331   */\n      0x00\n        /* \"#utility.yul\":13365:13367   */\n      0x20\n        /* \"#utility.yul\":13354:13363   */\n      dup3\n        /* \"#utility.yul\":13350:13368   */\n      add\n        /* \"#utility.yul\":13342:13368   */\n      swap1\n      pop\n        /* \"#utility.yul\":13414:13423   */\n      dup2\n        /* \"#utility.yul\":13408:13412   */\n      dup2\n        /* \"#utility.yul\":13404:13424   */\n      sub\n        /* \"#utility.yul\":13400:13401   */\n      0x00\n        /* \"#utility.yul\":13389:13398   */\n      dup4\n        /* \"#utility.yul\":13385:13402   */\n      add\n        /* \"#utility.yul\":13378:13425   */\n      mstore\n        /* \"#utility.yul\":13442:13528   */\n      tag_328\n        /* \"#utility.yul\":13523:13527   */\n      dup2\n        /* \"#utility.yul\":13514:13520   */\n      dup5\n        /* \"#utility.yul\":13506:13512   */\n      dup7\n        /* \"#utility.yul\":13442:13528   */\n      tag_168\n      jump\t// in\n    tag_328:\n        /* \"#utility.yul\":13434:13528   */\n      swap1\n      pop\n        /* \"#utility.yul\":13206:13535   */\n      swap4\n      swap3\n      pop\n      pop\n      pop\n      jump\t// out\n        /* \"#utility.yul\":13541:13688   */\n    tag_169:\n        /* \"#utility.yul\":13642:13653   */\n      0x00\n        /* \"#utility.yul\":13679:13682   */\n      dup2\n        /* \"#utility.yul\":13664:13682   */\n      swap1\n      pop\n        /* \"#utility.yul\":13541:13688   */\n      swap3\n      swap2\n      pop\n      pop\n      jump\t// out\n        /* \"#utility.yul\":13716:14043   */\n    tag_170:\n        /* \"#utility.yul\":13830:13833   */\n      0x00\n        /* \"#utility.yul\":13851:13939   */\n      tag_331\n        /* \"#utility.yul\":13932:13938   */\n      dup4\n        /* \"#utility.yul\":13927:13930   */\n      dup6\n        /* \"#utility.yul\":13851:13939   */\n      tag_169\n      jump\t// in\n    tag_331:\n        /* \"#utility.yul\":13844:13939   */\n      swap4\n      pop\n        /* \"#utility.yul\":13949:14005   */\n      tag_332\n        /* \"#utility.yul\":13998:14004   */\n      dup4\n        /* \"#utility.yul\":13993:13996   */\n      dup6\n        /* \"#utility.yul\":13986:13991   */\n      dup5\n        /* \"#utility.yul\":13949:14005   */\n      tag_142\n      jump\t// in\n    tag_332:\n        /* \"#utility.yul\":14030:14036   */\n      dup3\n        /* \"#utility.yul\":14025:14028   */\n      dup5\n        /* \"#utility.yul\":14021:14037   */\n      add\n        /* \"#utility.yul\":14014:14037   */\n      swap1\n      pop\n        /* \"#utility.yul\":13716:14043   */\n      swap4\n      swap3\n      pop\n      pop\n      pop\n      jump\t// out\n        /* \"#utility.yul\":14049:14340   */\n    tag_74:\n        /* \"#utility.yul\":14189:14192   */\n      0x00\n        /* \"#utility.yul\":14211:14314   */\n      tag_334\n        /* \"#utility.yul\":14310:14313   */\n      dup3\n        /* \"#utility.yul\":14301:14307   */\n      dup5\n        /* \"#utility.yul\":14293:14299   */\n      dup7\n        /* \"#utility.yul\":14211:14314   */\n      tag_170\n      jump\t// in\n    tag_334:\n        /* \"#utility.yul\":14204:14314   */\n      swap2\n      pop\n        /* \"#utility.yul\":14331:14334   */\n      dup2\n        /* \"#utility.yul\":14324:14334   */\n      swap1\n      pop\n        /* \"#utility.yul\":14049:14340   */\n      swap4\n      swap3\n      pop\n      pop\n      pop\n      jump\t// out\n        /* \"#utility.yul\":14346:14526   */\n    tag_87:\n        /* \"#utility.yul\":14394:14471   */\n      0x4e487b7100000000000000000000000000000000000000000000000000000000\n        /* \"#utility.yul\":14391:14392   */\n      0x00\n        /* \"#utility.yul\":14384:14472   */\n      mstore\n        /* \"#utility.yul\":14491:14495   */\n      0x21\n        /* \"#utility.yul\":14488:14489   */\n      0x04\n        /* \"#utility.yul\":14481:14496   */\n      mstore\n        /* \"#utility.yul\":14515:14519   */\n      0x24\n        /* \"#utility.yul\":14512:14513   */\n      0x00\n        /* \"#utility.yul\":14505:14520   */\n      revert\n        /* \"#utility.yul\":14532:14636   */\n    tag_171:\n        /* \"#utility.yul\":14577:14584   */\n      0x00\n        /* \"#utility.yul\":14606:14630   */\n      tag_337\n        /* \"#utility.yul\":14624:14629   */\n      dup3\n        /* \"#utility.yul\":14606:14630   */\n      tag_146\n      jump\t// in\n    tag_337:\n        /* \"#utility.yul\":14595:14630   */\n      swap1\n      pop\n        /* \"#utility.yul\":14532:14636   */\n      swap2\n      swap1\n      pop\n      jump\t// out\n        /* \"#utility.yul\":14642:14780   */\n    tag_172:\n        /* \"#utility.yul\":14723:14755   */\n      tag_339\n        /* \"#utility.yul\":14749:14754   */\n      dup2\n        /* \"#utility.yul\":14723:14755   */\n      tag_171\n      jump\t// in\n    tag_339:\n        /* \"#utility.yul\":14716:14721   */\n      dup2\n        /* \"#utility.yul\":14713:14756   */\n      eq\n        /* \"#utility.yul\":14703:14774   */\n      tag_340\n      jumpi\n        /* \"#utility.yul\":14770:14771   */\n      0x00\n        /* \"#utility.yul\":14767:14768   */\n      dup1\n        /* \"#utility.yul\":14760:14772   */\n      revert\n        /* \"#utility.yul\":14703:14774   */\n    tag_340:\n        /* \"#utility.yul\":14642:14780   */\n      pop\n      jump\t// out\n        /* \"#utility.yul\":14786:14945   */\n    tag_173:\n        /* \"#utility.yul\":14851:14856   */\n      0x00\n        /* \"#utility.yul\":14882:14888   */\n      dup2\n        /* \"#utility.yul\":14876:14889   */\n      mload\n        /* \"#utility.yul\":14867:14889   */\n      swap1\n      pop\n        /* \"#utility.yul\":14898:14939   */\n      tag_342\n        /* \"#utility.yul\":14933:14938   */\n      dup2\n        /* \"#utility.yul\":14898:14939   */\n      tag_172\n      jump\t// in\n    tag_342:\n        /* \"#utility.yul\":14786:14945   */\n      swap3\n      swap2\n      pop\n      pop\n      jump\t// out\n        /* \"#utility.yul\":14951:15630   */\n    tag_100:\n        /* \"#utility.yul\":15047:15053   */\n      0x00\n        /* \"#utility.yul\":15055:15061   */\n      dup1\n        /* \"#utility.yul\":15063:15069   */\n      0x00\n        /* \"#utility.yul\":15112:15114   */\n      0x60\n        /* \"#utility.yul\":15100:15109   */\n      dup5\n        /* \"#utility.yul\":15091:15098   */\n      dup7\n        /* \"#utility.yul\":15087:15110   */\n      sub\n        /* \"#utility.yul\":15083:15115   */\n      slt\n        /* \"#utility.yul\":15080:15199   */\n      iszero\n      tag_344\n      jumpi\n        /* \"#utility.yul\":15118:15197   */\n      tag_345\n      tag_126\n      jump\t// in\n    tag_345:\n        /* \"#utility.yul\":15080:15199   */\n    tag_344:\n        /* \"#utility.yul\":15238:15239   */\n      0x00\n        /* \"#utility.yul\":15263:15327   */\n      tag_346\n        /* \"#utility.yul\":15319:15326   */\n      dup7\n        /* \"#utility.yul\":15310:15316   */\n      dup3\n        /* \"#utility.yul\":15299:15308   */\n      dup8\n        /* \"#utility.yul\":15295:15317   */\n      add\n        /* \"#utility.yul\":15263:15327   */\n      tag_162\n      jump\t// in\n    tag_346:\n        /* \"#utility.yul\":15253:15327   */\n      swap4\n      pop\n        /* \"#utility.yul\":15209:15337   */\n      pop\n        /* \"#utility.yul\":15376:15378   */\n      0x20\n        /* \"#utility.yul\":15402:15474   */\n      tag_347\n        /* \"#utility.yul\":15466:15473   */\n      dup7\n        /* \"#utility.yul\":15457:15463   */\n      dup3\n        /* \"#utility.yul\":15446:15455   */\n      dup8\n        /* \"#utility.yul\":15442:15464   */\n      add\n        /* \"#utility.yul\":15402:15474   */\n      tag_173\n      jump\t// in\n    tag_347:\n        /* \"#utility.yul\":15392:15474   */\n      swap3\n      pop\n        /* \"#utility.yul\":15347:15484   */\n      pop\n        /* \"#utility.yul\":15523:15525   */\n      0x40\n        /* \"#utility.yul\":15549:15613   */\n      tag_348\n        /* \"#utility.yul\":15605:15612   */\n      dup7\n        /* \"#utility.yul\":15596:15602   */\n      dup3\n        /* \"#utility.yul\":15585:15594   */\n      dup8\n        /* \"#utility.yul\":15581:15603   */\n      add\n        /* \"#utility.yul\":15549:15613   */\n      tag_162\n      jump\t// in\n    tag_348:\n        /* \"#utility.yul\":15539:15613   */\n      swap2\n      pop\n        /* \"#utility.yul\":15494:15623   */\n      pop\n        /* \"#utility.yul\":14951:15630   */\n      swap3\n      pop\n      swap3\n      pop\n      swap3\n      jump\t// out\n        /* \"#utility.yul\":15636:15754   */\n    tag_174:\n        /* \"#utility.yul\":15723:15747   */\n      tag_350\n        /* \"#utility.yul\":15741:15746   */\n      dup2\n        /* \"#utility.yul\":15723:15747   */\n      tag_133\n      jump\t// in\n    tag_350:\n        /* \"#utility.yul\":15718:15721   */\n      dup3\n        /* \"#utility.yul\":15711:15748   */\n      mstore\n        /* \"#utility.yul\":15636:15754   */\n      pop\n      pop\n      jump\t// out\n        /* \"#utility.yul\":15760:16179   */\n    tag_108:\n        /* \"#utility.yul\":15899:15903   */\n      0x00\n        /* \"#utility.yul\":15937:15939   */\n      0x40\n        /* \"#utility.yul\":15926:15935   */\n      dup3\n        /* \"#utility.yul\":15922:15940   */\n      add\n        /* \"#utility.yul\":15914:15940   */\n      swap1\n      pop\n        /* \"#utility.yul\":15950:16021   */\n      tag_352\n        /* \"#utility.yul\":16018:16019   */\n      0x00\n        /* \"#utility.yul\":16007:16016   */\n      dup4\n        /* \"#utility.yul\":16003:16020   */\n      add\n        /* \"#utility.yul\":15994:16000   */\n      dup6\n        /* \"#utility.yul\":15950:16021   */\n      tag_174\n      jump\t// in\n    tag_352:\n        /* \"#utility.yul\":16068:16077   */\n      dup2\n        /* \"#utility.yul\":16062:16066   */\n      dup2\n        /* \"#utility.yul\":16058:16078   */\n      sub\n        /* \"#utility.yul\":16053:16055   */\n      0x20\n        /* \"#utility.yul\":16042:16051   */\n      dup4\n        /* \"#utility.yul\":16038:16056   */\n      add\n        /* \"#utility.yul\":16031:16079   */\n      mstore\n        /* \"#utility.yul\":16096:16172   */\n      tag_353\n        /* \"#utility.yul\":16167:16171   */\n      dup2\n        /* \"#utility.yul\":16158:16164   */\n      dup5\n        /* \"#utility.yul\":16096:16172   */\n      tag_160\n      jump\t// in\n    tag_353:\n        /* \"#utility.yul\":16088:16172   */\n      swap1\n      pop\n        /* \"#utility.yul\":15760:16179   */\n      swap4\n      swap3\n      pop\n      pop\n      pop\n      jump\t// out\n        /* \"#utility.yul\":16185:16571   */\n    tag_175:\n        /* \"#utility.yul\":16289:16292   */\n      0x00\n        /* \"#utility.yul\":16317:16355   */\n      tag_355\n        /* \"#utility.yul\":16349:16354   */\n      dup3\n        /* \"#utility.yul\":16317:16355   */\n      tag_157\n      jump\t// in\n    tag_355:\n        /* \"#utility.yul\":16371:16459   */\n      tag_356\n        /* \"#utility.yul\":16452:16458   */\n      dup2\n        /* \"#utility.yul\":16447:16450   */\n      dup6\n        /* \"#utility.yul\":16371:16459   */\n      tag_169\n      jump\t// in\n    tag_356:\n        /* \"#utility.yul\":16364:16459   */\n      swap4\n      pop\n        /* \"#utility.yul\":16468:16533   */\n      tag_357\n        /* \"#utility.yul\":16526:16532   */\n      dup2\n        /* \"#utility.yul\":16521:16524   */\n      dup6\n        /* \"#utility.yul\":16514:16518   */\n      0x20\n        /* \"#utility.yul\":16507:16512   */\n      dup7\n        /* \"#utility.yul\":16503:16519   */\n      add\n        /* \"#utility.yul\":16468:16533   */\n      tag_159\n      jump\t// in\n    tag_357:\n        /* \"#utility.yul\":16558:16564   */\n      dup1\n        /* \"#utility.yul\":16553:16556   */\n      dup5\n        /* \"#utility.yul\":16549:16565   */\n      add\n        /* \"#utility.yul\":16542:16565   */\n      swap2\n      pop\n        /* \"#utility.yul\":16293:16571   */\n      pop\n        /* \"#utility.yul\":16185:16571   */\n      swap3\n      swap2\n      pop\n      pop\n      jump\t// out\n        /* \"#utility.yul\":16577:16848   */\n    tag_110:\n        /* \"#utility.yul\":16707:16710   */\n      0x00\n        /* \"#utility.yul\":16729:16822   */\n      tag_359\n        /* \"#utility.yul\":16818:16821   */\n      dup3\n        /* \"#utility.yul\":16809:16815   */\n      dup5\n        /* \"#utility.yul\":16729:16822   */\n      tag_175\n      jump\t// in\n    tag_359:\n        /* \"#utility.yul\":16722:16822   */\n      swap2\n      pop\n        /* \"#utility.yul\":16839:16842   */\n      dup2\n        /* \"#utility.yul\":16832:16842   */\n      swap1\n      pop\n        /* \"#utility.yul\":16577:16848   */\n      swap3\n      swap2\n      pop\n      pop\n      jump\t// out\n        /* \"#utility.yul\":16854:16997   */\n    tag_176:\n        /* \"#utility.yul\":16911:16916   */\n      0x00\n        /* \"#utility.yul\":16942:16948   */\n      dup2\n        /* \"#utility.yul\":16936:16949   */\n      mload\n        /* \"#utility.yul\":16927:16949   */\n      swap1\n      pop\n        /* \"#utility.yul\":16958:16991   */\n      tag_361\n        /* \"#utility.yul\":16985:16990   */\n      dup2\n        /* \"#utility.yul\":16958:16991   */\n      tag_134\n      jump\t// in\n    tag_361:\n        /* \"#utility.yul\":16854:16997   */\n      swap3\n      swap2\n      pop\n      pop\n      jump\t// out\n        /* \"#utility.yul\":17003:17354   */\n    tag_117:\n        /* \"#utility.yul\":17073:17079   */\n      0x00\n        /* \"#utility.yul\":17122:17124   */\n      0x20\n        /* \"#utility.yul\":17110:17119   */\n      dup3\n        /* \"#utility.yul\":17101:17108   */\n      dup5\n        /* \"#utility.yul\":17097:17120   */\n      sub\n        /* \"#utility.yul\":17093:17125   */\n      slt\n        /* \"#utility.yul\":17090:17209   */\n      iszero\n      tag_363\n      jumpi\n        /* \"#utility.yul\":17128:17207   */\n      tag_364\n      tag_126\n      jump\t// in\n    tag_364:\n        /* \"#utility.yul\":17090:17209   */\n    tag_363:\n        /* \"#utility.yul\":17248:17249   */\n      0x00\n        /* \"#utility.yul\":17273:17337   */\n      tag_365\n        /* \"#utility.yul\":17329:17336   */\n      dup5\n        /* \"#utility.yul\":17320:17326   */\n      dup3\n        /* \"#utility.yul\":17309:17318   */\n      dup6\n        /* \"#utility.yul\":17305:17327   */\n      add\n        /* \"#utility.yul\":17273:17337   */\n      tag_176\n      jump\t// in\n    tag_365:\n        /* \"#utility.yul\":17263:17337   */\n      swap2\n      pop\n        /* \"#utility.yul\":17219:17347   */\n      pop\n        /* \"#utility.yul\":17003:17354   */\n      swap3\n      swap2\n      pop\n      pop\n      jump\t// out\n        /* \"#utility.yul\":17360:17446   */\n    tag_177:\n        /* \"#utility.yul\":17395:17402   */\n      0x00\n        /* \"#utility.yul\":17435:17439   */\n      0xff\n        /* \"#utility.yul\":17428:17433   */\n      dup3\n        /* \"#utility.yul\":17424:17440   */\n      and\n        /* \"#utility.yul\":17413:17440   */\n      swap1\n      pop\n        /* \"#utility.yul\":17360:17446   */\n      swap2\n      swap1\n      pop\n      jump\t// out\n        /* \"#utility.yul\":17452:17564   */\n    tag_178:\n        /* \"#utility.yul\":17535:17557   */\n      tag_368\n        /* \"#utility.yul\":17551:17556   */\n      dup2\n        /* \"#utility.yul\":17535:17557   */\n      tag_177\n      jump\t// in\n    tag_368:\n        /* \"#utility.yul\":17530:17533   */\n      dup3\n        /* \"#utility.yul\":17523:17558   */\n      mstore\n        /* \"#utility.yul\":17452:17564   */\n      pop\n      pop\n      jump\t// out\n        /* \"#utility.yul\":17570:18115   */\n    tag_121:\n        /* \"#utility.yul\":17743:17747   */\n      0x00\n        /* \"#utility.yul\":17781:17784   */\n      0x80\n        /* \"#utility.yul\":17770:17779   */\n      dup3\n        /* \"#utility.yul\":17766:17785   */\n      add\n        /* \"#utility.yul\":17758:17785   */\n      swap1\n      pop\n        /* \"#utility.yul\":17795:17866   */\n      tag_370\n        /* \"#utility.yul\":17863:17864   */\n      0x00\n        /* \"#utility.yul\":17852:17861   */\n      dup4\n        /* \"#utility.yul\":17848:17865   */\n      add\n        /* \"#utility.yul\":17839:17845   */\n      dup8\n        /* \"#utility.yul\":17795:17866   */\n      tag_174\n      jump\t// in\n    tag_370:\n        /* \"#utility.yul\":17876:17944   */\n      tag_371\n        /* \"#utility.yul\":17940:17942   */\n      0x20\n        /* \"#utility.yul\":17929:17938   */\n      dup4\n        /* \"#utility.yul\":17925:17943   */\n      add\n        /* \"#utility.yul\":17916:17922   */\n      dup7\n        /* \"#utility.yul\":17876:17944   */\n      tag_178\n      jump\t// in\n    tag_371:\n        /* \"#utility.yul\":17954:18026   */\n      tag_372\n        /* \"#utility.yul\":18022:18024   */\n      0x40\n        /* \"#utility.yul\":18011:18020   */\n      dup4\n        /* \"#utility.yul\":18007:18025   */\n      add\n        /* \"#utility.yul\":17998:18004   */\n      dup6\n        /* \"#utility.yul\":17954:18026   */\n      tag_174\n      jump\t// in\n    tag_372:\n        /* \"#utility.yul\":18036:18108   */\n      tag_373\n        /* \"#utility.yul\":18104:18106   */\n      0x60\n        /* \"#utility.yul\":18093:18102   */\n      dup4\n        /* \"#utility.yul\":18089:18107   */\n      add\n        /* \"#utility.yul\":18080:18086   */\n      dup5\n        /* \"#utility.yul\":18036:18108   */\n      tag_174\n      jump\t// in\n    tag_373:\n        /* \"#utility.yul\":17570:18115   */\n      swap6\n      swap5\n      pop\n      pop\n      pop\n      pop\n      pop\n      jump\t// out\n\n    auxdata: 0xa2646970667358221220a7111a31f8caf77ef8228a10ac2c11a2d857a88bca5d506d3ce0fb4afff12fdb64736f6c63430008120033\n}\n",
				"bytecode": {
					"linkReferences": {},
					"object": "608060405234801561001057600080fd5b50611277806100206000396000f3fe6080604052600436106100595760003560e01c806301ffc9a7146100655780631626ba7e146100a25780638da5cb5b146100df5780639e5d4c491461010a578063affed0e01461013a578063fc0c546a1461016557610060565b3661006057005b600080fd5b34801561007157600080fd5b5061008c60048036038101906100879190610926565b610192565b604051610099919061096e565b60405180910390f35b3480156100ae57600080fd5b506100c960048036038101906100c49190610b05565b610264565b6040516100d69190610b70565b60405180910390f35b3480156100eb57600080fd5b506100f461029d565b6040516101019190610bcc565b60405180910390f35b610124600480360381019061011f9190610ca9565b6103ae565b6040516101319190610d9c565b60405180910390f35b34801561014657600080fd5b5061014f610516565b60405161015c9190610dcd565b60405180910390f35b34801561017157600080fd5b5061017a61051c565b60405161018993929190610de8565b60405180910390f35b60007f01ffc9a7000000000000000000000000000000000000000000000000000000007bffffffffffffffffffffffffffffffffffffffffffffffffffffffff1916827bffffffffffffffffffffffffffffffffffffffffffffffffffffffff1916148061025d57507f400a0398000000000000000000000000000000000000000000000000000000007bffffffffffffffffffffffffffffffffffffffffffffffffffffffff1916827bffffffffffffffffffffffffffffffffffffffffffffffffffffffff1916145b9050919050565b60008061027961027261029d565b8585610534565b9050801561029157631626ba7e60e01b915050610297565b60009150505b92915050565b6000806000803073ffffffffffffffffffffffffffffffffffffffff1663fc0c546a6040518163ffffffff1660e01b8152600401606060405180830381865afa1580156102ee573d6000803e3d6000fd5b505050506040513d601f19601f820116820180604052508101906103129190610e49565b92509250925046831461032b57600093505050506103ab565b8173ffffffffffffffffffffffffffffffffffffffff16636352211e826040518263ffffffff1660e01b81526004016103649190610dcd565b602060405180830381865afa158015610381573d6000803e3d6000fd5b505050506040513d601f19601f820116820180604052508101906103a59190610e9c565b93505050505b90565b60606103b861029d565b73ffffffffffffffffffffffffffffffffffffffff163373ffffffffffffffffffffffffffffffffffffffff1614610425576040517f08c379a000000000000000000000000000000000000000000000000000000000815260040161041c90610f26565b60405180910390fd5b600080815461043390610f75565b91905081905550838573ffffffffffffffffffffffffffffffffffffffff167f47d99ad340f52da66535aff7e10da1ceb85a32bcbd9fa1c42314d194545e14d28585604051610483929190610fea565b60405180910390a360008573ffffffffffffffffffffffffffffffffffffffff168585856040516104b592919061103e565b60006040518083038185875af1925050503d80600081146104f2576040519150601f19603f3d011682016040523d82523d6000602084013e6104f7565b606091505b5080935081925050508061050d57815160208301fd5b50949350505050565b60005481565b60008060006105296105c3565b925092509250909192565b60008060006105438585610643565b915091506000600481111561055b5761055a611057565b5b81600481111561056e5761056d611057565b5b1480156105a657508573ffffffffffffffffffffffffffffffffffffffff168273ffffffffffffffffffffffffffffffffffffffff16145b806105b857506105b7868686610694565b5b925050509392505050565b600080600080606067ffffffffffffffff8111156105e4576105e36109da565b5b6040519080825280601f01601f1916602001820160405280156106165781602001600182028036833780820191505090505b50905060ad604d60208301303c8080602001905181019061063791906110c4565b93509350935050909192565b60008060418351036106845760008060006020860151925060408601519150606086015160001a9050610678878285856107d8565b9450945050505061068d565b60006002915091505b9250929050565b60008060008573ffffffffffffffffffffffffffffffffffffffff16631626ba7e60e01b86866040516024016106cb929190611126565b604051602081830303815290604052907bffffffffffffffffffffffffffffffffffffffffffffffffffffffff19166020820180517bffffffffffffffffffffffffffffffffffffffffffffffffffffffff83818316178352505050506040516107359190611187565b600060405180830381855afa9150503d8060008114610770576040519150601f19603f3d011682016040523d82523d6000602084013e610775565b606091505b509150915081801561078957506020815110155b80156107cd5750631626ba7e60e01b7bffffffffffffffffffffffffffffffffffffffffffffffffffffffff1916818060200190518101906107cb91906111b3565b145b925050509392505050565b6000807f7fffffffffffffffffffffffffffffff5d576e7357a4501ddfe92f46681b20a08360001c11156108135760006003915091506108b1565b60006001878787876040516000815260200160405260405161083894939291906111fc565b6020604051602081039080840390855afa15801561085a573d6000803e3d6000fd5b505050602060405103519050600073ffffffffffffffffffffffffffffffffffffffff168173ffffffffffffffffffffffffffffffffffffffff16036108a8576000600192509250506108b1565b80600092509250505b94509492505050565b6000604051905090565b600080fd5b600080fd5b60007fffffffff0000000000000000000000000000000000000000000000000000000082169050919050565b610903816108ce565b811461090e57600080fd5b50565b600081359050610920816108fa565b92915050565b60006020828403121561093c5761093b6108c4565b5b600061094a84828501610911565b91505092915050565b60008115159050919050565b61096881610953565b82525050565b6000602082019050610983600083018461095f565b92915050565b6000819050919050565b61099c81610989565b81146109a757600080fd5b50565b6000813590506109b981610993565b92915050565b600080fd5b600080fd5b6000601f19601f8301169050919050565b7f4e487b7100000000000000000000000000000000000000000000000000000000600052604160045260246000fd5b610a12826109c9565b810181811067ffffffffffffffff82111715610a3157610a306109da565b5b80604052505050565b6000610a446108ba565b9050610a508282610a09565b919050565b600067ffffffffffffffff821115610a7057610a6f6109da565b5b610a79826109c9565b9050602081019050919050565b82818337600083830152505050565b6000610aa8610aa384610a55565b610a3a565b905082815260208101848484011115610ac457610ac36109c4565b5b610acf848285610a86565b509392505050565b600082601f830112610aec57610aeb6109bf565b5b8135610afc848260208601610a95565b91505092915050565b60008060408385031215610b1c57610b1b6108c4565b5b6000610b2a858286016109aa565b925050602083013567ffffffffffffffff811115610b4b57610b4a6108c9565b5b610b5785828601610ad7565b9150509250929050565b610b6a816108ce565b82525050565b6000602082019050610b856000830184610b61565b92915050565b600073ffffffffffffffffffffffffffffffffffffffff82169050919050565b6000610bb682610b8b565b9050919050565b610bc681610bab565b82525050565b6000602082019050610be16000830184610bbd565b92915050565b610bf081610bab565b8114610bfb57600080fd5b50565b600081359050610c0d81610be7565b92915050565b6000819050919050565b610c2681610c13565b8114610c3157600080fd5b50565b600081359050610c4381610c1d565b92915050565b600080fd5b600080fd5b60008083601f840112610c6957610c686109bf565b5b8235905067ffffffffffffffff811115610c8657610c85610c49565b5b602083019150836001820283011115610ca257610ca1610c4e565b5b9250929050565b60008060008060608587031215610cc357610cc26108c4565b5b6000610cd187828801610bfe565b9450506020610ce287828801610c34565b935050604085013567ffffffffffffffff811115610d0357610d026108c9565b5b610d0f87828801610c53565b925092505092959194509250565b600081519050919050565b600082825260208201905092915050565b60005b83811015610d57578082015181840152602081019050610d3c565b60008484015250505050565b6000610d6e82610d1d565b610d788185610d28565b9350610d88818560208601610d39565b610d91816109c9565b840191505092915050565b60006020820190508181036000830152610db68184610d63565b905092915050565b610dc781610c13565b82525050565b6000602082019050610de26000830184610dbe565b92915050565b6000606082019050610dfd6000830186610dbe565b610e0a6020830185610bbd565b610e176040830184610dbe565b949350505050565b600081519050610e2e81610c1d565b92915050565b600081519050610e4381610be7565b92915050565b600080600060608486031215610e6257610e616108c4565b5b6000610e7086828701610e1f565b9350506020610e8186828701610e34565b9250506040610e9286828701610e1f565b9150509250925092565b600060208284031215610eb257610eb16108c4565b5b6000610ec084828501610e34565b91505092915050565b600082825260208201905092915050565b7f596f7572206e6f7420746865206f776e65720000000000000000000000000000600082015250565b6000610f10601283610ec9565b9150610f1b82610eda565b602082019050919050565b60006020820190508181036000830152610f3f81610f03565b9050919050565b7f4e487b7100000000000000000000000000000000000000000000000000000000600052601160045260246000fd5b6000610f8082610c13565b91507fffffffffffffffffffffffffffffffffffffffffffffffffffffffffffffffff8203610fb257610fb1610f46565b5b600182019050919050565b6000610fc98385610d28565b9350610fd6838584610a86565b610fdf836109c9565b840190509392505050565b60006020820190508181036000830152611005818486610fbd565b90509392505050565b600081905092915050565b6000611025838561100e565b9350611032838584610a86565b82840190509392505050565b600061104b828486611019565b91508190509392505050565b7f4e487b7100000000000000000000000000000000000000000000000000000000600052602160045260246000fd5b600061109182610b8b565b9050919050565b6110a181611086565b81146110ac57600080fd5b50565b6000815190506110be81611098565b92915050565b6000806000606084860312156110dd576110dc6108c4565b5b60006110eb86828701610e1f565b93505060206110fc868287016110af565b925050604061110d86828701610e1f565b9150509250925092565b61112081610989565b82525050565b600060408201905061113b6000830185611117565b818103602083015261114d8184610d63565b90509392505050565b600061116182610d1d565b61116b818561100e565b935061117b818560208601610d39565b80840191505092915050565b60006111938284611156565b915081905092915050565b6000815190506111ad81610993565b92915050565b6000602082840312156111c9576111c86108c4565b5b60006111d78482850161119e565b91505092915050565b600060ff82169050919050565b6111f6816111e0565b82525050565b60006080820190506112116000830187611117565b61121e60208301866111ed565b61122b6040830185611117565b6112386060830184611117565b9594505050505056fea2646970667358221220a7111a31f8caf77ef8228a10ac2c11a2d857a88bca5d506d3ce0fb4afff12fdb64736f6c63430008120033",
					"opcodes": "PUSH1 0x80 PUSH1 0x40 MSTORE CALLVALUE DUP1 ISZERO PUSH2 0x10 JUMPI PUSH1 0x0 DUP1 REVERT JUMPDEST POP PUSH2 0x1277 DUP1 PUSH2 0x20 PUSH1 0x0 CODECOPY PUSH1 0x0 RETURN INVALID PUSH1 0x80 PUSH1 0x40 MSTORE PUSH1 0x4 CALLDATASIZE LT PUSH2 0x59 JUMPI PUSH1 0x0 CALLDATALOAD PUSH1 0xE0 SHR DUP1 PUSH4 0x1FFC9A7 EQ PUSH2 0x65 JUMPI DUP1 PUSH4 0x1626BA7E EQ PUSH2 0xA2 JUMPI DUP1 PUSH4 0x8DA5CB5B EQ PUSH2 0xDF JUMPI DUP1 PUSH4 0x9E5D4C49 EQ PUSH2 0x10A JUMPI DUP1 PUSH4 0xAFFED0E0 EQ PUSH2 0x13A JUMPI DUP1 PUSH4 0xFC0C546A EQ PUSH2 0x165 JUMPI PUSH2 0x60 JUMP JUMPDEST CALLDATASIZE PUSH2 0x60 JUMPI STOP JUMPDEST PUSH1 0x0 DUP1 REVERT JUMPDEST CALLVALUE DUP1 ISZERO PUSH2 0x71 JUMPI PUSH1 0x0 DUP1 REVERT JUMPDEST POP PUSH2 0x8C PUSH1 0x4 DUP1 CALLDATASIZE SUB DUP2 ADD SWAP1 PUSH2 0x87 SWAP2 SWAP1 PUSH2 0x926 JUMP JUMPDEST PUSH2 0x192 JUMP JUMPDEST PUSH1 0x40 MLOAD PUSH2 0x99 SWAP2 SWAP1 PUSH2 0x96E JUMP JUMPDEST PUSH1 0x40 MLOAD DUP1 SWAP2 SUB SWAP1 RETURN JUMPDEST CALLVALUE DUP1 ISZERO PUSH2 0xAE JUMPI PUSH1 0x0 DUP1 REVERT JUMPDEST POP PUSH2 0xC9 PUSH1 0x4 DUP1 CALLDATASIZE SUB DUP2 ADD SWAP1 PUSH2 0xC4 SWAP2 SWAP1 PUSH2 0xB05 JUMP JUMPDEST PUSH2 0x264 JUMP JUMPDEST PUSH1 0x40 MLOAD PUSH2 0xD6 SWAP2 SWAP1 PUSH2 0xB70 JUMP JUMPDEST PUSH1 0x40 MLOAD DUP1 SWAP2 SUB SWAP1 RETURN JUMPDEST CALLVALUE DUP1 ISZERO PUSH2 0xEB JUMPI PUSH1 0x0 DUP1 REVERT JUMPDEST POP PUSH2 0xF4 PUSH2 0x29D JUMP JUMPDEST PUSH1 0x40 MLOAD PUSH2 0x101 SWAP2 SWAP1 PUSH2 0xBCC JUMP JUMPDEST PUSH1 0x40 MLOAD DUP1 SWAP2 SUB SWAP1 RETURN JUMPDEST PUSH2 0x124 PUSH1 0x4 DUP1 CALLDATASIZE SUB DUP2 ADD SWAP1 PUSH2 0x11F SWAP2 SWAP1 PUSH2 0xCA9 JUMP JUMPDEST PUSH2 0x3AE JUMP JUMPDEST PUSH1 0x40 MLOAD PUSH2 0x131 SWAP2 SWAP1 PUSH2 0xD9C JUMP JUMPDEST PUSH1 0x40 MLOAD DUP1 SWAP2 SUB SWAP1 RETURN JUMPDEST CALLVALUE DUP1 ISZERO PUSH2 0x146 JUMPI PUSH1 0x0 DUP1 REVERT JUMPDEST POP PUSH2 0x14F PUSH2 0x516 JUMP JUMPDEST PUSH1 0x40 MLOAD PUSH2 0x15C SWAP2 SWAP1 PUSH2 0xDCD JUMP JUMPDEST PUSH1 0x40 MLOAD DUP1 SWAP2 SUB SWAP1 RETURN JUMPDEST CALLVALUE DUP1 ISZERO PUSH2 0x171 JUMPI PUSH1 0x0 DUP1 REVERT JUMPDEST POP PUSH2 0x17A PUSH2 0x51C JUMP JUMPDEST PUSH1 0x40 MLOAD PUSH2 0x189 SWAP4 SWAP3 SWAP2 SWAP1 PUSH2 0xDE8 JUMP JUMPDEST PUSH1 0x40 MLOAD DUP1 SWAP2 SUB SWAP1 RETURN JUMPDEST PUSH1 0x0 PUSH32 0x1FFC9A700000000000000000000000000000000000000000000000000000000 PUSH28 0xFFFFFFFFFFFFFFFFFFFFFFFFFFFFFFFFFFFFFFFFFFFFFFFFFFFFFFFF NOT AND DUP3 PUSH28 0xFFFFFFFFFFFFFFFFFFFFFFFFFFFFFFFFFFFFFFFFFFFFFFFFFFFFFFFF NOT AND EQ DUP1 PUSH2 0x25D JUMPI POP PUSH32 0x400A039800000000000000000000000000000000000000000000000000000000 PUSH28 0xFFFFFFFFFFFFFFFFFFFFFFFFFFFFFFFFFFFFFFFFFFFFFFFFFFFFFFFF NOT AND DUP3 PUSH28 0xFFFFFFFFFFFFFFFFFFFFFFFFFFFFFFFFFFFFFFFFFFFFFFFFFFFFFFFF NOT AND EQ JUMPDEST SWAP1 POP SWAP2 SWAP1 POP JUMP JUMPDEST PUSH1 0x0 DUP1 PUSH2 0x279 PUSH2 0x272 PUSH2 0x29D JUMP JUMPDEST DUP6 DUP6 PUSH2 0x534 JUMP JUMPDEST SWAP1 POP DUP1 ISZERO PUSH2 0x291 JUMPI PUSH4 0x1626BA7E PUSH1 0xE0 SHL SWAP2 POP POP PUSH2 0x297 JUMP JUMPDEST PUSH1 0x0 SWAP2 POP POP JUMPDEST SWAP3 SWAP2 POP POP JUMP JUMPDEST PUSH1 0x0 DUP1 PUSH1 0x0 DUP1 ADDRESS PUSH20 0xFFFFFFFFFFFFFFFFFFFFFFFFFFFFFFFFFFFFFFFF AND PUSH4 0xFC0C546A PUSH1 0x40 MLOAD DUP2 PUSH4 0xFFFFFFFF AND PUSH1 0xE0 SHL DUP2 MSTORE PUSH1 0x4 ADD PUSH1 0x60 PUSH1 0x40 MLOAD DUP1 DUP4 SUB DUP2 DUP7 GAS STATICCALL ISZERO DUP1 ISZERO PUSH2 0x2EE JUMPI RETURNDATASIZE PUSH1 0x0 DUP1 RETURNDATACOPY RETURNDATASIZE PUSH1 0x0 REVERT JUMPDEST POP POP POP POP PUSH1 0x40 MLOAD RETURNDATASIZE PUSH1 0x1F NOT PUSH1 0x1F DUP3 ADD AND DUP3 ADD DUP1 PUSH1 0x40 MSTORE POP DUP2 ADD SWAP1 PUSH2 0x312 SWAP2 SWAP1 PUSH2 0xE49 JUMP JUMPDEST SWAP3 POP SWAP3 POP SWAP3 POP CHAINID DUP4 EQ PUSH2 0x32B JUMPI PUSH1 0x0 SWAP4 POP POP POP POP PUSH2 0x3AB JUMP JUMPDEST DUP2 PUSH20 0xFFFFFFFFFFFFFFFFFFFFFFFFFFFFFFFFFFFFFFFF AND PUSH4 0x6352211E DUP3 PUSH1 0x40 MLOAD DUP3 PUSH4 0xFFFFFFFF AND PUSH1 0xE0 SHL DUP2 MSTORE PUSH1 0x4 ADD PUSH2 0x364 SWAP2 SWAP1 PUSH2 0xDCD JUMP JUMPDEST PUSH1 0x20 PUSH1 0x40 MLOAD DUP1 DUP4 SUB DUP2 DUP7 GAS STATICCALL ISZERO DUP1 ISZERO PUSH2 0x381 JUMPI RETURNDATASIZE PUSH1 0x0 DUP1 RETURNDATACOPY RETURNDATASIZE PUSH1 0x0 REVERT JUMPDEST POP POP POP POP PUSH1 0x40 MLOAD RETURNDATASIZE PUSH1 0x1F NOT PUSH1 0x1F DUP3 ADD AND DUP3 ADD DUP1 PUSH1 0x40 MSTORE POP DUP2 ADD SWAP1 PUSH2 0x3A5 SWAP2 SWAP1 PUSH2 0xE9C JUMP JUMPDEST SWAP4 POP POP POP POP JUMPDEST SWAP1 JUMP JUMPDEST PUSH1 0x60 PUSH2 0x3B8 PUSH2 0x29D JUMP JUMPDEST PUSH20 0xFFFFFFFFFFFFFFFFFFFFFFFFFFFFFFFFFFFFFFFF AND CALLER PUSH20 0xFFFFFFFFFFFFFFFFFFFFFFFFFFFFFFFFFFFFFFFF AND EQ PUSH2 0x425 JUMPI PUSH1 0x40 MLOAD PUSH32 0x8C379A000000000000000000000000000000000000000000000000000000000 DUP2 MSTORE PUSH1 0x4 ADD PUSH2 0x41C SWAP1 PUSH2 0xF26 JUMP JUMPDEST PUSH1 0x40 MLOAD DUP1 SWAP2 SUB SWAP1 REVERT JUMPDEST PUSH1 0x0 DUP1 DUP2 SLOAD PUSH2 0x433 SWAP1 PUSH2 0xF75 JUMP JUMPDEST SWAP2 SWAP1 POP DUP2 SWAP1 SSTORE POP DUP4 DUP6 PUSH20 0xFFFFFFFFFFFFFFFFFFFFFFFFFFFFFFFFFFFFFFFF AND PUSH32 0x47D99AD340F52DA66535AFF7E10DA1CEB85A32BCBD9FA1C42314D194545E14D2 DUP6 DUP6 PUSH1 0x40 MLOAD PUSH2 0x483 SWAP3 SWAP2 SWAP1 PUSH2 0xFEA JUMP JUMPDEST PUSH1 0x40 MLOAD DUP1 SWAP2 SUB SWAP1 LOG3 PUSH1 0x0 DUP6 PUSH20 0xFFFFFFFFFFFFFFFFFFFFFFFFFFFFFFFFFFFFFFFF AND DUP6 DUP6 DUP6 PUSH1 0x40 MLOAD PUSH2 0x4B5 SWAP3 SWAP2 SWAP1 PUSH2 0x103E JUMP JUMPDEST PUSH1 0x0 PUSH1 0x40 MLOAD DUP1 DUP4 SUB DUP2 DUP6 DUP8 GAS CALL SWAP3 POP POP POP RETURNDATASIZE DUP1 PUSH1 0x0 DUP2 EQ PUSH2 0x4F2 JUMPI PUSH1 0x40 MLOAD SWAP2 POP PUSH1 0x1F NOT PUSH1 0x3F RETURNDATASIZE ADD AND DUP3 ADD PUSH1 0x40 MSTORE RETURNDATASIZE DUP3 MSTORE RETURNDATASIZE PUSH1 0x0 PUSH1 0x20 DUP5 ADD RETURNDATACOPY PUSH2 0x4F7 JUMP JUMPDEST PUSH1 0x60 SWAP2 POP JUMPDEST POP DUP1 SWAP4 POP DUP2 SWAP3 POP POP POP DUP1 PUSH2 0x50D JUMPI DUP2 MLOAD PUSH1 0x20 DUP4 ADD REVERT JUMPDEST POP SWAP5 SWAP4 POP POP POP POP JUMP JUMPDEST PUSH1 0x0 SLOAD DUP2 JUMP JUMPDEST PUSH1 0x0 DUP1 PUSH1 0x0 PUSH2 0x529 PUSH2 0x5C3 JUMP JUMPDEST SWAP3 POP SWAP3 POP SWAP3 POP SWAP1 SWAP2 SWAP3 JUMP JUMPDEST PUSH1 0x0 DUP1 PUSH1 0x0 PUSH2 0x543 DUP6 DUP6 PUSH2 0x643 JUMP JUMPDEST SWAP2 POP SWAP2 POP PUSH1 0x0 PUSH1 0x4 DUP2 GT ISZERO PUSH2 0x55B JUMPI PUSH2 0x55A PUSH2 0x1057 JUMP JUMPDEST JUMPDEST DUP2 PUSH1 0x4 DUP2 GT ISZERO PUSH2 0x56E JUMPI PUSH2 0x56D PUSH2 0x1057 JUMP JUMPDEST JUMPDEST EQ DUP1 ISZERO PUSH2 0x5A6 JUMPI POP DUP6 PUSH20 0xFFFFFFFFFFFFFFFFFFFFFFFFFFFFFFFFFFFFFFFF AND DUP3 PUSH20 0xFFFFFFFFFFFFFFFFFFFFFFFFFFFFFFFFFFFFFFFF AND EQ JUMPDEST DUP1 PUSH2 0x5B8 JUMPI POP PUSH2 0x5B7 DUP7 DUP7 DUP7 PUSH2 0x694 JUMP JUMPDEST JUMPDEST SWAP3 POP POP POP SWAP4 SWAP3 POP POP POP JUMP JUMPDEST PUSH1 0x0 DUP1 PUSH1 0x0 DUP1 PUSH1 0x60 PUSH8 0xFFFFFFFFFFFFFFFF DUP2 GT ISZERO PUSH2 0x5E4 JUMPI PUSH2 0x5E3 PUSH2 0x9DA JUMP JUMPDEST JUMPDEST PUSH1 0x40 MLOAD SWAP1 DUP1 DUP3 MSTORE DUP1 PUSH1 0x1F ADD PUSH1 0x1F NOT AND PUSH1 0x20 ADD DUP3 ADD PUSH1 0x40 MSTORE DUP1 ISZERO PUSH2 0x616 JUMPI DUP2 PUSH1 0x20 ADD PUSH1 0x1 DUP3 MUL DUP1 CALLDATASIZE DUP4 CALLDATACOPY DUP1 DUP3 ADD SWAP2 POP POP SWAP1 POP JUMPDEST POP SWAP1 POP PUSH1 0xAD PUSH1 0x4D PUSH1 0x20 DUP4 ADD ADDRESS EXTCODECOPY DUP1 DUP1 PUSH1 0x20 ADD SWAP1 MLOAD DUP2 ADD SWAP1 PUSH2 0x637 SWAP2 SWAP1 PUSH2 0x10C4 JUMP JUMPDEST SWAP4 POP SWAP4 POP SWAP4 POP POP SWAP1 SWAP2 SWAP3 JUMP JUMPDEST PUSH1 0x0 DUP1 PUSH1 0x41 DUP4 MLOAD SUB PUSH2 0x684 JUMPI PUSH1 0x0 DUP1 PUSH1 0x0 PUSH1 0x20 DUP7 ADD MLOAD SWAP3 POP PUSH1 0x40 DUP7 ADD MLOAD SWAP2 POP PUSH1 0x60 DUP7 ADD MLOAD PUSH1 0x0 BYTE SWAP1 POP PUSH2 0x678 DUP8 DUP3 DUP6 DUP6 PUSH2 0x7D8 JUMP JUMPDEST SWAP5 POP SWAP5 POP POP POP POP PUSH2 0x68D JUMP JUMPDEST PUSH1 0x0 PUSH1 0x2 SWAP2 POP SWAP2 POP JUMPDEST SWAP3 POP SWAP3 SWAP1 POP JUMP JUMPDEST PUSH1 0x0 DUP1 PUSH1 0x0 DUP6 PUSH20 0xFFFFFFFFFFFFFFFFFFFFFFFFFFFFFFFFFFFFFFFF AND PUSH4 0x1626BA7E PUSH1 0xE0 SHL DUP7 DUP7 PUSH1 0x40 MLOAD PUSH1 0x24 ADD PUSH2 0x6CB SWAP3 SWAP2 SWAP1 PUSH2 0x1126 JUMP JUMPDEST PUSH1 0x40 MLOAD PUSH1 0x20 DUP2 DUP4 SUB SUB DUP2 MSTORE SWAP1 PUSH1 0x40 MSTORE SWAP1 PUSH28 0xFFFFFFFFFFFFFFFFFFFFFFFFFFFFFFFFFFFFFFFFFFFFFFFFFFFFFFFF NOT AND PUSH1 0x20 DUP3 ADD DUP1 MLOAD PUSH28 0xFFFFFFFFFFFFFFFFFFFFFFFFFFFFFFFFFFFFFFFFFFFFFFFFFFFFFFFF DUP4 DUP2 DUP4 AND OR DUP4 MSTORE POP POP POP POP PUSH1 0x40 MLOAD PUSH2 0x735 SWAP2 SWAP1 PUSH2 0x1187 JUMP JUMPDEST PUSH1 0x0 PUSH1 0x40 MLOAD DUP1 DUP4 SUB DUP2 DUP6 GAS STATICCALL SWAP2 POP POP RETURNDATASIZE DUP1 PUSH1 0x0 DUP2 EQ PUSH2 0x770 JUMPI PUSH1 0x40 MLOAD SWAP2 POP PUSH1 0x1F NOT PUSH1 0x3F RETURNDATASIZE ADD AND DUP3 ADD PUSH1 0x40 MSTORE RETURNDATASIZE DUP3 MSTORE RETURNDATASIZE PUSH1 0x0 PUSH1 0x20 DUP5 ADD RETURNDATACOPY PUSH2 0x775 JUMP JUMPDEST PUSH1 0x60 SWAP2 POP JUMPDEST POP SWAP2 POP SWAP2 POP DUP2 DUP1 ISZERO PUSH2 0x789 JUMPI POP PUSH1 0x20 DUP2 MLOAD LT ISZERO JUMPDEST DUP1 ISZERO PUSH2 0x7CD JUMPI POP PUSH4 0x1626BA7E PUSH1 0xE0 SHL PUSH28 0xFFFFFFFFFFFFFFFFFFFFFFFFFFFFFFFFFFFFFFFFFFFFFFFFFFFFFFFF NOT AND DUP2 DUP1 PUSH1 0x20 ADD SWAP1 MLOAD DUP2 ADD SWAP1 PUSH2 0x7CB SWAP2 SWAP1 PUSH2 0x11B3 JUMP JUMPDEST EQ JUMPDEST SWAP3 POP POP POP SWAP4 SWAP3 POP POP POP JUMP JUMPDEST PUSH1 0x0 DUP1 PUSH32 0x7FFFFFFFFFFFFFFFFFFFFFFFFFFFFFFF5D576E7357A4501DDFE92F46681B20A0 DUP4 PUSH1 0x0 SHR GT ISZERO PUSH2 0x813 JUMPI PUSH1 0x0 PUSH1 0x3 SWAP2 POP SWAP2 POP PUSH2 0x8B1 JUMP JUMPDEST PUSH1 0x0 PUSH1 0x1 DUP8 DUP8 DUP8 DUP8 PUSH1 0x40 MLOAD PUSH1 0x0 DUP2 MSTORE PUSH1 0x20 ADD PUSH1 0x40 MSTORE PUSH1 0x40 MLOAD PUSH2 0x838 SWAP5 SWAP4 SWAP3 SWAP2 SWAP1 PUSH2 0x11FC JUMP JUMPDEST PUSH1 0x20 PUSH1 0x40 MLOAD PUSH1 0x20 DUP2 SUB SWAP1 DUP1 DUP5 SUB SWAP1 DUP6 GAS STATICCALL ISZERO DUP1 ISZERO PUSH2 0x85A JUMPI RETURNDATASIZE PUSH1 0x0 DUP1 RETURNDATACOPY RETURNDATASIZE PUSH1 0x0 REVERT JUMPDEST POP POP POP PUSH1 0x20 PUSH1 0x40 MLOAD SUB MLOAD SWAP1 POP PUSH1 0x0 PUSH20 0xFFFFFFFFFFFFFFFFFFFFFFFFFFFFFFFFFFFFFFFF AND DUP2 PUSH20 0xFFFFFFFFFFFFFFFFFFFFFFFFFFFFFFFFFFFFFFFF AND SUB PUSH2 0x8A8 JUMPI PUSH1 0x0 PUSH1 0x1 SWAP3 POP SWAP3 POP POP PUSH2 0x8B1 JUMP JUMPDEST DUP1 PUSH1 0x0 SWAP3 POP SWAP3 POP POP JUMPDEST SWAP5 POP SWAP5 SWAP3 POP POP POP JUMP JUMPDEST PUSH1 0x0 PUSH1 0x40 MLOAD SWAP1 POP SWAP1 JUMP JUMPDEST PUSH1 0x0 DUP1 REVERT JUMPDEST PUSH1 0x0 DUP1 REVERT JUMPDEST PUSH1 0x0 PUSH32 0xFFFFFFFF00000000000000000000000000000000000000000000000000000000 DUP3 AND SWAP1 POP SWAP2 SWAP1 POP JUMP JUMPDEST PUSH2 0x903 DUP2 PUSH2 0x8CE JUMP JUMPDEST DUP2 EQ PUSH2 0x90E JUMPI PUSH1 0x0 DUP1 REVERT JUMPDEST POP JUMP JUMPDEST PUSH1 0x0 DUP2 CALLDATALOAD SWAP1 POP PUSH2 0x920 DUP2 PUSH2 0x8FA JUMP JUMPDEST SWAP3 SWAP2 POP POP JUMP JUMPDEST PUSH1 0x0 PUSH1 0x20 DUP3 DUP5 SUB SLT ISZERO PUSH2 0x93C JUMPI PUSH2 0x93B PUSH2 0x8C4 JUMP JUMPDEST JUMPDEST PUSH1 0x0 PUSH2 0x94A DUP5 DUP3 DUP6 ADD PUSH2 0x911 JUMP JUMPDEST SWAP2 POP POP SWAP3 SWAP2 POP POP JUMP JUMPDEST PUSH1 0x0 DUP2 ISZERO ISZERO SWAP1 POP SWAP2 SWAP1 POP JUMP JUMPDEST PUSH2 0x968 DUP2 PUSH2 0x953 JUMP JUMPDEST DUP3 MSTORE POP POP JUMP JUMPDEST PUSH1 0x0 PUSH1 0x20 DUP3 ADD SWAP1 POP PUSH2 0x983 PUSH1 0x0 DUP4 ADD DUP5 PUSH2 0x95F JUMP JUMPDEST SWAP3 SWAP2 POP POP JUMP JUMPDEST PUSH1 0x0 DUP2 SWAP1 POP SWAP2 SWAP1 POP JUMP JUMPDEST PUSH2 0x99C DUP2 PUSH2 0x989 JUMP JUMPDEST DUP2 EQ PUSH2 0x9A7 JUMPI PUSH1 0x0 DUP1 REVERT JUMPDEST POP JUMP JUMPDEST PUSH1 0x0 DUP2 CALLDATALOAD SWAP1 POP PUSH2 0x9B9 DUP2 PUSH2 0x993 JUMP JUMPDEST SWAP3 SWAP2 POP POP JUMP JUMPDEST PUSH1 0x0 DUP1 REVERT JUMPDEST PUSH1 0x0 DUP1 REVERT JUMPDEST PUSH1 0x0 PUSH1 0x1F NOT PUSH1 0x1F DUP4 ADD AND SWAP1 POP SWAP2 SWAP1 POP JUMP JUMPDEST PUSH32 0x4E487B7100000000000000000000000000000000000000000000000000000000 PUSH1 0x0 MSTORE PUSH1 0x41 PUSH1 0x4 MSTORE PUSH1 0x24 PUSH1 0x0 REVERT JUMPDEST PUSH2 0xA12 DUP3 PUSH2 0x9C9 JUMP JUMPDEST DUP2 ADD DUP2 DUP2 LT PUSH8 0xFFFFFFFFFFFFFFFF DUP3 GT OR ISZERO PUSH2 0xA31 JUMPI PUSH2 0xA30 PUSH2 0x9DA JUMP JUMPDEST JUMPDEST DUP1 PUSH1 0x40 MSTORE POP POP POP JUMP JUMPDEST PUSH1 0x0 PUSH2 0xA44 PUSH2 0x8BA JUMP JUMPDEST SWAP1 POP PUSH2 0xA50 DUP3 DUP3 PUSH2 0xA09 JUMP JUMPDEST SWAP2 SWAP1 POP JUMP JUMPDEST PUSH1 0x0 PUSH8 0xFFFFFFFFFFFFFFFF DUP3 GT ISZERO PUSH2 0xA70 JUMPI PUSH2 0xA6F PUSH2 0x9DA JUMP JUMPDEST JUMPDEST PUSH2 0xA79 DUP3 PUSH2 0x9C9 JUMP JUMPDEST SWAP1 POP PUSH1 0x20 DUP2 ADD SWAP1 POP SWAP2 SWAP1 POP JUMP JUMPDEST DUP3 DUP2 DUP4 CALLDATACOPY PUSH1 0x0 DUP4 DUP4 ADD MSTORE POP POP POP JUMP JUMPDEST PUSH1 0x0 PUSH2 0xAA8 PUSH2 0xAA3 DUP5 PUSH2 0xA55 JUMP JUMPDEST PUSH2 0xA3A JUMP JUMPDEST SWAP1 POP DUP3 DUP2 MSTORE PUSH1 0x20 DUP2 ADD DUP5 DUP5 DUP5 ADD GT ISZERO PUSH2 0xAC4 JUMPI PUSH2 0xAC3 PUSH2 0x9C4 JUMP JUMPDEST JUMPDEST PUSH2 0xACF DUP5 DUP3 DUP6 PUSH2 0xA86 JUMP JUMPDEST POP SWAP4 SWAP3 POP POP POP JUMP JUMPDEST PUSH1 0x0 DUP3 PUSH1 0x1F DUP4 ADD SLT PUSH2 0xAEC JUMPI PUSH2 0xAEB PUSH2 0x9BF JUMP JUMPDEST JUMPDEST DUP2 CALLDATALOAD PUSH2 0xAFC DUP5 DUP3 PUSH1 0x20 DUP7 ADD PUSH2 0xA95 JUMP JUMPDEST SWAP2 POP POP SWAP3 SWAP2 POP POP JUMP JUMPDEST PUSH1 0x0 DUP1 PUSH1 0x40 DUP4 DUP6 SUB SLT ISZERO PUSH2 0xB1C JUMPI PUSH2 0xB1B PUSH2 0x8C4 JUMP JUMPDEST JUMPDEST PUSH1 0x0 PUSH2 0xB2A DUP6 DUP3 DUP7 ADD PUSH2 0x9AA JUMP JUMPDEST SWAP3 POP POP PUSH1 0x20 DUP4 ADD CALLDATALOAD PUSH8 0xFFFFFFFFFFFFFFFF DUP2 GT ISZERO PUSH2 0xB4B JUMPI PUSH2 0xB4A PUSH2 0x8C9 JUMP JUMPDEST JUMPDEST PUSH2 0xB57 DUP6 DUP3 DUP7 ADD PUSH2 0xAD7 JUMP JUMPDEST SWAP2 POP POP SWAP3 POP SWAP3 SWAP1 POP JUMP JUMPDEST PUSH2 0xB6A DUP2 PUSH2 0x8CE JUMP JUMPDEST DUP3 MSTORE POP POP JUMP JUMPDEST PUSH1 0x0 PUSH1 0x20 DUP3 ADD SWAP1 POP PUSH2 0xB85 PUSH1 0x0 DUP4 ADD DUP5 PUSH2 0xB61 JUMP JUMPDEST SWAP3 SWAP2 POP POP JUMP JUMPDEST PUSH1 0x0 PUSH20 0xFFFFFFFFFFFFFFFFFFFFFFFFFFFFFFFFFFFFFFFF DUP3 AND SWAP1 POP SWAP2 SWAP1 POP JUMP JUMPDEST PUSH1 0x0 PUSH2 0xBB6 DUP3 PUSH2 0xB8B JUMP JUMPDEST SWAP1 POP SWAP2 SWAP1 POP JUMP JUMPDEST PUSH2 0xBC6 DUP2 PUSH2 0xBAB JUMP JUMPDEST DUP3 MSTORE POP POP JUMP JUMPDEST PUSH1 0x0 PUSH1 0x20 DUP3 ADD SWAP1 POP PUSH2 0xBE1 PUSH1 0x0 DUP4 ADD DUP5 PUSH2 0xBBD JUMP JUMPDEST SWAP3 SWAP2 POP POP JUMP JUMPDEST PUSH2 0xBF0 DUP2 PUSH2 0xBAB JUMP JUMPDEST DUP2 EQ PUSH2 0xBFB JUMPI PUSH1 0x0 DUP1 REVERT JUMPDEST POP JUMP JUMPDEST PUSH1 0x0 DUP2 CALLDATALOAD SWAP1 POP PUSH2 0xC0D DUP2 PUSH2 0xBE7 JUMP JUMPDEST SWAP3 SWAP2 POP POP JUMP JUMPDEST PUSH1 0x0 DUP2 SWAP1 POP SWAP2 SWAP1 POP JUMP JUMPDEST PUSH2 0xC26 DUP2 PUSH2 0xC13 JUMP JUMPDEST DUP2 EQ PUSH2 0xC31 JUMPI PUSH1 0x0 DUP1 REVERT JUMPDEST POP JUMP JUMPDEST PUSH1 0x0 DUP2 CALLDATALOAD SWAP1 POP PUSH2 0xC43 DUP2 PUSH2 0xC1D JUMP JUMPDEST SWAP3 SWAP2 POP POP JUMP JUMPDEST PUSH1 0x0 DUP1 REVERT JUMPDEST PUSH1 0x0 DUP1 REVERT JUMPDEST PUSH1 0x0 DUP1 DUP4 PUSH1 0x1F DUP5 ADD SLT PUSH2 0xC69 JUMPI PUSH2 0xC68 PUSH2 0x9BF JUMP JUMPDEST JUMPDEST DUP3 CALLDATALOAD SWAP1 POP PUSH8 0xFFFFFFFFFFFFFFFF DUP2 GT ISZERO PUSH2 0xC86 JUMPI PUSH2 0xC85 PUSH2 0xC49 JUMP JUMPDEST JUMPDEST PUSH1 0x20 DUP4 ADD SWAP2 POP DUP4 PUSH1 0x1 DUP3 MUL DUP4 ADD GT ISZERO PUSH2 0xCA2 JUMPI PUSH2 0xCA1 PUSH2 0xC4E JUMP JUMPDEST JUMPDEST SWAP3 POP SWAP3 SWAP1 POP JUMP JUMPDEST PUSH1 0x0 DUP1 PUSH1 0x0 DUP1 PUSH1 0x60 DUP6 DUP8 SUB SLT ISZERO PUSH2 0xCC3 JUMPI PUSH2 0xCC2 PUSH2 0x8C4 JUMP JUMPDEST JUMPDEST PUSH1 0x0 PUSH2 0xCD1 DUP8 DUP3 DUP9 ADD PUSH2 0xBFE JUMP JUMPDEST SWAP5 POP POP PUSH1 0x20 PUSH2 0xCE2 DUP8 DUP3 DUP9 ADD PUSH2 0xC34 JUMP JUMPDEST SWAP4 POP POP PUSH1 0x40 DUP6 ADD CALLDATALOAD PUSH8 0xFFFFFFFFFFFFFFFF DUP2 GT ISZERO PUSH2 0xD03 JUMPI PUSH2 0xD02 PUSH2 0x8C9 JUMP JUMPDEST JUMPDEST PUSH2 0xD0F DUP8 DUP3 DUP9 ADD PUSH2 0xC53 JUMP JUMPDEST SWAP3 POP SWAP3 POP POP SWAP3 SWAP6 SWAP2 SWAP5 POP SWAP3 POP JUMP JUMPDEST PUSH1 0x0 DUP2 MLOAD SWAP1 POP SWAP2 SWAP1 POP JUMP JUMPDEST PUSH1 0x0 DUP3 DUP3 MSTORE PUSH1 0x20 DUP3 ADD SWAP1 POP SWAP3 SWAP2 POP POP JUMP JUMPDEST PUSH1 0x0 JUMPDEST DUP4 DUP2 LT ISZERO PUSH2 0xD57 JUMPI DUP1 DUP3 ADD MLOAD DUP2 DUP5 ADD MSTORE PUSH1 0x20 DUP2 ADD SWAP1 POP PUSH2 0xD3C JUMP JUMPDEST PUSH1 0x0 DUP5 DUP5 ADD MSTORE POP POP POP POP JUMP JUMPDEST PUSH1 0x0 PUSH2 0xD6E DUP3 PUSH2 0xD1D JUMP JUMPDEST PUSH2 0xD78 DUP2 DUP6 PUSH2 0xD28 JUMP JUMPDEST SWAP4 POP PUSH2 0xD88 DUP2 DUP6 PUSH1 0x20 DUP7 ADD PUSH2 0xD39 JUMP JUMPDEST PUSH2 0xD91 DUP2 PUSH2 0x9C9 JUMP JUMPDEST DUP5 ADD SWAP2 POP POP SWAP3 SWAP2 POP POP JUMP JUMPDEST PUSH1 0x0 PUSH1 0x20 DUP3 ADD SWAP1 POP DUP2 DUP2 SUB PUSH1 0x0 DUP4 ADD MSTORE PUSH2 0xDB6 DUP2 DUP5 PUSH2 0xD63 JUMP JUMPDEST SWAP1 POP SWAP3 SWAP2 POP POP JUMP JUMPDEST PUSH2 0xDC7 DUP2 PUSH2 0xC13 JUMP JUMPDEST DUP3 MSTORE POP POP JUMP JUMPDEST PUSH1 0x0 PUSH1 0x20 DUP3 ADD SWAP1 POP PUSH2 0xDE2 PUSH1 0x0 DUP4 ADD DUP5 PUSH2 0xDBE JUMP JUMPDEST SWAP3 SWAP2 POP POP JUMP JUMPDEST PUSH1 0x0 PUSH1 0x60 DUP3 ADD SWAP1 POP PUSH2 0xDFD PUSH1 0x0 DUP4 ADD DUP7 PUSH2 0xDBE JUMP JUMPDEST PUSH2 0xE0A PUSH1 0x20 DUP4 ADD DUP6 PUSH2 0xBBD JUMP JUMPDEST PUSH2 0xE17 PUSH1 0x40 DUP4 ADD DUP5 PUSH2 0xDBE JUMP JUMPDEST SWAP5 SWAP4 POP POP POP POP JUMP JUMPDEST PUSH1 0x0 DUP2 MLOAD SWAP1 POP PUSH2 0xE2E DUP2 PUSH2 0xC1D JUMP JUMPDEST SWAP3 SWAP2 POP POP JUMP JUMPDEST PUSH1 0x0 DUP2 MLOAD SWAP1 POP PUSH2 0xE43 DUP2 PUSH2 0xBE7 JUMP JUMPDEST SWAP3 SWAP2 POP POP JUMP JUMPDEST PUSH1 0x0 DUP1 PUSH1 0x0 PUSH1 0x60 DUP5 DUP7 SUB SLT ISZERO PUSH2 0xE62 JUMPI PUSH2 0xE61 PUSH2 0x8C4 JUMP JUMPDEST JUMPDEST PUSH1 0x0 PUSH2 0xE70 DUP7 DUP3 DUP8 ADD PUSH2 0xE1F JUMP JUMPDEST SWAP4 POP POP PUSH1 0x20 PUSH2 0xE81 DUP7 DUP3 DUP8 ADD PUSH2 0xE34 JUMP JUMPDEST SWAP3 POP POP PUSH1 0x40 PUSH2 0xE92 DUP7 DUP3 DUP8 ADD PUSH2 0xE1F JUMP JUMPDEST SWAP2 POP POP SWAP3 POP SWAP3 POP SWAP3 JUMP JUMPDEST PUSH1 0x0 PUSH1 0x20 DUP3 DUP5 SUB SLT ISZERO PUSH2 0xEB2 JUMPI PUSH2 0xEB1 PUSH2 0x8C4 JUMP JUMPDEST JUMPDEST PUSH1 0x0 PUSH2 0xEC0 DUP5 DUP3 DUP6 ADD PUSH2 0xE34 JUMP JUMPDEST SWAP2 POP POP SWAP3 SWAP2 POP POP JUMP JUMPDEST PUSH1 0x0 DUP3 DUP3 MSTORE PUSH1 0x20 DUP3 ADD SWAP1 POP SWAP3 SWAP2 POP POP JUMP JUMPDEST PUSH32 0x596F7572206E6F7420746865206F776E65720000000000000000000000000000 PUSH1 0x0 DUP3 ADD MSTORE POP JUMP JUMPDEST PUSH1 0x0 PUSH2 0xF10 PUSH1 0x12 DUP4 PUSH2 0xEC9 JUMP JUMPDEST SWAP2 POP PUSH2 0xF1B DUP3 PUSH2 0xEDA JUMP JUMPDEST PUSH1 0x20 DUP3 ADD SWAP1 POP SWAP2 SWAP1 POP JUMP JUMPDEST PUSH1 0x0 PUSH1 0x20 DUP3 ADD SWAP1 POP DUP2 DUP2 SUB PUSH1 0x0 DUP4 ADD MSTORE PUSH2 0xF3F DUP2 PUSH2 0xF03 JUMP JUMPDEST SWAP1 POP SWAP2 SWAP1 POP JUMP JUMPDEST PUSH32 0x4E487B7100000000000000000000000000000000000000000000000000000000 PUSH1 0x0 MSTORE PUSH1 0x11 PUSH1 0x4 MSTORE PUSH1 0x24 PUSH1 0x0 REVERT JUMPDEST PUSH1 0x0 PUSH2 0xF80 DUP3 PUSH2 0xC13 JUMP JUMPDEST SWAP2 POP PUSH32 0xFFFFFFFFFFFFFFFFFFFFFFFFFFFFFFFFFFFFFFFFFFFFFFFFFFFFFFFFFFFFFFFF DUP3 SUB PUSH2 0xFB2 JUMPI PUSH2 0xFB1 PUSH2 0xF46 JUMP JUMPDEST JUMPDEST PUSH1 0x1 DUP3 ADD SWAP1 POP SWAP2 SWAP1 POP JUMP JUMPDEST PUSH1 0x0 PUSH2 0xFC9 DUP4 DUP6 PUSH2 0xD28 JUMP JUMPDEST SWAP4 POP PUSH2 0xFD6 DUP4 DUP6 DUP5 PUSH2 0xA86 JUMP JUMPDEST PUSH2 0xFDF DUP4 PUSH2 0x9C9 JUMP JUMPDEST DUP5 ADD SWAP1 POP SWAP4 SWAP3 POP POP POP JUMP JUMPDEST PUSH1 0x0 PUSH1 0x20 DUP3 ADD SWAP1 POP DUP2 DUP2 SUB PUSH1 0x0 DUP4 ADD MSTORE PUSH2 0x1005 DUP2 DUP5 DUP7 PUSH2 0xFBD JUMP JUMPDEST SWAP1 POP SWAP4 SWAP3 POP POP POP JUMP JUMPDEST PUSH1 0x0 DUP2 SWAP1 POP SWAP3 SWAP2 POP POP JUMP JUMPDEST PUSH1 0x0 PUSH2 0x1025 DUP4 DUP6 PUSH2 0x100E JUMP JUMPDEST SWAP4 POP PUSH2 0x1032 DUP4 DUP6 DUP5 PUSH2 0xA86 JUMP JUMPDEST DUP3 DUP5 ADD SWAP1 POP SWAP4 SWAP3 POP POP POP JUMP JUMPDEST PUSH1 0x0 PUSH2 0x104B DUP3 DUP5 DUP7 PUSH2 0x1019 JUMP JUMPDEST SWAP2 POP DUP2 SWAP1 POP SWAP4 SWAP3 POP POP POP JUMP JUMPDEST PUSH32 0x4E487B7100000000000000000000000000000000000000000000000000000000 PUSH1 0x0 MSTORE PUSH1 0x21 PUSH1 0x4 MSTORE PUSH1 0x24 PUSH1 0x0 REVERT JUMPDEST PUSH1 0x0 PUSH2 0x1091 DUP3 PUSH2 0xB8B JUMP JUMPDEST SWAP1 POP SWAP2 SWAP1 POP JUMP JUMPDEST PUSH2 0x10A1 DUP2 PUSH2 0x1086 JUMP JUMPDEST DUP2 EQ PUSH2 0x10AC JUMPI PUSH1 0x0 DUP1 REVERT JUMPDEST POP JUMP JUMPDEST PUSH1 0x0 DUP2 MLOAD SWAP1 POP PUSH2 0x10BE DUP2 PUSH2 0x1098 JUMP JUMPDEST SWAP3 SWAP2 POP POP JUMP JUMPDEST PUSH1 0x0 DUP1 PUSH1 0x0 PUSH1 0x60 DUP5 DUP7 SUB SLT ISZERO PUSH2 0x10DD JUMPI PUSH2 0x10DC PUSH2 0x8C4 JUMP JUMPDEST JUMPDEST PUSH1 0x0 PUSH2 0x10EB DUP7 DUP3 DUP8 ADD PUSH2 0xE1F JUMP JUMPDEST SWAP4 POP POP PUSH1 0x20 PUSH2 0x10FC DUP7 DUP3 DUP8 ADD PUSH2 0x10AF JUMP JUMPDEST SWAP3 POP POP PUSH1 0x40 PUSH2 0x110D DUP7 DUP3 DUP8 ADD PUSH2 0xE1F JUMP JUMPDEST SWAP2 POP POP SWAP3 POP SWAP3 POP SWAP3 JUMP JUMPDEST PUSH2 0x1120 DUP2 PUSH2 0x989 JUMP JUMPDEST DUP3 MSTORE POP POP JUMP JUMPDEST PUSH1 0x0 PUSH1 0x40 DUP3 ADD SWAP1 POP PUSH2 0x113B PUSH1 0x0 DUP4 ADD DUP6 PUSH2 0x1117 JUMP JUMPDEST DUP2 DUP2 SUB PUSH1 0x20 DUP4 ADD MSTORE PUSH2 0x114D DUP2 DUP5 PUSH2 0xD63 JUMP JUMPDEST SWAP1 POP SWAP4 SWAP3 POP POP POP JUMP JUMPDEST PUSH1 0x0 PUSH2 0x1161 DUP3 PUSH2 0xD1D JUMP JUMPDEST PUSH2 0x116B DUP2 DUP6 PUSH2 0x100E JUMP JUMPDEST SWAP4 POP PUSH2 0x117B DUP2 DUP6 PUSH1 0x20 DUP7 ADD PUSH2 0xD39 JUMP JUMPDEST DUP1 DUP5 ADD SWAP2 POP POP SWAP3 SWAP2 POP POP JUMP JUMPDEST PUSH1 0x0 PUSH2 0x1193 DUP3 DUP5 PUSH2 0x1156 JUMP JUMPDEST SWAP2 POP DUP2 SWAP1 POP SWAP3 SWAP2 POP POP JUMP JUMPDEST PUSH1 0x0 DUP2 MLOAD SWAP1 POP PUSH2 0x11AD DUP2 PUSH2 0x993 JUMP JUMPDEST SWAP3 SWAP2 POP POP JUMP JUMPDEST PUSH1 0x0 PUSH1 0x20 DUP3 DUP5 SUB SLT ISZERO PUSH2 0x11C9 JUMPI PUSH2 0x11C8 PUSH2 0x8C4 JUMP JUMPDEST JUMPDEST PUSH1 0x0 PUSH2 0x11D7 DUP5 DUP3 DUP6 ADD PUSH2 0x119E JUMP JUMPDEST SWAP2 POP POP SWAP3 SWAP2 POP POP JUMP JUMPDEST PUSH1 0x0 PUSH1 0xFF DUP3 AND SWAP1 POP SWAP2 SWAP1 POP JUMP JUMPDEST PUSH2 0x11F6 DUP2 PUSH2 0x11E0 JUMP JUMPDEST DUP3 MSTORE POP POP JUMP JUMPDEST PUSH1 0x0 PUSH1 0x80 DUP3 ADD SWAP1 POP PUSH2 0x1211 PUSH1 0x0 DUP4 ADD DUP8 PUSH2 0x1117 JUMP JUMPDEST PUSH2 0x121E PUSH1 0x20 DUP4 ADD DUP7 PUSH2 0x11ED JUMP JUMPDEST PUSH2 0x122B PUSH1 0x40 DUP4 ADD DUP6 PUSH2 0x1117 JUMP JUMPDEST PUSH2 0x1238 PUSH1 0x60 DUP4 ADD DUP5 PUSH2 0x1117 JUMP JUMPDEST SWAP6 SWAP5 POP POP POP POP POP JUMP INVALID LOG2 PUSH5 0x6970667358 0x22 SLT KECCAK256 0xA7 GT BYTE BALANCE 0xF8 0xCA 0xF7 PUSH31 0xF8228A10AC2C11A2D857A88BCA5D506D3CE0FB4AFFF12FDB64736F6C634300 ADDMOD SLT STOP CALLER "
				},
				"gasEstimates": {
					"creation": {
						"codeDepositCost": "945400",
						"executionCost": "981",
						"totalCost": "946381"
					},
					"external": {
						"executeCall(address,uint256,bytes)": "infinite",
						"isValidSignature(bytes32,bytes)": "infinite",
						"nonce()": "2495",
						"owner()": "infinite",
						"supportsInterface(bytes4)": "662",
						"token()": "infinite"
					}
				},
				"methodIdentifiers": {
					"executeCall(address,uint256,bytes)": "9e5d4c49",
					"isValidSignature(bytes32,bytes)": "1626ba7e",
					"nonce()": "affed0e0",
					"owner()": "8da5cb5b",
					"supportsInterface(bytes4)": "01ffc9a7",
					"token()": "fc0c546a"
				}
			},
			"storageLayout": {
				"storage": [
					{
						"astId": 1822,
						"contract": "contracts/simple ERC721Account.sol:SimpleERC6551Account",
						"label": "nonce",
						"offset": 0,
						"slot": "0",
						"type": "t_uint256"
					}
				],
				"types": {
					"t_uint256": {
						"encoding": "inplace",
						"label": "uint256",
						"numberOfBytes": "32"
					}
				}
			},
			"userdoc": {
				"kind": "user",
				"methods": {},
				"version": 1
			}
		}
	}
}